:100000000C9462000C9444110C941D110C948A0001
:100010000C948A000C948A000C948A000C948A0038
:100020000C948A000C946B110C948A000C948A0036
:100030000C948A000C940B130C948A000C948A0084
:100040000C94B01F0C948A000C948A000C948A00C3
:100050000C948A000C948A000C948A000C948A00F8
:100060000C94DD110C948A0000000000240027008D
:100070002A0000000000250028002B0000000000DE
:1000800023002600290004040404040404040202DA
:100090000202020203030303030301020408102007
:1000A0004080010204081020010204081020000012
:1000B0000008000201000003040700000000000027
:1000C0000000822811241FBECFEFD8E0DEBFCDBFD5
:1000D00011E0A0E0B1E0E2EFF6E502C005900D927C
:1000E000AE32B107D9F727E0AEE2B1E001C01D9210
:1000F000A030B207E1F710E0C2E6D0E004C02197DB
:10010000FE010E946C2BC136D107C9F70E94452021
:100110000C94772B0C940000CF92DF92FF920F93F8
:100120001F93CF93DF93D82FC62FF42E61E08C2F2F
:100130000E94121F61E08D2F0E94121F60E08D2F20
:100140000E94E31E60E08C2F0E94E31E07E010E097
:10015000CC24C394D12C60E08C2F0E94E31EB60106
:10016000002E01C0660F0A94EAF76F218D2F0E94BE
:10017000E31E61E08C2F0E94E31E60E08D2F0E9441
:10018000E31E0150110938F760E08C2FDF91CF9109
:100190001F910F91FF90DF90CF900C94E31E2F9250
:1001A0003F924F925F926F927F928F929F92AF9207
:1001B000BF92CF92DF92EF92FF920F931F93CF9354
:1001C000DF93CDB7DEB72E970FB6F894DEBF0FBE24
:1001D000CDBF2DB73EB73E872D87809180008F77AA
:1001E00080938000299A8BE490E00197F1F7809149
:1001F00080008F778093800029980E949E098093C9
:1002000000010E949E09809301010E949E09809333
:1002100002010E949E098093030140E0C42E41E048
:10022000D42EB12C0B2DE12CF12C0230C1F1033076
:10023000C1F10130C1F10023C1F10630C1F1083034
:10024000C1F10530C1F10430C1F10B30C1F10C3006
:10025000C1F10A30C1F10930C1F10031C1F1013100
:10026000C1F10E30C1F10D30C1F10431C1F10531E0
:10027000C1F10331C1F10231C1F10931C1F10A31DA
:10028000C1F10831C1F10631C1F10D31C1F10E31B9
:10029000C1F10C31C1F10B31C1F115E437C010E0EF
:1002A00035C011E033C012E031C013E02FC014E0BC
:1002B0002DC015E02BC016E029C017E027C018E0BC
:1002C00025C019E023C01AE021C01BE01FC01CE0BC
:1002D0001DC01DE01BC01EE019C01FE017C010E1CB
:1002E00015C011E113C012E111C013E10FC014E1F8
:1002F0000DC015E10BC016E109C017E107C018E1F8
:1003000005C019E103C01AE101C01BE1812F0E9461
:10031000DB0AD6012C9130E00E2C02C035952795D2
:100320000A94E2F720FF08C08A3021F08E3111F0E4
:100330006AE009C06EE107C0843109F456C1883211
:1003400009F453C164E1812F0E940C0BBFEFEB1A3B
:10035000FB0A0F5FE8E0EE16F10409F066CFFFEF4D
:10036000CF1ADF0A28E0B20E30E2B3125BCF40ECC6
:1003700056E05C834B8360EE7FEF78876F8388EF76
:100380009FEF9A8389839CEE9D8300EFA1E0AE836B
:1003900010E0212C312C812F0E94DB0A8A3009F0D9
:1003A00098C0809107018837A9F4143120F088EEB5
:1003B000810F843020F48091A5010E9487177D81F0
:1003C000743008F086C00E940B1C8091A5010E9429
:1003D00087177FC09091B30693FF3BC061E0812FE8
:1003E0000E941C0A0E942820103140F440E061E085
:1003F000812F0E948C0A0E94090A6BC01B3121F4D4
:1004000084E00E940D2069C0183109F062C080911B
:10041000B30682FDECC0BFEF2B1A3B0A1F5FEE81D3
:10042000EF5FEE830F5FFD81FF5FFD8329813A81DE
:100430002F5F3F4F3A8329834B815C814C5F5F4F35
:100440005C834B836F8178856E5F7F4F78876F8386
:10045000A2CF1831B9F480915401811104C0809168
:100460000801811126C080915301882329F0109240
:1004700053010E9445181DC00E94451881E08093D9
:10048000530117C01A3111F482E011C01B3189F4F5
:10049000803519F41092070109C0843611F481E007
:1004A00003C08A3519F488E08093070184E00E9434
:1004B0000D20F09007018091B3069FE0F9129BC0D8
:1004C000982F9670963009F096C0103110F40E9463
:1004D000340E6E816C3109F09ECF10E0812F0E94A6
:1004E000DB0A082F843109F05CC08091B30683FFDA
:1004F00015C060E0812F0E941C0A0E942820103144
:1005000040F440E060E0812F0E948C0A0E94090ABA
:1005100048C01B3109F045C084E019C01A3121F4EC
:1005200082E00E94321307C01B3129F484E00E944C
:10053000321300934F010E94431D882319F0193193
:1005400009F4DFC680910701803521F481E00E9423
:10055000321327C0853019F4103118F51EC08730CA
:1005600059F40E948E169CEF910F9430D0F4880FAE
:10057000880F60E0890F13C0823099F4103188F43D
:100580000E948816813029F460E0812F0E940D18A6
:1005900008C0833031F41092A60160E0812F0E94E0
:1005A000F00F1F5F1C3109F099CFED85FE850FB666
:1005B000F894FEBF0FBEEDBF2E960FB6F894DEBFC7
:1005C0000FBECDBFDF91CF911F910F91FF90EF90A4
:1005D000DF90CF90BF90AF909F908F907F906F9063
:1005E0005F904F903F902F90089568E2ACCE88E0E6
:1005F0000E9432136ECF81FF2EC0AFE0FA1659F180
:100600001031E0F441E060E0809143010E9458160F
:10061000811107C0109350011092AC060E94DA0BB2
:100620000DC0813021F4812F0E94180D07C0823047
:1006300029F4412F62E08F2D0E94341D043008F010
:1006400048CF202F41E060E0809143010E943117A4
:10065000809343013ECF82FF0EC0103108F044C6A4
:100660001E3029F4809150010E94180D3DC6812F43
:100670000E94871739C6B1E0BF1560F4E8E0FE16A6
:1006800009F443C6FCE3FF1609F446C628E2F21259
:1006900014C049C6103148F410934E01F11002C045
:1006A00080E501C084E60E948717809107018C33A2
:1006B000D9F1883209F013C637C036E4F31210C0FE
:1006C000103190F5E0904E0144E0E49EC001112409
:1006D000BC016054794F7B01212F43E060E012C0E0
:1006E000F2E3FF1217C01031F8F4E0904E0124E05D
:1006F000E29EC0011124AC014054594F7A01212FD0
:1007000047E064E0D70113968C910E943117F701FE
:1007100083830AC0FEE1FF1222C0103128F4412F6A
:1007200063E08BE00E94341D0430A8F0143111F412
:1007300088E203C0153121F48CE30E948717CFC5EE
:10074000163111F48EE1F9CF173109F0C8C540E038
:1007500064E08BE040C48BE00E948717BDC520E5B4
:10076000F212D3C01931C1F480914E01E091AC0670
:1007700030E9E39FF001112449E0849FE00DF11D71
:100780001124E45DFD4F80850E949416882331F08A
:1007900081E00E940D2002C01031D8F1E090AC063B
:1007A00080914E0170E9E79E70011124D701E9E0C4
:1007B0008E9FA00DB11D11249D01245D3D4F790137
:1007C000D90118968C910E94941690E0409682155B
:1007D0009305FCF08091B30680FFACC50E9488169B
:1007E000F701E80FF11DE80FF11D8081CF80D8845B
:1007F000CE0CDF1CD6018C930E948816F701E80FFF
:10080000F11DE80FF11D8181F601818381E00E94D5
:100810003213E090AC0680914E01A82EB12CCE2C64
:10082000D12CF0E9EF9E70011124970149E0849FDB
:10083000200D311D1124B901645D7D4F7B01DB0169
:1008400018968C910E949816183020F50E948816F0
:10085000F701E80FF11DE80FF11D8081282F30E02E
:10086000022C02C0359527950A94E2F720FF09C0B3
:1008700021E030E0022C01C0220F0A94EAF7821B2B
:1008800008C021E030E0022C01C0220F0A94EAF7F0
:10089000820F8083B981B83008F021C50E94881684
:1008A00099E09A9DA0019B9D500D112490E99C9D7B
:1008B00090019D9D300D1124240F351F280F311DEF
:1008C000280F311DF901E35DFD4F8081282F30E0B5
:1008D000098002C0359527950A94E2F720FF0AC0E7
:1008E00021E030E0098002C0220F331F0A94E2F7B2
:1008F000821B09C021E030E0098002C0220F331FB3
:100900000A94E2F7820F8083EAC4EAE5FE1291C0FE
:100910001031E0F4E090AC0680914E01F0E9EF9EDA
:1009200070011124970149E0849F200D311D11248D
:10093000B901645D7D4F7B01212F43E060E0D70169
:1009400018968C910E943117F7018087043008F0C7
:1009500050C0E090AC0680914E01F0E9EF9E70012E
:100960001124970149E0849F200D311D1124B90104
:10097000645D7D4F7B01DB011896CC908C2D0E942D
:100980009416D82E202F45E064E08C2D0E9431175C
:10099000F7018087D81669F1D11009C08081828360
:1009A0008181838380818483818185831EC0F1E07E
:1009B000DF1217C0D7018C9114968C93149711965F
:1009C0008C91119715968C93159712968C9112977E
:1009D00016968C93169713968C91139717968C9363
:1009E00008C0B2E0DB1205C0F701808186838181F7
:1009F0008783FD81F43008F072C4E090AC068091EA
:100A00004E0120E9E29E70011124A70169E0869F52
:100A1000400D511D1124DA01A45DBD4F7D012F2F22
:100A200047E066E018968C910E943117F7018087A5
:100A300056C4F4E0FF120DC0103108F050C4AB8171
:100A4000BC814C914095417061E0812F0E9416203D
:100A500046C4B5E0FB1208C0103108F040C461E0A4
:100A6000812F0E94F00F3BC4EBE0FE1239C0103121
:100A700098F50E94881681110AC0AB81BC814C9107
:100A800045FB442740F981E0482760E222C08130DD
:100A900051F4EB81FC81408142954F708427482FAF
:100AA000417060E116C0823049F4AB81BC814C9149
:100AB0004095441F4427441F60E80BC0833061F415
:100AC000EB81FC81408146FB442740F981E04827C7
:100AD00060E4812F0E941620043008F027CEFCC36A
:100AE000F6E0FF1208C0103108F0F9C3AB81BC81F9
:100AF00012961C92F4C3B9E0FB12B1C0103108F099
:100B0000AAC00E948816E82E8DB69EB68091AC06CB
:100B1000F29CF001F39CF00D1124682E712C20E959
:100B2000829FE00DF11D1124E45DFD4FF0848F2DB7
:100B30000E949816D82E8F2D0E94941690E0019650
:100B4000F82ED89EF00C1124CF2CD12C4DB75EB7C7
:100B50004C195D090FB6F8945EBF0FBE4DBF6DB75F
:100B60007EB76F5F7F4F5B01CB018C0D9D1DFB013D
:100B70008E179F0799F4F50140E089E0829D90016E
:100B8000839D300D112450E9569DC001579D900D55
:100B90001124280F391F245D3D4F02C01192E8CF68
:100BA000F416A1F0842F869586958695D901A80F15
:100BB000B11D8C9190E0542F577002C09595879588
:100BC0005A95E2F7817081934F5FEACF812F0E949F
:100BD000B617EE2019F08FEF9FEF02C081E090E092
:100BE0004091AC06E0E0F0E03C016C0C7D1C89E03B
:100BF000829D9001839D300D112470E9479F200D47
:100C0000311D1124245D3D4F4E2FEF15F8F4C30123
:100C10008E0F9F1FB6010E94582BD501A80FB91F38
:100C20008C91813089F48E2F869586958695D90191
:100C3000A80FB11D477081E090E001C0880F4A9570
:100C4000EAF79C91890F8C933196DECF0FB6F8941A
:100C50009EBE0FBE8DBE023008F041C33DC38AE088
:100C6000F8129FC0103108F03AC36DB67EB680917D
:100C7000AC0699E0929DF001939DF00D1124A82EF1
:100C8000B12C90E9899FE00DF11D1124E45DFD4F29
:100C9000F0848F2D0E949816E82E8F2D0E949416B6
:100CA00090E00196982EE89E900C1124E92CF12CEE
:100CB000ADB7BEB7AE19BF090FB6F894BEBF0FBE31
:100CC000ADBFEDB7FEB731966F01CF018E0D9F1D01
:100CD0008E179F0799F4F60140E089E0829D90010C
:100CE000839D300D112450E95A9DC0015B9D900DEC
:100CF0001124280F391F245D3D4F02C01192E8CF07
:100D00009416A1F0842F869586958695D901A80F13
:100D1000B11D8C9190E0542F577002C09595879526
:100D20005A95E2F7817081934F5FEACF812F0E943D
:100D3000B6172091AC06F1E0EF1AF108D601AE0D1E
:100D4000BF1D40E039E0329DC001339D900D11245C
:100D500030E9239F800D911D1124845D9D4F9416D1
:100D6000D1F02C912130A1F4242F2695269526959B
:100D7000FC01E20FF11D242F277061E070E002C03A
:100D8000660F771F2A95E2F79B013081230F20839E
:100D90004F5F1197E4CF0FB6F8947EBE0FBE6DBEC5
:100DA0009EC272E0F71224C0103108F093C20E9474
:100DB0008816811104C0812F0E9493288BC2813034
:100DC00029F461E0812F0E940D1884C2823029F439
:100DD000412F60E00E94341D7DC2833009F07AC249
:100DE00081E08093A60161E0812F0E94F00F72C222
:100DF0008CE0F81230C080915401882301F18BEE11
:100E0000810F833058F480911601893208F467C24B
:100E10008150809316010E94A72861C2812F877F8D
:100E2000863021F087EF810F833048F480911601DE
:100E3000803F28F48F5F809316010E94A72811112C
:100E40004EC281E090915401911180E08093540151
:100E50000E94D21A44C293E0F912AFC0103108F0D8
:100E600039C2A12CB12C89E0829D4001839D900C58
:100E7000112430E9E32E0E944A292FEF30E040E0B0
:100E800050E00E94A129F62E0E9488168330D0F5EA
:100E9000C12CD12C0E944A292B013C010E948816AA
:100EA00090E00196A9E1A89F9001A99F300D11241F
:100EB000A901330F660B770B49875A876B877C87AD
:100EC000C301B20124E630E040E050E00E94A129D5
:100ED00029853A854B855C852617370748075907CA
:100EE00054F48F2D90E00C2C02C0959587950A94B0
:100EF000E2F780FDFDC13FEFC31AD30A48E0C416F4
:100F0000D10441F68091AC06C82ED12CF401E89EA4
:100F1000E00DF11D1124E45DFD4FDF01AA0DBB1DA5
:100F2000FC925FEFA51AB50A68E0A616B10409F0B5
:100F3000A2CF2081818190E0820F911D892B09F041
:100F4000C9C10E944A292B013C010E944A294B0138
:100F50005C01C301B20124E130E040E050E00E94B6
:100F6000A12921E030E06B3071058105910514F075
:100F700020E030E089E0829D7001839DF00C112417
:100F800040E94C9DC0014D9D900D11248E0D9F1D7B
:100F9000845D9D4F7C01E20EF31EC501B40127E084
:100FA00030E040E050E00E94A12981E001C0880FBC
:100FB0006A95EAF7D7018C938DC1BDE0FB120EC094
:100FC000103118F4412F60E005C0083008F087C1E7
:100FD000402F61E08DE00E94341D81C1E7E0FE12E8
:100FE00053C00E948E16F82E1430A0F4880F880F7C
:100FF000810F24E0829FF0011124E054F94F4081D9
:1010000043FF03C00E94932805C04095417061E0F2
:101010000E9416208CEF810F8430B0F44F2D440FC6
:10102000440F840F34E0839FF0011124E054F94F02
:10103000908193FF06C0482F60E087E00E94341D36
:1010400003C061E00E94F00F4981443098F48F2D75
:10105000880F880F840F54E0859FF0011124E0541D
:10106000F94F408143FB442740F991E0492768E06C
:101070000E94162084EF810F843008F030C10E9456
:1010800064170E946E172BC164E1F61202C08FE054
:1010900054CB7FE0F7124DC0111108C081E0909150
:1010A0005901911180E08093590119C1113041F427
:1010B00081E090914901911180E0809349010FC135
:1010C000123041F481E090910501911180E080930C
:1010D000050105C1133041F481E09091080191119F
:1010E00080E080930801FBC0143041F481E09091CE
:1010F0000401911180E080930401F1C0153041F4A6
:1011000081E090914801911180E080934801E7C00F
:10111000193131F41092520110924A0184E10DCB41
:101120001C3009F0DCC088E00E940D200E94D40A27
:10113000D6C084E6F812D3C0103108F0CBC00E94AC
:101140008816D0904E0181110CC0A4E0DA9EC00137
:101150001124FC01E054F94F7F01212F47E064E0A6
:101160000DC0813091F4B4E0DB9EC0011124FC017C
:10117000E054F94F7F01212F43E060E081810E941C
:101180003117D70111968C931CC08230D1F4E090B6
:10119000AC06B0E9EB9E70011124C701E9E0DE9EC8
:1011A000800D911D11249C01245D3D4F7901212F5B
:1011B00043E060E0D70118968C910E943117F70147
:1011C00080876D2D8091AC060E94A117E090AC063F
:1011D000AD2CB12CF0E9EF9E70011124C70129E07C
:1011E000D29E800D911D1124AC01445D5D4F7A01AA
:1011F000DA0118968C910E94981677247394780ED1
:10120000C12CD12C912CC501880F991F880F991FD3
:10121000FC01EF53F94F2F01A72CB12CC71408F094
:1012200059C0D2018C9047E064E0882D0E94581686
:10123000890D99249394980E43E060E0882D0E94D4
:101240005816F601E80FF11DCF010196B5010E9475
:10125000582B282F9714D0F19718E1E0F0E0883050
:1012600010F4E0E0F0E08770992741E050E002C020
:10127000440F551F8A95E2F7CA01EE0DFF1D30811C
:10128000340F3083283018F4E2E0F0E002C0E3E0ED
:10129000F0E0EE0DFF1D3081380F3083283018F05C
:1012A000E5E0F0E002C0E4E0F0E0EE0DFF1D30818B
:1012B000380F3083283018F4E6E0F0E002C0E7E0B1
:1012C000F0E0EE0DFF1D9081890F80835FEFC51A5E
:1012D000D50AA4CF043018F4802F0E945A170E9418
:1012E000431D882309F4F5C8812F0E94B91BF1C85A
:1012F00081E090E00C2C01C0880F0A94EAF7F81AFC
:10130000FACD81E00E9432131DC9103108F0CDC919
:1013100010934E018AE5C7C9103108F0C6C9109371
:101320004E0186E4C0C9103108F0BFC910934E01C8
:1013300082E3B9C9802F0E945A176BCA229A809102
:10134000B0008F778093B0008FB7F89423982B98D4
:101350008FBF80E027E030E061E070E09091800096
:101360009F7D909380002A989091B0009F779093F2
:10137000B0001B990AC0909180009F7D90938000DF
:101380002A9A2150310950F70895AB01022E01C06D
:10139000440F0A94EAF7842BEECF8230B8F0982FEE
:1013A000977F9230A9F09330A9F09CEF980F92307C
:1013B00098F0863099F08C3089F0873089F08E3043
:1013C00079F08D7F8D3071F482E0089580E8089582
:1013D00080E4089580E2089580E1089588E008950A
:1013E00084E0089581E008959FEF980F923078F09F
:1013F000853069F0893059F095EF980F923038F0C8
:1014000092EF980F81E0923018F080E0089581E02B
:101410000895CF93DF934398CBE5D1E0488160E115
:101420008FE00E948C00498160E18FE00E948C0077
:10143000439ADF91CF910895853009F449C098EF20
:10144000980F953008F463C08F3009F462C093EFB1
:10145000980F923070F090EF980F953050F09BEE0F
:10146000980F973010F0E0E001C0E3E0882389F1A5
:1014700001C0E2E08E3069F1873159F1833059F1D2
:10148000883049F18D3039F1863129F1823029F1E6
:101490008B3019F1803109F18531F9F08130F9F0A3
:1014A0008A30E9F08331D9F08831C9F08430C9F04D
:1014B0008930B9F08231A9F08B3199F0873099F0F9
:1014C0008C3089F0813179F08A3169F082E00CC08A
:1014D000E1E080E809C080E407C080E205C080E167
:1014E00003C088E001C084E0F0E0EC5BFE4F908137
:1014F000282F2923662329F021110DC0890F80830D
:101500000895222319F0981B908308950895E1E02F
:10151000B1CFE1E0DBCF08950F931F93CF93DF931B
:10152000182FD62F042F0E94F409C82F812F0E9454
:10153000CD09909154012C2F30E091110AC0909167
:101540000501992331F0011104C0F901E35AFE4F5E
:1015500003C0F901E55AFE4F9081282F2923DD238E
:1015600029F0211107C0890F808304C0222311F0C4
:10157000981B9083DF91CF911F910F910895CF9386
:10158000DF93D82F0E94F409C82F8D2F0E94CD0918
:10159000EC2FF0E0E55AFE4F9081982381E009F4AA
:1015A00080E0DF91CF910895E4E4F1E013821282AC
:1015B000118210820895E82FF0E0F595E795F595F2
:1015C000E795E75FFE4F208130E0837090E0880F61
:1015D000991FAC014F5F5F4F61E070E0FB0102C0FB
:1015E000EE0FFF1F4A95E2F7AF014223532302C0DB
:1015F000660F771F8A95E2F726233723232B21F4E2
:10160000452B31F08EE10895452B21F088E20895B5
:101610008AE0089584E10895CF93DF93C82FD62FF1
:101620000E94DB0A8D1709F452C0EC2FF0E0F5950B
:10163000E795F595E795E75FFE4F2081C3708C2F06
:1016400090E0880F991F422F50E0082E02C0559558
:1016500047950A94E2F740FF07C031E0082E01C029
:10166000330F0A94EAF701C030E0422F431BDA300F
:1016700019F031E0DE3109F430E0232F082E01C0EB
:10168000220F0A94EAF7240FAC014F5F5F4F822FBD
:1016900090E0042E02C0959587950A94E2F780FFAA
:1016A00007C081E0042E01C0880F0A94EAF701C048
:1016B00080E0281BDA3019F091E0D43109F490E091
:1016C000892F01C0880F4A95EAF7280F2083DF9100
:1016D000CF910895CF93C0E161E08C2F0E941C0A46
:1016E000CF5FC831C9F780915201877090E061E007
:1016F00004970CF060E080915F01805F0E941C0AFB
:10170000809152018F7090E061E008970CF060E0EA
:101710008091AC06805F0E941C0A8091B30680FF16
:1017200020C0C0E060E08C2F0E941C0ACF5FC03157
:10173000C9F7C0E06C2F8EE60E943B132091520146
:101740002F7130E061E0203131050CF060E00E9443
:101750001C0ACF5FCA3071F761E089E1CF910C9428
:101760001C0ACF9108951F93CF93DF93D0E011E02F
:10177000CD2FC170C1276C2F88E10E941C0A6C2FED
:1017800089E10E941C0A6C2F8AE10E941C0A6C2FBE
:101790008BE10E941C0A0E94282064E670E080E031
:1017A00090E00E944E1FDF5FD53011F7DF91CF919F
:1017B0001F9108956F927F928F929F92AF92BF92E6
:1017C000CF92DF92EF92FF920F931F93CF93DF930D
:1017D000109253018091150181110FC00E94D40A0B
:1017E000C0E06C2F88E00E943B1361E00E941C0A5D
:1017F000CF5FCA30B1F70E94282083E090E00E94BA
:10180000521E8093060184E090E00E94521E809355
:10181000510185E090E00E94521E8093050186E010
:1018200090E00E94521E8093080187E090E00E94A1
:10183000521E8093040188E090E00E94521E809323
:10184000480120915001C4ECD4E02C9FC0012D9F91
:10185000900D11240A960E94521E80931601209129
:1018600050012C9FC0012D9F900D11240B960E94BA
:10187000521E80935401209150012C9FC0012D9F36
:10188000900D11240C960E94521E809359012091B4
:1018900050012C9FC0012D9F900D11240D960E9488
:1018A000521E8093490100EC16E0C0E0D0E074ECD9
:1018B000E72E74E0F72E209150012E9DC0012F9D40
:1018C000900D11240E968C0F9D1F0E94521EF80140
:1018D0008083209150012E9DC0012F9D900D1124D9
:1018E0004E968C0F9D1F0E94521EF80181832091FD
:1018F00050012E9DC0012F9D900D11248E968C0FAE
:101900009D1F0E94521EF801838321960C5F1F4F7A
:10191000C031D10581F6812C912C00E910E034EC26
:10192000E32E34E0F32E49E0C42ED12C59E0752E7D
:1019300060E9662EC401B8010E94442BEB015C01F2
:10194000209150012E9DC0012F9D900D1124CE9607
:10195000880D991D0E94521E482FF401EF70FF2739
:10196000C40124E0969587952A95E1F7B6010E9477
:10197000442B7E9E90017F9E300D11246C9EB00101
:101980006D9E700D1124260F371F245D3D4FF90108
:10199000E80FF91F4083AB2859F48091150181119C
:1019A00007C061E08C2F805F0E941C0A0E942820E3
:1019B000FFEF8F1A9F0A80E8881684E0980609F0E6
:1019C000B9CF80911501811102C00E94B30B109212
:1019D0005F011092AC0610924E0184E00E94321317
:1019E00080E00E94641784E00E9487170E944518D7
:1019F00010924D010E94D21A80915401882321F047
:101A000081E090910801911180E080935301109240
:101A10001501DF91CF911F910F91FF90EF90DF9013
:101A2000CF90BF90AF909F908F907F906F900895D0
:101A30008F929F92AF92BF92CF92DF92EF92FF92DE
:101A40000F931F93CF93DF93182F0E94D40AC0E007
:101A50006C2F8EE00E943B1361E00E941C0ACF5F56
:101A6000CA30B1F71830B8F440910601242F30E0A5
:101A7000012E02C0359527950A94E2F720FD22C079
:101A800081E090E0012E01C0880F0A94EAF7840FEC
:101A90008093060117C040915101512F5770242F98
:101AA00030E0052E02C0359527950A94E2F720FD17
:101AB00009C081E090E001C0880F5A95EAF7840FD1
:101AC000809351016091500182E090E00E94881F54
:101AD0006091060183E090E00E94881F60915101AF
:101AE00084E090E00E94881F6091050185E090E00D
:101AF0000E94881F6091080186E090E00E94881F84
:101B00006091040187E090E00E94881F6091480185
:101B100088E090E00E94881F0E94282084EC94E0D6
:101B2000189FE001199FD00D112460911601CE017C
:101B30000A960E94881F60915401CE010B960E9464
:101B4000881F60915901CE010C960E94881F6091F8
:101B50004901CE010D960E94881F00EC16E07E011F
:101B60008EE0E80EF11C70E0C72E77E0D72EF8016A
:101B70008081682F6E7F81FD02C090E001C092E0FD
:101B8000691B82FD02C090E001C094E0691B83FDE7
:101B900002C080E001C088E0681BC7010E94881F66
:101BA000F8016181C70140960E94881FF801638196
:101BB000C70180960E94881F0C5F1F4FFFEFEF1A2E
:101BC000FF0AC016D10699F600E010E030E9C32EF6
:101BD000D12C49E0E42EF12C59E0852E60E9962EB7
:101BE000EE96C801B6010E94442B5B01F801EF702C
:101BF000FF27C80124E0969587952A95E1F7B7015C
:101C00000E94442B8E9E90018F9E300D11249A9C31
:101C1000A0019B9C500D1124240F351F245D3D4FC6
:101C2000F901E80FF91F6081CE01800F911F0E941A
:101C3000881F61E080E18A0D0E941C0A0E94282012
:101C40000F5F1F4F003884E0180759F6DF91CF91DE
:101C50001F910F91FF90EF90DF90CF90BF90AF90CA
:101C60009F908F900C94B30BAF92BF92CF92DF9264
:101C7000EF92FF920F931F93CF93DF931092530134
:101C80000E94D40AC0E161E08C2F0E941C0ACF5F41
:101C9000CC31C9F70E9428206FE280E090E00E94DA
:101CA000881F64E081E090E00E94881F60E082E08D
:101CB00090E00E94881F61E083E090E00E94881F0E
:101CC00060E084E090E00E94881F60E085E090E0A2
:101CD0000E94881F61E086E090E00E94881F61E01A
:101CE00087E090E00E94881F60E088E090E00E941A
:101CF000881FC0E0D0E0F12C39E0C32ED12C68E77A
:101D0000CE010A960E94881F61E0CE010B960E94C8
:101D1000881F61E0CE010C960E94881F61E0CE0111
:101D20000D960E94881F8E01025F1F4FE12C60E01C
:101D3000C8010E94881F60E0C80140960E94881F69
:101D40002E2D43E060E080E00E943117682FC8012B
:101D500080960E94881FE3940F5F1F4F80E1E81276
:101D6000E6CF00E110E05E018EE2A80EB11CC801D2
:101D700024E0969587952A95E1F7B6010E94442BB9
:101D8000892B11F060E001C06FE0C501800F911F49
:101D90000E94881F0F5F1F4F003984E0180739F732
:101DA00061E08F2D0E941C0A0E942820F394CC53DE
:101DB000DB4F80E1F812A3CF61E88EE390E00E9450
:101DC000881F61E08EE490E00E94881F60E18FE34D
:101DD00090E00E94881F60E18FE490E00E94881FDD
:101DE00065E580E490E00E94881F65E580E590E06D
:101DF0000E94881F60E081E490E00E94881F60E8F4
:101E000081E590E00E94881F61E18EEC90E00E94E5
:101E1000881F61E18EED90E00E94881F60E18FECE9
:101E200090E00E94881F60E18FED90E00E94881F83
:101E300061E180ED90E00E94881F61E180EE90E01A
:101E40000E94881F64E481ED90E00E94881F64E492
:101E500081EE90E00E94881F61E48EE591E00E948F
:101E6000881F60E08EE691E00E94881F60E18FE5A8
:101E700091E00E94881F60E18FE691E00E94881F38
:101E80006DED80E691E00E94881F6DEF80E791E0A4
:101E90000E94881F65ED81E691E00E94881F6AE537
:101EA00081E791E00E94881F69E98EEE91E00E942F
:101EB000881F69E98EEF91E00E94881F69E48FEE28
:101EC00091E00E94881F64E28FEF91E00E94881FDA
:101ED0006FEF80EF91E00E94881F6FEF80E092E04B
:101EE0000E94881F61E481EF91E00E94881F60E2F8
:101EF00081E092E00E94881F6FE48EE692E00E94EB
:101F0000881F6FE48FE692E00E94881F6FE480E7ED
:101F100092E00E94881F6FE481E792E00E94881F90
:101F200065E88EE792E00E94881F62E18EE892E009
:101F30000E94881F60E98FE792E00E94881F6AE98B
:101F40008FE892E00E94881F6FE780E892E00E948D
:101F5000881F6FED80E992E00E94881F60E881E8A9
:101F600092E00E94881F60E281E992E00E94881F4F
:101F700061E48EE093E00E94881F61E48EE193E0CB
:101F80000E94881F61E18FE093E00E94881F61E159
:101F90008FE193E00E94881F6DED80E193E00E9445
:101FA000881F6DED80E293E00E94881F61EA81E165
:101FB00093E00E94881F63E481E293E00E94881FFF
:101FC00010924E0110925001DF91CF911F910F910D
:101FD000FF90EF90DF90CF90BF90AF900C94DA0B12
:101FE000462F62E00C94162024E0829FC001112449
:101FF000FC01E054F94F43E060E083810C945816F3
:10200000CF9380914C0181111DC0C0E08C2F0E94A4
:10201000BF0A882371F08C2F0E94F40F8C1749F0AF
:1020200094E0899FF0011124E054F94F908190FFD2
:1020300004C0CF5FC03151F705C041E061E00E94AC
:102040008C0AF7CFCF91089524E0829FC00111241C
:10205000FC01E054F94F47E064E083810C9458168A
:102060000895CF92DF92EF92FF920F931F93CF9339
:10207000DF936C017A018B01C0E0D0E0CE15DF0563
:1020800081F0D8016D918D01D601ED91FC91019007
:10209000F081E02DC6010995892B11F02196EECF34
:1020A0007E01C701DF91CF911F910F91FF90EF90BB
:1020B000DF90CF90089585ED8093BC008091BC00A7
:1020C00084FDFCCF10920802089540918201262FD2
:1020D00030E0240F311D21323105DCF4209108025B
:1020E0002430C9F4FC0180E090E0861758F4309168
:1020F00082012191DC01AE59BE4FA30FB11D2C937B
:102100000196F3CF80918201680F6093820180E095
:10211000089581E0089582E008950895089508954E
:10212000E091C1018091C001E81730F4F0E0EE5376
:10213000FE4F808190E008958FEF9FEF089590917A
:10214000C1018091C001981750F4E92FF0E0EE53DF
:10215000FE4F208130E09F5F9093C10102C02FEFBE
:102160003FEFC90108958091C00190E02091C10125
:10217000821B91090895CF92DF92EF92FF920F9305
:102180001F93CF93DF937C01CB018A012091090239
:10219000222389F0EB016B01C40ED51ECC15DD05A1
:1021A00069F06991D701ED91FC910190F081E02DEA
:1021B000C7010995F3CF642F0E946510C801DF9114
:1021C000CF911F910F91FF90EF90DF90CF900895E6
:1021D000CF93DF931F92CDB7DEB7698320910902B9
:1021E0002223D1F020912B02203240F021E030E078
:1021F000FC013383228380E090E015C080910A02C5
:10220000E82FF0E0E55FFD4F998190838F5F809329
:102210000A0280932B0205C061E0CE0101960E9464
:10222000651081E090E00F90DF91CF9108950895BF
:1022300080E090E008950E94722B1F920F920FB6DB
:102240000F9211242F933F934F935F936F937F933C
:102250008F939F93AF93BF93EF93FF93E0911301FD
:10226000F09114010995FF91EF91BF91AF919F916A
:102270008F917F916F915F914F913F912F910F902F
:102280000FBE0F901F9018951F920F920FB60F92CE
:1022900011242F933F934F935F936F937F938F936B
:1022A0009F93AF93BF93EF93FF93E0911101F09150
:1022B00012010995FF91EF91BF91AF919F918F917D
:1022C0007F916F915F914F913F912F910F900FBE32
:1022D0000F901F9018951F920F920FB60F92112416
:1022E0002F933F934F935F936F937F938F939F931E
:1022F000AF93BF93EF93FF93809134019091350199
:102300008093B2008091370190913801A0913901FA
:10231000B0913A010196A11DB11D809337019093B0
:102320003801A0933901B0933A018091370190911F
:102330003801A0913901B0913A014091300150919A
:102340003101609132017091330184179507A6071E
:10235000B70710F18091360181111EC081E0809392
:1023600036018091370190913801A0913901B091E7
:102370003A01841B950BA60BB70B80933701909302
:102380003801A0933901B0933A01E0912E01F09108
:102390002F01099510923601FF91EF91BF91AF91F6
:1023A0009F918F917F916F915F914F913F912F916D
:1023B0000F900FBE0F901F9018951F920F920FB69F
:1023C0000F9211242F933F934F935F936F937F93BB
:1023D0008F939F93AF93BF93EF93FF938091B90037
:1023E000887F803609F49CC068F5883209F45BC0A8
:1023F00090F4803109F454C038F4882309F4F6C00D
:10240000883009F44DC0F6C0883109F44CC08032E0
:1024100009F45DC0EFC0803409F468C048F480332B
:1024200009F455C0883309F0E5C080930602D8C08E
:10243000803509F44FC0883509F45DC0883409F04F
:10244000D9C0D6C0883909F4C7C0A8F4883709F4C0
:1024500067C038F4883609F463C0803709F460C077
:10246000C9C0883809F4B8C0803909F45FC0803821
:1024700009F0C0C05BC0803B09F486C038F4803AE4
:1024800009F466C0883A09F47FC0B4C0803C09F4FE
:10249000A7C0883C09F4A4C0883B09F48AC0AAC03C
:1024A0008091E30110C09091050280910402981779
:1024B00070F5E091050281E08E0F80930502F0E057
:1024C000EC51FE4F80818093BB0085EC86C08093E9
:1024D00006028EC0E091050281E08E0F8093050216
:1024E0008091BB00F0E0EC51FE4F8083909105029B
:1024F000809104026EC0E091050281E08E0F80930E
:1025000005028091BB00F0E0EC51FE4F808380918A
:10251000070281116DC081E08093E20184EA61C00D
:1025200083E0809308021092A401CFCF8091A40190
:10253000803208F051C0E091A40181E08E0F8093B9
:10254000A4018091BB00F0E0EC57FE4F8083BDCF2B
:1025500085EC8093BC00109208028091A401803227
:1025600030F4E091A401F0E0EC57FE4F108260914E
:10257000A40170E0E0913B01F0913C0184E891E01E
:1025800009951092A40136C084E08093080210924D
:10259000830110928201E0913D01F0913E01099585
:1025A00080918201811105C081E0809382011092A7
:1025B0006201E091830181E08E0F80938301F0E05E
:1025C000EE59FE4F80818093BB00909183018091F2
:1025D0008201981708F479CF85E88093BC000AC07F
:1025E00085EC8093BC001092080204C01092060291
:1025F0000E945B10FF91EF91BF91AF919F918F91DE
:102600007F916F915F914F913F912F910F900FBEEE
:102610000F901F9018951F920F920FB60F921124D2
:102620002F933F934F935F936F937F938F939F93DA
:10263000AF93BF93EF93FF93E0916001F09161013D
:102640000995FF91EF91BF91AF919F918F917F91EC
:102650006F915F914F913F912F910F900FBE0F900F
:102660001F9018959091B306292F282319F0981BD5
:102670009093B30608958035F1F08A3509F438C196
:10268000843609F46AC18E36A1F4662309F4F0C1D8
:10269000613009F4EFC1623009F4EEC1633009F42E
:1026A000EDC1643009F4ECC1653009F4EBC189E097
:1026B000089581111DC0662309F4E6C1613009F453
:1026C000E5C1623009F4E4C1633009F4E3C1643068
:1026D00009F4E2C1653009F4E1C1663009F4E0C1F2
:1026E000673009F4DFC1683009F0DEC18DE008957C
:1026F0008230E1F4662309F4D9C1613009F4D8C10C
:10270000623009F4D7C1633009F4D6C1643009F4EA
:10271000D5C1653009F4D4C1663009F4D3C167303E
:1027200009F4D2C1683009F0D1C108958330E9F4C9
:10273000662309F4CDC1613009F4CCC1623009F4DB
:10274000CBC1633009F4CAC1643009F4C9C1653032
:1027500009F4C8C1663009F4C7C1673009F4C6C1BD
:10276000683009F0C5C189E008958D30B9F4662359
:1027700009F4C0C1613009F4BFC1623009F4BEC1BF
:10278000633009F4BDC1643009F4BCC1653009F49B
:10279000BBC1663009F0BAC18FE008958930B9F441
:1027A000662309F4B5C1613009F4B4C1623009F49B
:1027B000B3C1633009F4B2C1643009F4B1C165300A
:1027C00009F4B0C1663009F4AFC184E008958B30DC
:1027D000B9F4662309F4AAC1613009F4A9C16230D1
:1027E00009F4A8C1633009F4A7C1643009F4A6C193
:1027F000653009F4A5C1663009F0A4C187E00895E9
:102800008A30E9F4662309F49FC1613009F49EC15E
:10281000623009F49DC1633009F49CC1643009F44D
:102820009BC1653009F49AC1663009F499C16730DB
:1028300009F498C1683009F497C18DE00895843097
:10284000E9F4662309F492C1613009F491C1623060
:1028500009F490C1633009F48FC1643009F48EC16A
:10286000653009F48DC1663009F48CC1673009F414
:102870008BC1683009F08AC18BE008958530D1F4AE
:10288000662309F485C1613009F484C1623009F41A
:1028900083C1633009F482C1643009F481C16530B9
:1028A00009F480C1663009F47FC1673009F07EC148
:1028B00082E008958730D1F4662309F479C161304C
:1028C00009F478C1623009F477C1633009F476C144
:1028D000643009F475C1653009F474C1663009F4D7
:1028E00073C1673009F072C188E008958830A1F49F
:1028F000662309F46DC1613009F46CC1623009F4DA
:102900006BC1633009F46AC1643009F469C1653090
:1029100009F068C18EE008958C30E9F4662309F46B
:1029200063C1613009F462C1623009F461C163308E
:1029300009F460C1643009F45FC1653009F45EC117
:10294000663009F45DC1673009F45CC1683009F094
:102950005BC18BE008958130E9F4662309F456C128
:10296000613009F455C1623009F454C1633009F48F
:1029700053C1643009F452C1653009F451C1663065
:1029800009F450C1673009F44FC1683009F04EC1F5
:102990008EE008958E30E9F4662309F449C1613070
:1029A00009F448C1623009F447C1633009F446C1F3
:1029B000643009F445C1653009F444C1663009F456
:1029C00043C1673009F442C1683009F041C187E072
:1029D00008958F30B9F4662309F43CC1613009F4DD
:1029E0003BC1623009F43AC1633009F439C1643043
:1029F00009F438C1653009F437C1663009F036C1D1
:102A000087E008958630B9F4662309F431C1613056
:102A100009F430C1623009F42FC1633009F42EC1CA
:102A2000643009F42DC1653009F42CC1663009F019
:102A30002BC182E00895662309F428C1613009F4AE
:102A400027C1623009F426C1633009F425C164301E
:102A500009F424C1653009F423C1663009F422C1A8
:102A6000673009F421C1683009F420C18EE008956F
:102A700087E0089583E0089582E0089588E008954E
:102A80008CE008958DE0089583E0089582E0089534
:102A900081E0089584E0089585E008958AE008952E
:102AA0008BE008958EE008958CE0089580E008950D
:102AB00081E0089585E0089589E008958DE0089506
:102AC0008EE008958AE0089586E0089583E00895F1
:102AD0008FE008958AE0089587E0089582E00895E0
:102AE00081E0089580E0089584E0089588E00895E5
:102AF0008CE0089585E0089586E008958AE00895C1
:102B000089E0089580E0089583E008958CE00895B9
:102B100081E0089582E0089587E008958BE00895AC
:102B20008EE008958DE0089588E0089580E008958E
:102B300084E0089589E008958DE008958EE0089579
:102B40008AE0089583E008958CE0089588E0089570
:102B500084E0089580E0089581E0089582E008957A
:102B600087E008958BE008958EE008958CE0089545
:102B700088E0089584E0089580E0089585E0089550
:102B800086E0089583E0089587E008958FE0089532
:102B90008AE0089589E008958CE0089588E008951A
:102BA00084E0089580E0089581E0089583E0089529
:102BB00089E008958AE0089587E0089582E0089505
:102BC00081E0089580E0089584E008958CE0089500
:102BD00080E0089584E0089588E008958CE00895E9
:102BE0008DE008958FE008958CE0089588E00895C1
:102BF00089E0089584E0089581E0089582E00895D1
:102C000087E008958AE008958FE0089583E00895AD
:102C100082E0089581E0089580E0089584E00895B9
:102C200088E008958CE008958DE008958FE0089580
:102C300080E0089584E0089588E008958CE0089588
:102C400089E008958AE008958FE008958BE0089563
:102C500083E0089580E0089584E0089588E0089571
:102C60008DE008958EE008958BE0089583E0089547
:102C70008FE008958EE008958DE0089588E008952E
:102C800084E0089581E0089583E008958DE008953B
:102C900089E0089585E0089584E0089581E008952D
:102CA00082E0089587E0089586E008958AE0089517
:102CB000CF93DF93E0E090E070E050E0461B570BCD
:102CC000A82FB0E081E02E2F30E042175307B4F078
:102CD000260F371FED01022E02C0D595C7950A9425
:102CE000E2F7C0FF07C0F82F01C0FF0F2A95EAF7EF
:102CF0002F2F01C020E0920FEF5FE5CF892F90E0EA
:102D000002C0959587956A95E2F7DF91CF91089576
:102D100047E064E0809143010C94581643E062E080
:102D2000809143010C94581645E064E00C945816C9
:102D300043E060E00C9458168F929F92AF92BF923E
:102D4000CF92DF92EF92FF920F931F93CF93DF9377
:102D5000D82E80915F019091AC06981729F0909140
:102D6000480191118093AC069D2D9F7079F490914C
:102D7000AC06891759F08093AC06E0ECF6E01282BD
:102D8000349687E0E030F807D1F7D12CC0ECD6E0DC
:102D900000E010E089E0B82E90E9A92EED2CF12C8E
:102DA000C02ED11003C0888185FD59C08091AC062A
:102DB000B09EF001B19EF00D1124A89EE00DF11D12
:102DC0001124E45DFD4F9084892D0E949416882E75
:102DD000892D0E949816EA81F0E0482D50E04F5F5F
:102DE0005F4F282F30E02F5F3F4F429FB001439F3E
:102DF000700D529F700D1124CF010E94582B8A83B1
:102E000047E066E0892D0E945816682F70E06F5FDA
:102E10007F4FC7010E94582B892B39F4888187FD89
:102E200004C08C2D0E946A1B01C080E040E0682F26
:102E30008C2D0E948C0A0F5F1F4F249600311105C4
:102E400009F0AECFDF91CF911F910F91FF90EF90DE
:102E5000DF90CF90BF90AF909F908F9008951A828F
:102E6000A5CFCF9330E070E050E0461B570BC1E098
:102E7000E32FF0E04E175F07B4F0E60FF71FA82F1F
:102E8000B0E00E2E02C0B595A7950A94E2F7A0FF18
:102E900006C09C2F01C0990FEA95EAF701C090E0A7
:102EA000891B3F5FE5CF01C0220F6A95EAF7820FC9
:102EB000CF910895282F47E064E0809143010E945C
:102EC0003117809343010895282F43E062E08091F9
:102ED00043010E9431178093430108950F931F937C
:102EE000CF9300EC16E0C0E060E08C2F0E94F00F62
:102EF000F801808182FF02C084508083CF5F0C5F25
:102F00001F4FC03189F7CF911F910F910895909174
:102F100007019817A9F010924F01809307010E94B2
:102F20006E1780E00E945A17E0ECF6E0808183FF84
:102F300002C088508083349687E0E030F807B1F70C
:102F4000089520E9829FC0011124FC0129E0629FBD
:102F5000E00DF11D1124E45DFD4F178216821582EC
:102F600014821382128211821082089594E0899F44
:102F7000F0011124E054F94F908190FF02C091506C
:102F80009083682F8091AC060C94A117DF92EF928A
:102F9000FF920F931F93CF93DF93E090AC06F12C39
:102FA000082F10E00E944F1AD82E89E0809FE00180
:102FB000819FD00D112420E92E9DC0012F9D900DE1
:102FC0001124C80FD91FC45DDD4F88850E94981653
:102FD000682FCD0DD11D288130E0000F111F000F8B
:102FE000111FF801E054F94F828190E070E06F5FAB
:102FF0007F4F0E94582B87709927A90102C05595D1
:1030000047958A95E2F7CA018170DF91CF911F91B0
:103010000F91FF90EF90DF9008950F931F93CF9340
:10302000DF93C82F062F0E94BF0A811116C010918E
:103030005B01D0915C0110925C0110925B0161E038
:10304000011101C060E040E08C2F0E948C0A0E94B8
:10305000090A10935B01D0935C01DF91CF911F911E
:103060000F910895E8EAF1E0178616861586148612
:103070001386128611861086178216821582148294
:103080001382128211821082089581E080934C0194
:103090001092B80110924B0180914D01823018F0CE
:1030A000E0ECF6E019C0809154018111F9CF8091D4
:1030B00008018823A9F310924D0110925E0110922D
:1030C0005D0110925C0110925B010E94090A8091DF
:1030D0001501882341F008951282349687E0E0308C
:1030E000F807D1F7E8CF80915401811107C0809192
:1030F0000501882319F080E00C949C1608958091B6
:10310000B30683FD3BC0809153018823B9F19091B0
:10311000B80181E089278093B80190915401911101
:1031200004C089B182FB882780F980934B018823F2
:1031300009F496C0992309F445C080914D0190E0AF
:103140003091AC0620915F01321342C060E470E020
:103150000E94582B80934D0132133DC08F7009F4AB
:1031600042C080914D018F730E949C160E943218BC
:103170000E9400100E94090A10924C018091550192
:1031800090915601A0915701B091580180933F0151
:1031900090934001A0934101B09342012FB7F8945E
:1031A0008091BC019091BD01A091BE01B091BF0181
:1031B0002FBF8093550190935601A0935701B09370
:1031C0005801089580910501882309F4B6CF13C0F2
:1031D00060E170E0BDCF90914801992309F4BECF22
:1031E0002093AC06BBCF8091AC06281709F4B9CF69
:1031F00010924D01B6CF80915D0180935B0180916B
:103200005E0180935C010E9432180E9400100E94AF
:10321000090A80914D0190E03091AC0620915F0148
:10322000321303C060E470E002C060E170E00E940D
:10323000582B80934D01321729F09091480191113C
:103240002093AC068F7029F48091AC06281310925D
:103250004D0180914D018F5F8F730E94FC1D8CCFBB
:1032600080914C0181118ACF911104C08091050198
:1032700081110CC080914D018F730E94FC1D0E9432
:1032800032180E9400100E94090A14C080915D014A
:1032900080935B0180915E0180935C010E943218F3
:1032A0000E9400100E94090A80914D018F5F8F7368
:1032B0000E949C1680914D018F5F80934D015ECFDF
:1032C000CF92DF92EF92FF920F931F93CF93DF93F2
:1032D00080914C018111AFC00E942410182F81E011
:1032E0000E942410C82FD0E0C10FD11D82E00E949F
:1032F0002410C80FD11D83E00E942410C80FD11DD7
:1033000084E00E942410C80FD11D85E00E94241083
:10331000C80FD11D86E00E942410C80FD11D87E080
:103320000E942410C80FD11D88E00E942410C80FED
:10333000D11D89E00E942410C80FD11D8AE00E948F
:103340002410C80FD11D8BE00E942410C80FD11D7E
:103350008CE00E942410C80FD11D8DE00E94241023
:10336000C80FD11D8EE00E942410C80FD11D8FE020
:103370000E942410C80FD11DCD2B09F45CC0D09041
:103380005B01C0905C0188EAE82E81E0F82EC0E085
:103390008C2F0E942410482F282F30E0F7018081C5
:1033A00090E0B901660F771F660F771F0E94582BB8
:1033B0008C018083442359F0220F331F99278217F1
:1033C00093072CF041E060E08C2F0E948C0A0F5F85
:1033D000F70101937F018C2F0E94BF0A8823F1F02F
:1033E0008C2F0E94F40FD82F8C17C1F084E0D89F47
:1033F000F0011124E054F94F808180FD0FC08C2F23
:103400000E942410811115C08D2F0E94241061E0AC
:1034100081110FC041E08D2F0E948C0ACF5FC03117
:1034200009F0B6CF0E94090AD0925B01C0925C01FC
:1034300002C060E0EFCFDF91CF911F910F91FF901D
:10344000EF90DF90CF9008950F931F93CF93C82FE5
:1034500084E0C89F800111240054194F20E047E008
:1034600064E0F80183810E9431172C2F43E060E073
:103470000E943117F801838360E48C2F0E94FA1FA9
:1034800060E88C2F0E94FA1F60E28C2F0E94FA1FC6
:1034900060E18C2FCF911F910F910C94FA1F1F9315
:1034A000CF93DF9390E0FC01EE0FFF1FEE0FFF1FA5
:1034B000E054F94FC281D0E02091AC0639E0389F4A
:1034C000F001399FF00D112480E9289FE00DF11DD6
:1034D0001124E45DFD4F1085812F0E949816682FFE
:1034E00070E06F5F7F4FCE010E94582B660F771FF1
:1034F00021E030E0089714F420E030E0EB01C20F47
:10350000D31F812F0E949416682F70E06F5F7F4F4A
:10351000660F771FCE010E94582BDF91CF911F912C
:103520000895EF92FF920F931F93CF93DF93E82EAE
:10353000C091AC06082F10E080E9C89FE00111247B
:1035400089E0E89EC00DD11D1124C45DDD4F888542
:103550000E949816F82E8E2D0E944F1AC80FD11D6A
:10356000000F111F000F111FF801E054F94F828165
:1035700090E06F2D70E06F5F7F4F0E94582B9C0191
:103580002770332781E090E001C0880F2A95EAF781
:103590009881890F8883DF91CF911F910F91FF90C0
:1035A000EF90089580915401882309F472C0E8983F
:1035B00080E390E19093120180931101E998909338
:1035C0001401809313011092530120911601822F50
:1035D00090E0A0E0B0E09C01AD0128523109410922
:1035E000510960E57FEC8EEF9FEF0E94282B28ECBD
:1035F00030E040E050E00E94A129BA01A901485BF7
:1036000054496E4F7F4F80E180938100109280007B
:10361000E3E0440F551F661F771FEA95D1F7411568
:10362000510588E06807710568F482E08093BB016A
:10363000DB01CA0133E0B695A795979587953A9532
:10364000D1F70CC083E08093BB01DB01CA0126E007
:10365000B695A795979587952A95D1F79093BA0136
:103660008093B9018091B9019091BA01909387003C
:10367000809386008091BB018061809381008FE7F9
:1036800098E1909361018093600181E080936F00E5
:103690001FC010926F0081E0809353018FE798E183
:1036A0009093120180931101809169008C7F816059
:1036B00080936900E89A85E498E1909314018093DF
:1036C000130180916900837F846080936900E99A87
:1036D0000C9445180F931F93CF93C82F8091A60188
:1036E0000C2F10E0882391F0F801EE0FFF1FEE0F72
:1036F000FF1FE054F94F808181FF08C08C2F0E948A
:10370000C617811103C08C2F0E94911A8C2F0E9422
:10371000C617382F000F111F000F111FF801E054BA
:10372000F94F908196FF02C031110EC0F801E054AC
:10373000F94F908192FF02C021E0322790FD30E0E6
:1037400091FF12C031E010C00E944A2922E030E00F
:1037500040E050E00E94A12931E016161706180635
:10376000190624F330E0E2CF832FCF911F910F9100
:1037700008951F93CF93DF93C82F893119F481E007
:103780000E940D208091B30620EF2C0F80FF32C0E5
:103790002830E8F56091AC0620E9629FB001112461
:1037A00020E9C29FC001112420E030E0EB01C20FEC
:1037B000D31FD901A80FB91F40E050E0FE01E40F6C
:1037C000F51FE45DFD4F1081FA01EA0FFB1FE45D78
:1037D000F6401083475F5F4F4039510579F72F5FFF
:1037E0003F4F2930310511F781E0DF91CF911F91D3
:1037F0000C943213283058F44091AC0650E08C2FD2
:1038000090E040974817590711F020935F01DF912E
:10381000CF911F910895AF92BF92CF92DF92EF9216
:10382000FF920F931F93CF93DF9380914A018111F1
:103830000EC08091A701DF91CF911F910F91FF9052
:10384000EF90DF90CF90BF90AF900C94B61781307F
:10385000D9F4D091A70180E9D89F7001112400E02C
:1038600010E0C0E05FE0D52E6C2F8D2F0E94A117D5
:10387000F701E00FF11FE45DFD4FD086CF5F075FDA
:103880001F4FC03189F7E5C0823009F0C9C01091DF
:10389000A7010E94D40AC0E06C2F8DE00E943B1368
:1038A00061E00E941C0ACF5FCA30B1F71830B8F44B
:1038B00080910601282F30E0012E02C03595279512
:1038C0000A94E2F720FF22C021E030E0012E01C07F
:1038D000220F0A94EAF7821B8093060117C0809199
:1038E0005101912F9770282F30E0092E02C0359595
:1038F00027950A94E2F720FF09C021E030E001C0DB
:10390000220F9A95EAF7821B80935101609106017C
:1039100083E090E00E94881F6091510184E090E074
:103920000E94881F0E94282084EC94E0189FE001E8
:10393000199FD00D112468E7CE010A960E94881FB6
:1039400061E0CE010B960E94881F61E0CE010C96CB
:103950000E94881F61E0CE010D960E94881F7E01A3
:103960008EE0E80EF11C00E060E0C7010E94881FB5
:1039700060E0C70140960E94881F202F43E060E06E
:1039800080E00E943117682FC70180960E94881F2F
:103990000F5F8FEFE81AF80A003131F7E12CF12CB4
:1039A00039E0C32ED12CEE9640E9A42EB12CC701EC
:1039B000409624E0969587952A95E1F7B6010E94F6
:1039C000442B892B11F060E001C06FE0CE018E0D19
:1039D0009F1D0E94881FC701B5010E94442B862F9E
:1039E00061E0805F0E941C0A0E9428208FEFE81A85
:1039F000F80A80E8E81684E0F806C9F60E94B30BDE
:103A000080915001181325C0DF91CF911F910F9124
:103A1000FF90EF90DF90CF90BF90AF900C94DA0BB7
:103A2000833071F48091A701DF91CF911F910F91A5
:103A3000FF90EF90DF90CF90BF90AF900C94241A3E
:103A4000843039F4C0E08C2F0E94241ACF5FC0313B
:103A5000D1F7DF91CF911F910F91FF90EF90DF9001
:103A6000CF90BF90AF9008958093A50160934A01D5
:103A70004093A70180910401811102C00C940B1C9A
:103A800088E70C94871790910701992349F08CEFF0
:103A9000890F833028F081E0973019F080E0089595
:103AA00081E00895282F30912B02313208F04AC06E
:103AB000809108028111FCCF9091B20642E04093C0
:103AC0000802209307022FEF2093060210920502AE
:103AD00030930402EBE0F2E0A4EEB1E020E0321714
:103AE00021F041914D932F5FFACF1092E301209185
:103AF000E301990F922B9093E3019091E2019130B1
:103B000061F41092E2019091E3019093BB009091D7
:103B1000BC0093FDF8CF95EC01C095EE9093BC00EE
:103B2000909108029230E1F3909106029F3F79F064
:103B300080910602803241F080910602803331F09C
:103B400084E005C081E003C082E001C083E0109200
:103B50000A0210922B02109209020895833081F01C
:103B600028F4813099F08230A1F008958730A9F0CF
:103B70008830B9F08430D1F4809180008F7D03C00B
:103B8000809180008F7780938000089584B58F772F
:103B900002C084B58F7D84BD08958091B0008F7779
:103BA00003C08091B0008F7D8093B00008953FB72F
:103BB000F8948091AE069091AF06A091B006B091B6
:103BC000B10626B5A89B05C02F3F19F00196A11D8F
:103BD000B11D3FBFBA2FA92F982F8827820F911DA3
:103BE000A11DB11DBC01CD0142E0660F771F881FEA
:103BF000991F4A95D1F708959F92AF92BF92CF92A5
:103C0000DF92EF92FF920F931F93CF93DF9300EC1D
:103C100016E0C0E0D0E099E0D92E20E9C22EE82ECF
:103C2000F12C9C2E8091AC06DC9EF001DD9EF00D07
:103C30001124C89EE00DF11D1124E45DFD4F47E005
:103C400066E080850E945816682F70E06F5F7F4F96
:103C5000C7010E94582B5C01F8018081807921F016
:103C60008C2F0E946A1B01C080E040E0682F892DE4
:103C70000E948C0AAB2821F4F80182818F5F828335
:103C800021960C5F1F4FC031D10559F6DF91CF91BE
:103C90001F910F91FF90EF90DF90CF90BF90AF906A
:103CA0009F900895CF93DF93EC0181E08093090208
:103CB00080E58093B20610920A0210922B028D2F9B
:103CC00090E00E940820CE0199270E94082081E000
:103CD0000E94521D809108028111FCCF81E08093E7
:103CE0000802809307029FEF90930602109205024C
:103CF000109204028093E3018091E301806A809333
:103D0000E3018091E201813061F41092E20180913F
:103D1000E3018093BB008091BC0083FDF8CF85EC6C
:103D200001C085EE8093BC00809108028130E1F3F0
:103D300080910502811103C09091050201C091E0BC
:103D4000A4EEB1E0E2ECF1E080E0891721F02D91E2
:103D500021938F5FFACF1092C1018093C001882315
:103D600029F084EB96E00E949F1001C08FEFDF9155
:103D7000CF910895CF93DF93282F30E0F901E255DA
:103D8000FF4F8491F901E656FF4FD491F901EA57AC
:103D9000FF4FC491CC2391F081110E94AE1DEC2FF6
:103DA000F0E0EE0FFF1FE458FF4FA591B491EC91A6
:103DB000ED2381E090E021F480E002C080E090E01B
:103DC000DF91CF9108951F93CF93DF93282F30E099
:103DD000F901E255FF4F8491F901E656FF4FD49166
:103DE000F901EA57FF4FC491CC23C1F0162F81117E
:103DF0000E94AE1DEC2FF0E0EE0FFF1FEE58FF4FBC
:103E0000A591B4919FB7F894111104C08C91D095ED
:103E1000D82302C0EC91DE2BDC939FBFDF91CF91C2
:103E20001F910895CF93DF9390E0FC01E656FF4F7A
:103E30002491FC01EA57FF4F8491882361F190E0BF
:103E4000880F991FFC01E859FF4FC591D491FC01DF
:103E5000EE58FF4FA591B491611109C09FB7F89436
:103E60008881209582238883EC912E230BC06230B9
:103E700061F49FB7F8948881322F3095832388832B
:103E8000EC912E2B2C939FBF06C08FB7F894E8813E
:103E90002E2B28838FBFDF91CF9108958F929F9211
:103EA000AF92BF92CF92DF92EF92FF926B017C01B3
:103EB0000E94D71D4B015C01C114D104E104F1043F
:103EC000F1F00E94D71DDC01CB0188199909AA09DC
:103ED000BB09883E9340A105B10570F321E0C21AE9
:103EE000D108E108F10888EE880E83E0981EA11C35
:103EF000B11CC114D104E104F10419F7DDCFFF9026
:103F0000EF90DF90CF90BF90AF909F908F900895EB
:103F10001F93CF93DF93EC01162F81E0809309026A
:103F200080E58093B20610920A0210922B028D2F28
:103F300090E00E940820CE0199270E940820612F5E
:103F400084EB96E00E94E81081E00E94521D65E03B
:103F500070E080E090E0DF91CF911F910C944E1FB4
:103F60001F920F920FB60F9211242F933F938F93AE
:103F70009F93AF93BF938091BC019091BD01A0919D
:103F8000BE01B091BF013091AD0623E0230F2D3764
:103F900020F40196A11DB11D05C026E8230F02964D
:103FA000A11DB11D2093AD068093BC019093BD016E
:103FB000A093BE01B093BF018091AE069091AF0671
:103FC000A091B006B091B1060196A11DB11D8093DC
:103FD000AE069093AF06A093B006B093B106BF9122
:103FE000AF919F918F913F912F910F900FBE0F90A6
:103FF0001F90189524E0829FC0011124FC01E05419
:10400000F94F8081982F962311F0861B80830895A5
:10401000682F84EB96E00C94E8109091B306292F5A
:10402000282319F4890F8093B3060895442369F077
:1040300094E0899FF0011124E054F94F8081982F7A
:10404000962329F4680F608308950C94FA1F08954D
:10405000CF93DF935F98C4E4D1E0488168E086E0C5
:104060000E948C00498168E086E00E948C004A81B1
:1040700068E086E00E948C004B8168E086E00E9448
:104080008C005F9ADF91CF910895789484B5826017
:1040900084BD84B5816084BD85B5826085BD85B5EC
:1040A000816085BD80916E00816080936E0010926A
:1040B00081008091810082608093810080918100E5
:1040C0008160809381008091800081608093800076
:1040D0008091B10084608093B1008091B0008160D4
:1040E0008093B00080917A00846080937A00809100
:1040F0007A00826080937A0080917A008160809358
:104100007A0080917A00806880937A001092C100D2
:1041100080E480937C0080917A00806480937A00B0
:1041200080917A0086FDFCCF6091780080917900C3
:1041300070E0782B072E000C880B990B6115710528
:104140008105910511F00E94982983E090E0A0E09C
:10415000B0E08093300190933101A0933201B0938D
:10416000330180E699E190932F0180932E01809195
:1041700070008E7F809370008091B0008C7F809360
:10418000B0008091B100877F8093B1008091B6002C
:104190008F7D8093B600809170008D7F809370003A
:1041A0008091B10084608093B1008091B1008C7FD8
:1041B0008093B10086E090E09093350180933401C4
:1041C00010923701109238011092390110923A0181
:1041D0001092360180913401909135018093B200A4
:1041E000809170008160809370001092C1011092E4
:1041F000C00110920A0210922B021092080281E074
:10420000809307021092E20161E082E10E94E31EC6
:1042100061E083E10E94E31E8091B9008E7F80936C
:10422000B9008091B9008D7F8093B90088E48093B4
:10423000B80085E48093BC008DE890E190933E0146
:1042400080933D018EE890E190933C0180933B0187
:10425000579A209A84B58F7784BD8FB7F894569873
:104260005E988FBF219A229A8091B0008F778093B9
:10427000B0008FB7F89423982B988FBF3B9A3A9A47
:104280008FB7F894399841988FBF8FB7F8945298A8
:104290005A9A8FBF8091B0008F7D8093B0008FB706
:1042A000F89453985B9A8FBF0E9428200E94090AB5
:1042B0000E94CF0080E090E00E94521E8F3211F0E9
:1042C0000E94340E82E090E00E94521E80935001C2
:1042D0000E94DA0BC0E061E08C2F0E941C0A0E9451
:1042E00028206FE070E080E090E00E944E1FCF5FDA
:1042F000C83189F701E07724739410E990E0A92E82
:1043000090E0B92E8091B30683FD96C6809152014C
:104310008F738093520180915301882309F440C028
:104320002FB7F8948091BC019091BD01A091BE017E
:10433000B091BF012FBFC0905501D0905601E090C1
:104340005701F0905801BC01CD016C197D098E090F
:104350009F090E94092A1B012C0180913F01909125
:104360004001A0914101B0914201A7019601281B93
:10437000390B4A0B5B0BCA01B9010E94092A26E6D8
:1043800036E646E65FE30E946A2A9B01AC01C20161
:10439000B1010E94042AD82EDD1CDD24DD1C01C0E1
:1043A000D12CD0925A010E94D40AC0910701C8377B
:1043B00011F5C0E06C2F8DE00E943B1361E00E947C
:1043C0001C0ACF5FCA30B1F7809152018F7190E023
:1043D000C1E040970CF0C0E06C2F84E10E941C0A01
:1043E0006C2F85E10E941C0A6C2F86E10E941C0A3A
:1043F0006C2F87E112C68091B30681FF6FC0CF306A
:1044000009F44AC0C0E0D0E06091060170E00C2ED3
:1044100002C0759567950A94E2F761708C2F0E942F
:104420001C0A6091510170E00C2E02C075956795D1
:104430000A94E2F761708C2F885F0E941C0A219613
:10444000C830D10509F7C09152018C2F8F7190E0CF
:1044500061E040970CF060E0809150010E941C0ADE
:1044600061E080E10E941C0A61E081E10E941C0A77
:1044700061E082E10E941C0A41E060E0809143011A
:104480000E945816CF702C2F30E061E028303105A3
:104490000CF060E0805F1DC0C0E06C2F85E00E94E2
:1044A0003B13209152012F7130E061E02031310542
:1044B0000CF060E00E941C0ACF5FCA3071F761E027
:1044C00088E10E941C0A61E089E10E941C0A61E007
:1044D0008BE10E941C0A61E08AE19FC582FF2FC028
:1044E000C03521F0CA3511F0C43669F4809152010B
:1044F000803248F484E180934F0161E080914E0165
:104500000E941C0A17C0D0914F01D53108F0D4E1A8
:10451000D0934F01F12CDF1551F06F2D66958C2F44
:104520000E943B1361E00E941C0AF394F4CFDF5F0A
:10453000D0934F010E946A0B61E08BE16EC5E09061
:104540004D018E2D8370823020F4D0914C01D02704
:1045500001C0D0E0C23030F08C2F8F7D883011F058
:10456000CC33F1F5F12C61E08F2D0E941C0AF394FD
:1045700050E1F512F8CF80914C01811106C0609195
:104580004B018E2D8F700E941C0ACC3319F0C8325B
:1045900009F032C561E080E10E941C0A61E081E11E
:1045A0000E941C0A61E082E10E941C0A61E083E132
:1045B0000E941C0AC83249F4809152018F7090E029
:1045C00061E008971CF060E001C061E084E10E94B6
:1045D0001C0ACC3309F05AC0809152018F702CC054
:1045E000C63481F5F0904E018F2D0E94F40F61E0EA
:1045F0000E941C0AC09152018C2F8F7190E061E0E3
:1046000040970CF060E08F2D0E941C0A61E080E171
:104610000E941C0A61E081E10E941C0A61E082E1C3
:104620000E941C0A61E083E10E941C0A61E084E1AF
:104630000E941C0ACF708C2F90E061E008973CF13B
:1046400060E025C0C23369F580914E010E942410BC
:1046500061E00E941C0A61E080E10E941C0A61E0A6
:1046600081E10E941C0A61E082E10E941C0A61E073
:1046700083E10E941C0A809152018F7090E061E0FA
:1046800008970CF060E084E10E941C0A61E085E17B
:104690000E941C0A61E086E10E941C0A61E087E139
:1046A000A9C4CE3149F5C0E061E08C2F0E941C0AFC
:1046B000CF5FC031C9F761E080E10E941C0A61E070
:1046C00081E10E941C0A61E082E10E941C0A61E013
:1046D00083E10E941C0A61E084E10E941C0A61E0FF
:1046E00085E10E941C0A809152018F7090E061E088
:1046F00008978CF260E0CFCFC43609F0A4C00E94C6
:10470000881681111AC0E0914E0184E0E89FF00103
:104710001124E054F94F47E064E081810E9458166B
:10472000FF24F394F80EC0E0CF1508F020C361E039
:104730008C2F0E941C0ACF5FF7CF8130D1F4E0911B
:104740004E0194E0E99FF0011124E054F94F43E059
:1047500060E081810E945816FF24F394F80EC0E0B7
:10476000CF1508F004C361E08C2F0E941C0ACF5FB4
:10477000F7CF823001F5C0E089E0F82E80914E013C
:10478000E091AC061E9FF0011124F89EE00DF11D92
:104790001124E45DFD4F80850E94981690E02C2F37
:1047A00030E0821793070CF4E2C261E08C2F0E9484
:1047B0001C0ACF5FE3CF833009F0D9C2C0E0B9E073
:1047C0009B2EC090AC06D12C80914E01E82EF12C8E
:1047D0001C9DF0011D9DF00D1124989EE00DF11D12
:1047E0001124E45DFD4F80850E94981690E02C2FE7
:1047F00030E0821793070CF4BAC241E050E0C830B1
:1048000010F440E050E09E9CC0019F9C900D11244C
:104810001C9D90011D9D300D1124820F931F845DFE
:104820009D4FFC01E40FF51F608170E08C2F8770B5
:1048300002C0759567958A95E2F761708C2F0E948A
:104840001C0ACF5FBECFC03509F0E4C0E0904E0136
:104850008091AC068E2C912CE9E0EE9E7001112423
:10486000F701189FE00DF11D1124E45DFD4F8085D7
:104870000E949816582EF401EE0FFF1FEE0FFF1F37
:10488000E054F94F828190E0652D70E06F5F7F4FBB
:104890000E94582B662E5394C0E09F012E5F3F4F1D
:1048A0006901C51540F0C0E089E0889D7001899DCF
:1048B000F00C112444C00E9488166091AC0670E090
:1048C00090E0880F991F41E050E0C83010F440E0BC
:1048D00050E0169F9001179F300D11242E0D3F1DA3
:1048E000245D3D4F820F931FFC01E40FF51F808173
:1048F00090E02C2F277002C0959587952A95E2F7B6
:10490000382F317020914C01211112C080FF07C057
:10491000F6018081652D0E94382BC91751F0F601F0
:104920008081652D0E94382BC91302C021E001C08F
:10493000232F622F8C2F0E941C0ACF5FB2CF809151
:10494000AC06F701189FE00DF11D1124E45DFD4F49
:1049500080850E94941690E02C2F30E082179307F8
:104960003CF061E080E18C0F0E941C0ACF5FE7CF32
:104970008091B30680FF1FC0C0E060E08C2F0E94D2
:104980001C0ACF5FC031C9F7C0E06C2F8EE60E94D1
:104990003B13209152012F7130E061E0203131054D
:1049A0000CF060E00E941C0ACF5FCA3071F761E032
:1049B00089E10E941C0A0E948816209152012F70E2
:1049C00030E061E0283031050CF060E0805F0E944B
:1049D0001C0A611002C06D2F01C060E084E10E94DA
:1049E0001C0AF1E06F1202C06D2F01C060E085E18A
:1049F0000E941C0A22E0621202C06D2F01C060E01A
:104A000086E10E941C0A33E0631611F060E047CE95
:104A10006D2F45CECA3509F060C0C0E069E0962E22
:104A2000E0904E01F12C8091AC069E9C60019F9C11
:104A3000D00C1124F601189FE00DF11D1124E45D46
:104A4000FD4F80850E94981690E02C2F30E0821751
:104A5000930714F4C0E00CC061E08C2F0E941C0A84
:104A6000CF5FDECF61E080E18C0F0E941C0ACF5F38
:104A70008091AC06F601189FE00DF11D1124E45D54
:104A8000FD4F80850E94941690E02C2F30E0821715
:104A9000930744F7C0E089E08E9D60018F9DD00CA4
:104AA00011248091AC06F601189FE00DF11D112430
:104AB000E45DFD4F47E066E080850E94581690E077
:104AC0002C2F30E0821793070CF496C261E084E14A
:104AD0008C0F0E941C0ACF5FE4CFC930B9F4C0E04C
:104AE000D0268C2F0E94C617882311F06D2D01C08F
:104AF00061E08C2F0E941C0ACF5FC03191F761E00A
:104B000080E10E941C0A61E081E13FC1CA3089F462
:104B1000C0E0D0268C2F0E94C617882311F06D2D7F
:104B200001C061E08C2F0E941C0ACF5FC03191F759
:104B300063C2C43011F550ECE52E56E0F52EC0E00E
:104B4000D02680915301882369F0F701808180FD90
:104B500007C08C2F0E94C617882321F06D2D03C03B
:104B600060E001C061E08C2F0E941C0ACF5FF4E07E
:104B7000EF0EF11CC03129F73FC2C53099F440EC6B
:104B8000E42E46E0F42EC0E0F70160816695617086
:104B90008C2F0E941C0ACF5FF4E0EF0EF11CC03195
:104BA00099F72AC2C63049F4C0E061E08C2F0E9418
:104BB0001C0ACF5FC031C9F71FC2CB3009F055C006
:104BC00030ECE32E36E0F32EC0E00E94881681110F
:104BD00006C0F701608165FB662760F918C0813067
:104BE00029F4F70160816295617011C0823031F45F
:104BF000F7016081661F6627661F09C0833031F4A4
:104C0000F701608166FB662760F901C060E08C2FC8
:104C10000E941C0ACF5FF4E0EF0EF11CC031A9F630
:104C200061E080E10E941C0A61E081E10E941C0AAF
:104C300061E082E10E941C0A61E083E10E941C0A9B
:104C400061E084E10E941C0A61E085E10E941C0A87
:104C50000E948816209152012F7030E061E02830C8
:104C600031050CF060E0805F13CDC431F1F4809128
:104C70004A01813009F419C2823009F42BC2833011
:104C800009F435C210924701109246011092450175
:104C900010924401837080934A01909152019111C6
:104CA000ABC18F5F80934A01A7C1C23009F052C0E7
:104CB000E12CF12C29E0C22ECE2D0E9488168823EB
:104CC00011F0833021F48C2F0E94C61736C081303A
:104CD00089F1823089F58E2D0E94C617882311F044
:104CE000DD2051F18091AC06CE9CF001CF9CF00DFF
:104CF0001124189FE00DF11D1124E45DFD4F80810A
:104D0000218130E0280F311D8281280F311D8381E0
:104D1000280F311D8481280F311D8581280F311DF9
:104D20008681280F311D8781280F311D81E0232BBB
:104D300021F402C081E001C080E0682F8C2F0E9426
:104D40001C0A2FEFE21AF20A30E1E316F10409F02F
:104D5000B3CF0DC0C33041F5C0E08C2F0E94C61701
:104D6000682F8C2F0E941C0ACF5FC031B1F761E021
:104D700080E10E941C0A61E081E10E941C0A61E05E
:104D800082E10E941C0A61E083E10E941C0A0E94E9
:104D90008816209152012F7030E061E028303105F3
:104DA0000CF060E0805F26C1CD3009F074C0E12CCA
:104DB000F12C99E0C92ECE2D8E2D0E94C617882386
:104DC00011F0DD2039F18091AC06CE9CF001CF9C32
:104DD000F00D1124189FE00DF11D1124E45DFD4F2D
:104DE0002081818190E0820F911D2281820F911D8F
:104DF0002381820F911D2481820F911D2581820FB5
:104E0000911D2681820F911D2781820F911D61E0E6
:104E1000892B09F460E08C2F0E941C0A4FEFE41AE2
:104E2000F40A50E1E516F10431F68CE2E82E82E056
:104E3000F82EC0E1F70120E160E061111CC0308173
:104E4000818190E0830F911D3281830F911D338109
:104E5000830F911D3481830F911D3581830F911D27
:104E60003681830F911D3781830F911D61E0892B5E
:104E700019F460E001C061E0215039962111DDCFC5
:104E800061708C2F0E941C0ACF5F80E9E80EF11C34
:104E9000C83181F6B1C0C73009F04CC0C0E0D0269F
:104EA0000E948E16880F880F8C0F94E0899FF00166
:104EB0001124E054F94F908193FD20C090FD06C06D
:104EC0000E94C617882321F06D2D03C060E001C049
:104ED00061E08C2F0E941C0A0E948E16880F880F9A
:104EE0008C0F24E0829FF0011124E054F94F60817F
:104EF0006695617084E08C0F0E941C0A0E948E16D9
:104F0000880F880F8C0F34E0839FF0011124E05448
:104F1000F94F608163FB662760F988E08C0F0E947F
:104F20001C0ACF5FC43009F0BBCF0E948E1661E02F
:104F3000845F60C0CF30A9F561E080915901811193
:104F400001C060E080E00E941C0A61E0809149019C
:104F5000811101C060E081E00E941C0A61E0809143
:104F60000501811101C060E082E00E941C0A61E03D
:104F700080910801811101C060E083E00E941C0A59
:104F800061E080910401811101C060E084E00E9431
:104F90001C0A61E080914801811101C060E085E058
:104FA00029C0CC3049F580915401882309F488C088
:104FB00061E086E00E941C0A61E089E00E941C0A10
:104FC00061E08AE00E941C0A61E08BE00E941C0AFA
:104FD00061E08EE00E941C0A61E085E10E941C0AEB
:104FE00061E086E10E941C0A61E087E10E941C0AE0
:104FF00061E080E00E941C0A0E94431D81110E9412
:105000006A0B80910701843151F080915301811125
:1050100002C061E001C06D2F88E10E941C0A0E945D
:105020002820809152018F5F809352016FE070E0E1
:1050300080E090E00E944E1F0E94CF0080915901B5
:105040008823F1F08091550190915601A09157016C
:10505000B091580188519C4FAF4FBF4F2FB7F89474
:105060004091BC015091BD016091BE017091BF01A2
:105070002FBF84179507A607B70710F40E9445189D
:105080008091540181110AC080910801882331F078
:1050900080915301811102C070925301A114B10497
:1050A00009F430C90E94000028C99CEF9093440184
:1050B00096E69093450192E3909346019EE914C0D1
:1050C000809152018F7190E061E040970CF491CF94
:1050D00060E08FCF98E89093440196E59093450166
:1050E00098EC9093460194E490934701D3CD94EFCC
:1050F0009093440192E29093450190ED9093460184
:1051000098E8F2CFE4EBF6E01382128288EE93E0A7
:10511000A0E0B0E084839583A683B7838FE191E01C
:10512000918380830895CF93C82F0E94C617811161
:105130000CC08C2F0E94911A80914901882329F07C
:1051400061E08C2FCF910C940D18CF910895209190
:105150001601822F90E0A0E0B0E09C01AD01285242
:1051600031094109510960E57FEC8EEF9FEF0E9404
:10517000282B28EC30E040E050E00E94A129DA0121
:10518000C901885B9449AE4FBF4FAC01BD01E3E05C
:10519000440F551F661F771FEA95D1F7411551053A
:1051A00088E06807710568F482E08093BB01DB0149
:1051B000CA0133E0B695A795979587953A95D1F7AB
:1051C0000CC083E08093BB01DB01CA0126E0B695E9
:1051D000A795979587952A95D1F79093BA018093D3
:1051E000B9018091B9019091BA01909387008093A1
:1051F00086008091BB0180618093810008958F9229
:105200009F92AF92BF92CF92DF92EF92FF92CF9395
:10521000DF93EC01688179818A819B816115710539
:105220008105910521F464E279ED8BE597E02DE1AC
:1052300033EF41E050E00E94A12949015A019B014E
:10524000AC01A7EAB1E40E94C0296B017C01ACEE7D
:10525000B4EFA50194010E94CE29DC01CB018C0D95
:105260009D1DAE1DBF1DB7FF03C00197A109B0482A
:1052700088839983AA83BB83BC01CD019F77DF918B
:10528000CF91FF90EF90DF90CF90BF90AF909F9025
:105290008F9008958F929F92AF92BF92CF92DF929C
:1052A000EF92FF926091170170911801809119019E
:1052B00090911A01611571058105910521F464E24F
:1052C00079ED8BE597E02DE133EF41E050E00E946E
:1052D000A12949015A019B01AC01A7EAB1E40E944E
:1052E000C0296B017C01ACEEB4EFA50194010E94D2
:1052F000CE29DC01CB018C0D9D1DAE1DBF1DB7FF5E
:1053000003C00197A109B048809317019093180139
:10531000A0931901B0931A01BC01CD019F77FF90B2
:10532000EF90DF90CF90BF90AF909F908F900895B7
:1053300060931701709318018093190190931A01DB
:105340000895052E97FB1EF400940E94B82957FD7E
:1053500007D00E94D32907FC03D04EF40C94B8293F
:1053600050954095309521953F4F4F4F5F4F089591
:1053700090958095709561957F4F8F4F9F4F0895C1
:105380000E94F529A59F900DB49F900DA49F800DBC
:10539000911D11240895B7FF0C94C0290E94C029C3
:1053A000821B930B0895A1E21A2EAA1BBB1BFD01C1
:1053B0000DC0AA1FBB1FEE1FFF1FA217B307E407F4
:1053C000F50720F0A21BB30BE40BF50B661F771F4C
:1053D000881F991F1A9469F760957095809590952C
:1053E0009B01AC01BD01CF010895A29FB001B39F05
:1053F000C001A39F700D811D1124911DB29F700DDE
:10540000811D1124911D08950E94462A08F481E00F
:105410000895E89409C097FB3EF4909580957095A7
:1054200061957F4F8F4F9F4F9923A9F0F92F96E9F0
:10543000BB279395F695879577956795B795F11165
:10544000F8CFFAF4BB0F11F460FF1BC06F5F7F4F02
:105450008F4F9F4F16C0882311F096E911C0772314
:1054600021F09EE8872F762F05C0662371F096E81D
:10547000862F70E060E02AF09A95660F771F881FEC
:10548000DAF7880F9695879597F90895990F000890
:10549000550FAA0BE0E8FEEF16161706E807F90706
:1054A000C0F012161306E407F50798F0621B730BA1
:1054B000840B950B39F40A2661F0232B242B252B22
:1054C00021F408950A2609F4A140A6958FEF811DC5
:1054D000811D08950E947D2A0C94EE2A0E94E02AE4
:1054E00038F00E94E72A20F0952311F00C94D72A77
:1054F0000C94DD2A11240C94222B0E94FF2A70F3B5
:10550000959FC1F3950F50E0551F629FF001729F68
:10551000BB27F00DB11D639FAA27F00DB11DAA1F77
:10552000649F6627B00DA11D661F829F2227B00DC4
:10553000A11D621F739FB00DA11D621F839FA00D4F
:10554000611D221F749F3327A00D611D231F849F9F
:10555000600D211D822F762F6A2F11249F575040F6
:105560009AF0F1F088234AF0EE0FFF1FBB1F661F71
:10557000771F881F91505040A9F79E3F510580F03A
:105580000C94D72A0C94222B5F3FE4F3983ED4F37B
:10559000869577956795B795F795E7959F5FC1F7DE
:1055A000FE2B880F911D9695879597F9089597F989
:1055B0009F6780E870E060E008959FEF80EC0895B9
:1055C00000240A94161617061806090608950024E2
:1055D0000A9412161306140605060895092E03945C
:1055E000000C11F4882352F0BB0F40F4BF2B11F4D0
:1055F00060FF04C06F5F7F4F8F4F9F4F089557FD2F
:105600009058440F551F59F05F3F71F04795880F30
:1056100097FB991F61F09F3F79F0879508951216C7
:1056200013061406551FF2CF4695F1DF08C0161673
:1056300017061806991FF1CF869571056105089424
:105640000895E894BB2766277727CB0197F908953B
:10565000DB018F939F930E94C029BF91AF91A29FBE
:10566000800D911DA39F900DB29F900D1124089560
:10567000991B79E004C0991F961708F0961B881FA4
:105680007A95C9F780950895AA1BBB1B51E107C005
:10569000AA1FBB1FA617B70710F0A61BB70B881FC2
:1056A000991F5A95A9F780959095BC01CD01089551
:1056B00097FB072E16F4009407D077FD09D00E94BF
:1056C000442B07FC05D03EF4909581959F4F08959B
:1056D000709561957F4F0895EE0FFF1F0590F4912F
:1056E000E02D099481E090E0F8940C94772BF894E5
:0256F000FFCFEA
:1056F200FFFFFFFF0101010401FFFFFFFFFFFFFFAB
:10570200FF3010301001780100000000000000E8B6
:0E57120010BB1018118F10B3109F10901000D4
:00000001FF
