:100000000C9462000C946F160C9448160C948A00A1
:100010000C948A000C948A000C948A000C948A0038
:100020000C948A000C9496160C948A000C948A0006
:100030000C948A000C9436180C948A000C948A0054
:100040000C94BC1F0C948A000C948A000C948A00B7
:100050000C948A000C948A000C948A000C948A00F8
:100060000C9408170C948A0000000000240027005C
:100070002A0000000000250028002B0000000000DE
:1000800023002600290004040404040404040202DA
:100090000202020203030303030301020408102007
:1000A0004080010204081020010204081020000012
:1000B0000008000201000003040700000000000027
:1000C0000000F72811241FBECFEFD8E0DEBFCDBF60
:1000D00015E0A0E0B1E0E4E0F7E502C005900D9284
:1000E000AE3AB107D9F727E0AEEAB5E001C01D92FC
:1000F000A030B207E1F710E0C2E6D0E004C02197DB
:10010000FE010E94752BC136D107C9F70E9451200C
:100110000C94802B0C940000CF92DF92FF920F93EF
:100120001F93CF93DF93D82FC62FF42E61E08C2F2F
:100130000E941E1F61E08D2F0E941E1F60E08D2F08
:100140000E94EF1E60E08C2F0E94EF1E07E010E07F
:10015000CC24C394D12C60E08C2F0E94EF1EB601FA
:10016000002E01C0660F0A94EAF76F218D2F0E94BE
:10017000EF1E61E08C2F0E94EF1E60E08D2F0E9429
:10018000EF1E0150110938F760E08C2FDF91CF91FD
:100190001F910F91FF90DF90CF900C94EF1E2F9244
:1001A0003F924F925F926F927F928F929F92AF9207
:1001B000BF92CF92DF92EF92FF920F931F93CF9354
:1001C000DF93CDB7DEB72E970FB6F894DEBF0FBE24
:1001D000CDBF2DB73EB73E872D87809180008F77AA
:1001E00080938000299A8BE490E00197F1F7809149
:1001F00080008F778093800029980E94AC098093BB
:1002000000010E94AC09809301010E94AC09809317
:1002100002010E94AC098093030140E0C42E41E03A
:10022000D42EB12C0B2DE12CF12C0230C1F1033076
:10023000C1F10130C1F10023C1F10630C1F1083034
:10024000C1F10530C1F10430C1F10B30C1F10C3006
:10025000C1F10A30C1F10930C1F10031C1F1013100
:10026000C1F10E30C1F10D30C1F10431C1F10531E0
:10027000C1F10331C1F10231C1F10931C1F10A31DA
:10028000C1F10831C1F10631C1F10D31C1F10E31B9
:10029000C1F10C31C1F10B31C1F115E437C010E0EF
:1002A00035C011E033C012E031C013E02FC014E0BC
:1002B0002DC015E02BC016E029C017E027C018E0BC
:1002C00025C019E023C01AE021C01BE01FC01CE0BC
:1002D0001DC01DE01BC01EE019C01FE017C010E1CB
:1002E00015C011E113C012E111C013E10FC014E1F8
:1002F0000DC015E10BC016E109C017E107C018E1F8
:1003000005C019E103C01AE101C01BE1812F0E9461
:10031000E90AD6012C9130E00E2C02C035952795C4
:100320000A94E2F720FF08C08A3021F08E3111F0E4
:100330006AE009C06EE107C0843109F456C1883211
:1003400009F453C164E1812F0E941A0BBFEFEB1A2D
:10035000FB0A0F5FE8E0EE16F10409F066CFFFEF4D
:10036000CF1ADF0A28E0B20E30E2B3125BCF40ECC6
:1003700056E05C834B8360EE7FEF78876F8388EF76
:100380009FEF9A8389839CEE9D8300EFA1E0AE836B
:1003900010E0212C312C812F0E94E90A8A3009F0CB
:1003A00098C0809107018837A9F4143120F088EEB5
:1003B000810F843020F48091DB050E94B21C7D8186
:1003C000743008F086C00E9417148091DB050E94EB
:1003D000B21C7FC09091B30693FF3BC061E0812FB8
:1003E0000E942A0A0E943420103140F440E061E06B
:1003F000812F0E949A0A0E94170A6BC01B3121F4B8
:1004000084E00E94192069C0183109F062C080910F
:10041000B30682FDECC0BFEF2B1A3B0A1F5FEE81D3
:10042000EF5FEE830F5FFD81FF5FFD8329813A81DE
:100430002F5F3F4F3A8329834B815C814C5F5F4F35
:100440005C834B836F8178856E5F7F4F78876F8386
:10045000A2CF1831B9F48091D405811104C08091E4
:100460000801811126C08091D305882329F01092BC
:10047000D3050E9451101DC00E94511081E080934D
:10048000D30517C01A3111F482E011C01B3189F471
:10049000803519F41092070109C0843611F481E007
:1004A00003C08A3519F488E08093070184E00E9434
:1004B0001920F09007018091B3069FE0F9129BC0CC
:1004C000982F9670963009F096C0103110F40E9463
:1004D000420E6E816C3109F09ECF10E0812F0E9498
:1004E000E90A082F843109F05CC08091B30683FFCC
:1004F00015C060E0812F0E942A0A0E94342010312A
:1005000040F440E060E0812F0E949A0A0E94170A9E
:1005100048C01B3109F045C084E019C01A3121F4EC
:1005200082E00E945D1807C01B3129F484E00E941C
:100530005D180093CF050E944C15882319F01931DE
:1005400009F4EDC680910701803521F481E00E9415
:100550005D1827C0853019F4103118F51EC087309A
:1005600059F40E94B91B9CEF910F9430D0F4880F7E
:10057000880F60E0890F13C0823099F4103188F43D
:100580000E94B31B813029F460E0812F0E94391D45
:1005900008C0833031F41092DC0560E0812F0E94A6
:1005A000FE0F1F5F1C3109F099CFED85FE850FB658
:1005B000F894FEBF0FBEEDBF2E960FB6F894DEBFC7
:1005C0000FBECDBFDF91CF911F910F91FF90EF90A4
:1005D000DF90CF90BF90AF909F908F907F906F9063
:1005E0005F904F903F902F90089568E2ACCE88E0E6
:1005F0000E945D186ECF81FF2EC0AFE0FA1659F150
:100600001031E0F441E060E08091C3050E94831B5B
:10061000811107C01093D0051092AC060E94E80B20
:100620000DC0813021F4812F0E94260D07C0823039
:1006300029F4412F62E08F2D0E943D15043008F00F
:1006400048CF202F41E060E08091C3050E945C1CF0
:100650008093C3053ECF82FF0EC0103108F052C612
:100660001E3029F48091D0050E94260D4BC6812FA3
:100670000E94B21C47C6B1E0BF1560F4E8E0FE1668
:1006800009F451C6FCE3FF1609F454C628E2F2123D
:1006900014C057C6103148F41093CE05F11002C0B3
:1006A00080E501C084E60E94B21C809107018C3372
:1006B000D9F1883209F021C637C036E4F31210C0F0
:1006C000103190F5E090CE0544E0E49EC001112485
:1006D000BC016054794F7B01212F43E060E012C0E0
:1006E000F2E3FF1217C01031F8F4E090CE0524E0D9
:1006F000E29EC0011124AC014054594F7A01212FD0
:1007000047E064E0D70113968C910E945C1CF701CE
:1007100083830AC0FEE1FF1222C0103128F4412F6A
:1007200063E08BE00E943D150430A8F0143111F411
:1007300088E203C0153121F48CE30E94B21CDDC5B0
:10074000163111F48EE1F9CF173109F0D6C540E02A
:1007500064E08BE040C48BE00E94B21CCBC520E576
:10076000F212D3C01931C1F48091CE05E091AC06EC
:1007700030E9E39FF001112449E0849FE00DF11D71
:100780001124E95EFE4F80850E94BF1B882331F053
:1007900081E00E94192002C01031D8F1E090AC062F
:1007A0008091CE0570E9E79E70011124D701E9E040
:1007B0008E9FA00DB11D11249D01295E3E4F790130
:1007C000D90118968C910E94BF1B90E0409682152B
:1007D0009305FCF08091B30680FFBAC50E94B31B5D
:1007E000F701E80FF11DE80FF11D8081CF80D8845B
:1007F000CE0CDF1CD6018C930E94B31BF701E80FCF
:10080000F11DE80FF11D8181F601818381E00E94D5
:100810005D18E090AC068091CE05A82EB12CCE2CB0
:10082000D12CF0E9EF9E70011124970149E0849FDB
:10083000200D311D1124B901695E7E4F7B01DB0162
:1008400018968C910E94C31B183020F50E94B31B90
:10085000F701E80FF11DE80FF11D8081282F30E02E
:10086000022C02C0359527950A94E2F720FF09C0B3
:1008700021E030E0022C01C0220F0A94EAF7821B2B
:1008800008C021E030E0022C01C0220F0A94EAF7F0
:10089000820F8083B981B83008F02FC50E94B31B46
:1008A00099E09A9DA0019B9D500D112490E99C9D7B
:1008B00090019D9D300D1124240F351F280F311DEF
:1008C000280F311DF901E85EFE4F8081282F30E0AE
:1008D000098002C0359527950A94E2F720FF0AC0E7
:1008E00021E030E0098002C0220F331F0A94E2F7B2
:1008F000821B09C021E030E0098002C0220F331FB3
:100900000A94E2F7820F8083F8C4EAE5FE1291C0F0
:100910001031E0F4E090AC068091CE05F0E9EF9E56
:1009200070011124970149E0849F200D311D11248D
:10093000B901695E7E4F7B01212F43E060E0D70162
:1009400018968C910E945C1CF7018087043008F097
:1009500050C0E090AC068091CE05F0E9EF9E7001AA
:100960001124970149E0849F200D311D1124B90104
:10097000695E7E4F7B01DB011896CC908C2D0E9426
:10098000BF1BD82E202F45E064E08C2D0E945C1CFC
:10099000F7018087D81669F1D11009C08081828360
:1009A0008181838380818483818185831EC0F1E07E
:1009B000DF1217C0D7018C9114968C93149711965F
:1009C0008C91119715968C93159712968C9112977E
:1009D00016968C93169713968C91139717968C9363
:1009E00008C0B2E0DB1205C0F701808186838181F7
:1009F0008783FD81F43008F080C4E090AC068091DC
:100A0000CE0520E9E29E70011124A70169E0869FCE
:100A1000400D511D1124DA01A95EBE4F7D012F2F1B
:100A200047E066E018968C910E945C1CF701808775
:100A300064C4F4E0FF120DC0103108F05EC4AB8155
:100A4000BC814C914095417061E0812F0E94222031
:100A500054C4B5E0FB1208C0103108F04EC461E088
:100A6000812F0E94FE0F49C4EBE0FE1239C0103105
:100A700098F50E94B31B81110AC0AB81BC814C91D7
:100A800045FB442740F981E0482760E222C08130DD
:100A900051F4EB81FC81408142954F708427482FAF
:100AA000417060E116C0823049F4AB81BC814C9149
:100AB0004095441F4427441F60E80BC0833061F415
:100AC000EB81FC81408146FB442740F981E04827C7
:100AD00060E4812F0E942220043008F027CE0AC44F
:100AE000F6E0FF1208C0103108F007C4AB81BC81EA
:100AF00012961C9202C4B9E0FB12B1C0103108F08A
:100B0000AAC00E94B31BE82E8DB69EB68091AC069B
:100B1000F29CF001F39CF00D1124682E712C20E959
:100B2000829FE00DF11D1124E95EFE4FF0848F2DB0
:100B30000E94C31BD82E8F2D0E94BF1B90E00196F0
:100B4000F82ED89EF00C1124CF2CD12C4DB75EB7C7
:100B50004C195D090FB6F8945EBF0FBE4DBF6DB75F
:100B60007EB76F5F7F4F5B01CB018C0D9D1DFB013D
:100B70008E179F0799F4F50140E089E0829D90016E
:100B8000839D300D112450E9569DC001579D900D55
:100B90001124280F391F295E3E4F02C01192E8CF61
:100BA000F416A1F0842F869586958695D901A80F15
:100BB000B11D8C9190E0542F577002C09595879588
:100BC0005A95E2F7817081934F5FEACF812F0E949F
:100BD000CC1CEE2019F08FEF9FEF02C081E090E077
:100BE0004091AC06E0E0F0E03C016C0C7D1C89E03B
:100BF000829D9001839D300D112470E9479F200D47
:100C0000311D1124295E3E4F4E2FEF15F8F4C3011C
:100C10008E0F9F1FB6010E94612BD501A80FB91F2F
:100C20008C91813089F48E2F869586958695D90191
:100C3000A80FB11D477081E090E001C0880F4A9570
:100C4000EAF79C91890F8C933196DECF0FB6F8941A
:100C50009EBE0FBE8DBE023008F04FC34BC38AE06C
:100C6000F8129FC0103108F048C36DB67EB680916F
:100C7000AC0699E0929DF001939DF00D1124A82EF1
:100C8000B12C90E9899FE00DF11D1124E95EFE4F22
:100C9000F0848F2D0E94C31BE82E8F2D0E94BF1B56
:100CA00090E00196982EE89E900C1124E92CF12CEE
:100CB000ADB7BEB7AE19BF090FB6F894BEBF0FBE31
:100CC000ADBFEDB7FEB731966F01CF018E0D9F1D01
:100CD0008E179F0799F4F60140E089E0829D90010C
:100CE000839D300D112450E95A9DC0015B9D900DEC
:100CF0001124280F391F295E3E4F02C01192E8CF00
:100D00009416A1F0842F869586958695D901A80F13
:100D1000B11D8C9190E0542F577002C09595879526
:100D20005A95E2F7817081934F5FEACF812F0E943D
:100D3000CC1C2091AC06F1E0EF1AF108D601AE0D03
:100D4000BF1D40E039E0329DC001339D900D11245C
:100D500030E9239F800D911D1124895E9E4F9416CA
:100D6000D1F02C912130A1F4242F2695269526959B
:100D7000FC01E20FF11D242F277061E070E002C03A
:100D8000660F771F2A95E2F79B013081230F20839E
:100D90004F5F1197E4CF0FB6F8947EBE0FBE6DBEC5
:100DA000ACC272E0F71224C0103108F0A1C20E9458
:100DB000B31B811104C0812F0E948B2899C28130FE
:100DC00029F461E0812F0E94391D92C2823029F4FA
:100DD000412F60E00E943D158BC2833009F088C22C
:100DE00081E08093DC0561E0812F0E94FE0F80C2CC
:100DF0008CE0F81230C08091D405882301F18BEE8D
:100E0000810F833058F480911201893208F475C241
:100E10008150809312010E949F286FC2812F877F8B
:100E2000863021F087EF810F833048F480911201E2
:100E3000803F28F48F5F809312010E949F28111138
:100E40005CC281E09091D405911180E08093D4053B
:100E50000E94DE1252C293E0F912AFC0103108F0C6
:100E600047C2A12CB12C89E0829D4001839D900C4A
:100E7000112430E9E32E0E9453292FEF30E040E0A7
:100E800050E00E94AA29F62E0E94B31B8330D0F5B1
:100E9000C12CD12C0E9453292B013C010E94B31B71
:100EA00090E00196A9E1A89F9001A99F300D11241F
:100EB000A901330F660B770B49875A876B877C87AD
:100EC000C301B20124E630E040E050E00E94AA29CC
:100ED00029853A854B855C852617370748075907CA
:100EE00054F48F2D90E00C2C02C0959587950A94B0
:100EF000E2F780FD0BC23FEFC31AD30A48E0C416E5
:100F0000D10441F68091AC06C82ED12CF401E89EA4
:100F1000E00DF11D1124E95EFE4FDF01AA0DBB1D9E
:100F2000FC925FEFA51AB50A68E0A616B10409F0B5
:100F3000A2CF2081818190E0820F911D892B09F041
:100F4000D7C10E9453292B013C010E9453294B0118
:100F50005C01C301B20124E130E040E050E00E94B6
:100F6000AA2921E030E06B3071058105910514F06C
:100F700020E030E089E0829D7001839DF00C112417
:100F800040E94C9DC0014D9D900D11248E0D9F1D7B
:100F9000895E9E4F7C01E20EF31EC501B40127E07D
:100FA00030E040E050E00E94AA2981E001C0880FB3
:100FB0006A95EAF7D7018C939BC1BDE0FB120EC086
:100FC000103118F4412F60E005C0083008F095C1D9
:100FD000402F61E08DE00E943D158FC1E7E0FE12D9
:100FE00053C00E94B91BF82E1430A0F4880F880F4C
:100FF000810F24E0829FF0011124E054F94F4081D9
:1010000043FF03C00E948B2805C04095417061E0FA
:101010000E9422208CEF810F8430B0F44F2D440FBA
:10102000440F840F34E0839FF0011124E054F94F02
:10103000908193FF06C0482F60E087E00E943D1535
:1010400003C061E00E94FE0F4981443098F48F2D67
:10105000880F880F840F54E0859FF0011124E0541D
:10106000F94F408143FB442740F991E0492768E06C
:101070000E94222084EF810F843008F03EC10E943C
:101080008F1C0E94991C39C164E1F61202C08FE0E6
:1010900054CB7FE0F7124DC0111108C081E0909150
:1010A000D905911180E08093D90527C1113041F411
:1010B00081E09091C905911180E08093C9051DC11F
:1010C000123041F481E090910501911180E080930C
:1010D000050113C1133041F481E090910801911191
:1010E00080E08093080109C1143041F481E09091BF
:1010F0000401911180E080930401FFC0153041F498
:1011000081E09091C805911180E08093C805F5C0F9
:10111000193131F41092D2051092CA0584E10DCB39
:101120001C3009F0EAC088E00E9419200E94E20AFF
:10113000E4C084E6F812E1C0103108F0D9C00E9482
:10114000B31BF090CE05E090AC0681110CC0A4E07A
:10115000FA9EC0011124FC01E054F94F6F01212FC8
:1011600047E064E00DC0813091F4B4E0FB9EC00123
:101170001124FC01E054F94F6F01212F43E060E09E
:1011800081810E945C1CD60111968C931AC082301A
:10119000C1F4B0E9EB9E60011124C601E9E0FE9EB6
:1011A000800D911D11249C01295E3E4F6901212F64
:1011B00043E060E0D60118968C910E945C1CF60119
:1011C0008087AF2CB12CF0E9EF9EC001112429E0FB
:1011D000F29E800D911D1124AC01495E5E4F7A0193
:1011E000DA0117961C92179716961C921697159669
:1011F0001C92159714961C92149713961C92139791
:1012000012961C92129711961C9211971C92189686
:101210008C910E94C31B77247394780EC12CD12C1F
:10122000912CC501880F991F880F991FFC01EF535E
:10123000F94F2F01A72CB12CC71408F059C0D201C7
:101240008C9047E064E0882D0E94831B890D9924CF
:101250009394980E43E060E0882D0E94831BF60172
:10126000E80FF11DCF010196B5010E94612B282FD7
:101270009714D0F19718E1E0F0E0883010F4E0E046
:10128000F0E08770992741E050E002C0440F551FFD
:101290008A95E2F7CA01EE0DFF1D3081340F3083CD
:1012A000283018F4E2E0F0E002C0E3E0F0E0EE0DF8
:1012B000FF1D3081380F3083283018F0E5E0F0E072
:1012C00002C0E4E0F0E0EE0DFF1D3081380F308306
:1012D000283018F4E6E0F0E002C0E7E0F0E0EE0DC0
:1012E000FF1D9081890F80835FEFC51AD50AA4CFB7
:1012F000043018F4802F0E94851C0E944C1588230E
:1013000009F4E7C8812F0E94C513E3C881E090E08B
:101310000C2C01C0880F0A94EAF7F81AECCD81E092
:101320000E945D180FC9103108F0BFC91093CE0597
:101330008AE5B9C9103108F0B8C91093CE0586E422
:10134000B2C9103108F0B1C91093CE0582E3ABC920
:10135000802F0E94851C5DCA229A8091B0008F77F1
:101360008093B0008FB7F89423982B988FBF80E0BC
:1013700027E030E061E070E0909180009F7D9093E5
:1013800080002A989091B0009F779093B0001B99AD
:101390000AC0909180009F7D909380002A9A2150EE
:1013A000310950F70895AB01022E01C0440F0A9491
:1013B000EAF7842BEECF8230B8F0982F977F9230E7
:1013C000A9F09330A9F09CEF980F923098F08630F6
:1013D00099F08C3089F0873089F08E3079F08D7FEC
:1013E0008D3071F482E0089580E8089580E40895D6
:1013F00080E2089580E1089588E0089584E00895EA
:1014000081E008959FEF980F923078F0853069F071
:10141000893059F095EF980F923038F092EF980F8D
:1014200081E0923018F080E0089581E00895CF9334
:10143000DF934398C2EFD5E0488160E18FE00E94DE
:101440008C00498160E18FE00E948C00439ADF911B
:10145000CF910895853009F449C098EF980F9530E1
:1014600008F463C08F3009F462C093EF980F923094
:1014700070F090EF980F953050F09BEE980F9730EA
:1014800010F0E0E001C0E3E0882389F101C0E2E070
:101490008E3069F1873159F1833059F1883049F143
:1014A0008D3039F1863129F1823029F18B3019F1F3
:1014B000803109F18531F9F08130F9F08A30E9F0B5
:1014C0008331D9F08831C9F08430C9F08930B9F05E
:1014D0008231A9F08B3199F0873099F08C3089F006
:1014E000813179F08A3169F082E00CC0E1E080E876
:1014F00009C080E407C080E205C080E103C088E045
:1015000001C084E0F0E0EC53FA4F9081282F2923AA
:10151000662329F021110DC0890F808308952223AD
:1015200019F0981B908308950895E1E0B1CFE1E0B0
:10153000DBCF08950F931F93CF93DF93182FD62FF0
:10154000042F0E94020AC82F812F0E94DB0990916C
:10155000D4052C2F30E091110AC0909105019923F8
:1015600031F0011104C0F901EC50FA4F03C0F90148
:10157000EE50FA4F9081282F2923DD2329F02111E5
:1015800007C0890F808304C0222311F0981B908329
:10159000DF91CF911F910F910895CF93DF93D82FB3
:1015A0000E94020AC82F8D2F0E94DB09EC2FF0E069
:1015B000EE50FA4F9081982381E009F480E0DF91AA
:1015C000CF910895E4ECF5E013821282118210822B
:1015D0000895E82FF0E0F595E795F595E795E75F35
:1015E000FE4F208130E0837090E0880F991FAC019E
:1015F0004F5F5F4F61E070E0FB0102C0EE0FFF1F25
:101600004A95E2F7AF014223532302C0660F771FCA
:101610008A95E2F726233723232B21F4452B31F03B
:101620008EE10895452B21F088E208958AE008951F
:1016300084E10895CF93DF93C82FD62F0E94E90A43
:101640008D1709F452C0EC2FF0E0F595E795F5956C
:10165000E795E75FFE4F2081C3708C2F90E0880FE5
:10166000991F422F50E0082E02C0559547950A94C5
:10167000E2F740FF07C031E0082E01C0330F0A94A3
:10168000EAF701C030E0422F431BDA3019F031E0B5
:10169000DE3109F430E0232F082E01C0220F0A9416
:1016A000EAF7240FAC014F5F5F4F822F90E0042ECA
:1016B00002C0959587950A94E2F780FF07C081E004
:1016C000042E01C0880F0A94EAF701C080E0281BAD
:1016D000DA3019F091E0D43109F490E0892F01C09B
:1016E000880F4A95EAF7280F2083DF91CF9108955C
:1016F000CF93C0E161E08C2F0E942A0ACF5FC831EE
:10170000C9F78091D205877090E061E004970CF0F2
:1017100060E08091F605805F0E942A0A8091D205E0
:101720008F7090E061E008970CF060E08091AC066B
:10173000805F0E942A0A8091B30680FF20C0C0E02B
:1017400060E08C2F0E942A0ACF5FC031C9F7C0E049
:101750006C2F8EE60E9466182091D2052F7130E022
:1017600061E0203131050CF060E00E942A0ACF5F71
:10177000CA3071F761E089E1CF910C942A0ACF91C8
:1017800008951F93CF93DF93D0E011E0CD2FC17068
:10179000C1276C2F88E10E942A0A6C2F89E10E94E0
:1017A0002A0A6C2F8AE10E942A0A6C2F8BE10E9480
:1017B0002A0A0E94342064E670E080E090E00E94F3
:1017C0005A1FDF5FD53011F7DF91CF911F91089538
:1017D0006F927F928F929F92AF92BF92CF92DF9241
:1017E000EF92FF920F931F93CF93DF931092D30545
:1017F0008091110181110FC00E94E20AC0E06C2F9C
:1018000088E00E94661861E00E942A0ACF5FCA3011
:10181000B1F70E94342083E090E00E945E1E809326
:10182000060184E090E00E945E1E8093D10585E071
:1018300090E00E945E1E8093050186E090E00E9489
:101840005E1E8093080187E090E00E945E1E8093F8
:10185000040188E090E00E945E1E8093C8052091FC
:10186000D005C4ECD4E02C9FC0012D9F900D112415
:101870000A960E945E1E809312012091D0052C9F33
:10188000C0012D9F900D11240B960E945E1E809327
:10189000D4052091D0052C9FC0012D9F900D1124BF
:1018A0000C960E945E1E8093D9052091D0052C9F36
:1018B000C0012D9F900D11240D960E945E1E8093F5
:1018C000C90500EC16E0C0E0D0E074ECE72E74E04F
:1018D000F72E2091D0052E9DC0012F9D900D112433
:1018E0000E968C0F9D1F0E945E1EF8018083209132
:1018F000D0052E9DC0012F9D900D11244E968C0F6A
:101900009D1F0E945E1EF80181832091D0052E9DAF
:10191000C0012F9D900D11248E968C0F9D1F0E944B
:101920005E1EF801838321960C5F1F4FC031D105E5
:1019300081F6812C912C00E910E034ECE32E34E0A8
:10194000F32E49E0C42ED12C59E0752E60E9662EA5
:10195000C401B8010E944D2BEB015C012091D00520
:101960002E9DC0012F9D900D1124CE96880D991D9E
:101970000E945E1E482FF401EF70FF27C40124E08F
:10198000969587952A95E1F7B6010E944D2B7E9E8C
:1019900090017F9E300D11246C9EB0016D9E700DE4
:1019A0001124260F371F295E3E4FF901E80FF91F5A
:1019B0004083AB2859F480911101811107C061E087
:1019C0008C2F805F0E942A0A0E943420FFEF8F1A1A
:1019D0009F0A80E8881684E0980609F0B9CF8091C4
:1019E0001101811102C00E94C10B1092F6051092E4
:1019F000AC061092CE0584E00E945D1880E00E9443
:101A00008F1C84E00E94B21C0E9451101092CD05E0
:101A10000E94DE128091D405882321F081E090910C
:101A20000801911180E08093D30510921101DF919C
:101A3000CF911F910F91FF90EF90DF90CF90BF90CB
:101A4000AF909F908F907F906F9008958F929F920C
:101A5000AF92BF92CF92DF92EF92FF920F931F93BC
:101A6000CF93DF93182F0E94E20AC0E06C2F8EE024
:101A70000E94661861E00E942A0ACF5FCA30B1F75F
:101A80001830B8F440910601242F30E0012E02C036
:101A9000359527950A94E2F720FD22C081E090E079
:101AA000012E01C0880F0A94EAF7840F8093060183
:101AB00017C04091D105512F5770242F30E0052ECB
:101AC00002C0359527950A94E2F720FD09C081E010
:101AD00090E001C0880F5A95EAF7840F8093D105F2
:101AE0006091D00582E090E00E94941F6091060111
:101AF00083E090E00E94941F6091D10584E090E023
:101B00000E94941F6091050185E090E00E94941F5F
:101B10006091080186E090E00E94941F60910401AA
:101B200087E090E00E94941F6091C80588E090E0F3
:101B30000E94941F0E94342084EC94E0189FE001DE
:101B4000199FD00D112460911201CE010A960E94B6
:101B5000941F6091D405CE010B960E94941F609152
:101B6000D905CE010C960E94941F6091C905CE0143
:101B70000D960E94941F00EC16E07E018EE0E80EA8
:101B8000F11C70E0C72E77E0D72EF8018081682F16
:101B90006E7F81FD02C090E001C092E0691B82FD72
:101BA00002C090E001C094E0691B83FD02C080E0A8
:101BB00001C088E0681BC7010E94941FF801618181
:101BC000C70140960E94941FF8016381C701809667
:101BD0000E94941F0C5F1F4FFFEFEF1AFF0AC01601
:101BE000D10699F600E010E030E9C32ED12C49E08F
:101BF000E42EF12C59E0852E60E9962EEE96C80170
:101C0000B6010E944D2B5B01F801EF70FF27C80160
:101C100024E0969587952A95E1F7B7010E944D2B10
:101C20008E9E90018F9E300D11249A9CA0019B9C4A
:101C3000500D1124240F351F295E3E4FF901E80F86
:101C4000F91F6081CE01800F911F0E94941F61E0F7
:101C500080E18A0D0E942A0A0E9434200F5F1F4FE4
:101C6000003884E0180759F6DF91CF911F910F914A
:101C7000FF90EF90DF90CF90BF90AF909F908F90AC
:101C80000C94C10BAF92BF92CF92DF92EF92FF9272
:101C90000F931F93CF93DF931092D3050E94E20A14
:101CA000C0E161E08C2F0E942A0ACF5FCC31C9F7D6
:101CB0000E9434206EE280E090E00E94941F64E075
:101CC00081E090E00E94941F60E082E090E00E943A
:101CD000941F61E083E090E00E94941F60E084E044
:101CE00090E00E94941F60E085E090E00E94941FC5
:101CF00061E086E090E00E94941F61E087E090E060
:101D00000E94941F60E088E090E00E94941FC0E071
:101D1000D0E0F12C39E0C32ED12C68E7CE010A9631
:101D20000E94941F61E0CE010B960E94941F61E017
:101D3000CE010C960E94941F61E0CE010D960E9488
:101D4000941F8E01025F1F4FE12C60E0C8010E94CA
:101D5000941F60E0C80140960E94941F2E2D43E01E
:101D600060E080E00E945C1C682FC80180960E94A1
:101D7000941FE3940F5F1F4F80E1E812E6CF00E16C
:101D800010E05E018EE2A80EB11CC80124E0969519
:101D900087952A95E1F7B6010E944D2B892B11F00A
:101DA00060E001C06FE0C501800F911F0E94941F89
:101DB0000F5F1F4F003984E0180739F761E08F2D5E
:101DC0000E942A0A0E943420F394CC53DB4F80E116
:101DD000F812A3CF61E88EE390E00E94941F61E0C7
:101DE0008EE490E00E94941F60E18FE390E00E94F7
:101DF000941F60E18FE490E00E94941F65E580E409
:101E000090E00E94941F65E580E590E00E94941F99
:101E100060E081E490E00E94941F60E881E590E03A
:101E20000E94941F61E18EEC90E00E94941F61E19A
:101E30008EED90E00E94941F60E18FEC90E00E9494
:101E4000941F60E18FED90E00E94941F61E180EDAE
:101E500090E00E94941F61E180EE90E00E94941F48
:101E600064E481ED90E00E94941F64E481EE90E0D0
:101E70000E94941F61E48EE591E00E94941F60E04F
:101E80008EE691E00E94941F60E18FE591E00E9450
:101E9000941F60E18FE691E00E94941F6DED80E653
:101EA00091E00E94941F6DEF80E791E00E94941FE3
:101EB00065ED81E691E00E94941F6AE581E791E07B
:101EC0000E94941F69E98EEE91E00E94941F69E9D7
:101ED0008EEF91E00E94941F69E48FEE91E00E94E2
:101EE000941F64E28FEF91E00E94941F6FEF80EFE8
:101EF00091E00E94941F6FEF80E092E00E94941F97
:101F000061E481EF91E00E94941F60E281E092E041
:101F10000E94941F6FE48EE692E00E94941F6FE48B
:101F20008FE692E00E94941F6FE480E792E00E94A7
:101F3000941F6FE481E792E00E94941F65E88EE7AA
:101F400092E00E94941F62E18EE892E00E94941F4A
:101F500060E98FE792E00E94941F6AE98FE892E0BF
:101F60000E94941F6FE780E892E00E94941F6FED3B
:101F700080E992E00E94941F60E881E892E00E946C
:101F8000941F60E281E992E00E94941F61E48EE078
:101F900093E00E94941F61E48EE193E00E94941FFD
:101FA00061E18FE093E00E94941F61E18FE193E093
:101FB0000E94941F6DED80E193E00E94941F6DEDEF
:101FC00080E293E00E94941F61EA81E193E00E9425
:101FD000941F63E481E293E00E94941F1092CE0567
:101FE0001092D005DF91CF911F910F91FF90EF904C
:101FF000DF90CF90BF90AF900C94E80B462F62E03B
:102000000C94222024E0829FC0011124FC01E054A2
:10201000F94F43E060E083810C94831BCF93809160
:10202000CC0581111DC0C0E08C2F0E94CD0A8823F1
:1020300071F08C2F0E9402108C1749F094E0899F58
:10204000F0011124E054F94F908190FF04C0CF5F5C
:10205000C03151F705C041E061E00E949A0AF7CF14
:10206000CF91089524E0829FC0011124FC01E05427
:10207000F94F47E064E083810C94831BEEEDF5E0BB
:102080001786168615861486138612861186108684
:102090001782168215821482138212821182108294
:1020A000089581E08093CC051092EE051092CB0547
:1020B0008091CD05823018F0E0ECF6E019C08091F7
:1020C000D4058111F9CF809108018823A9F31092DA
:1020D000CD051092F5051092F4051092F3051092BB
:1020E000F2050E94170A80911101882341F008959A
:1020F0001282349687E0E030F807D1F7E8CF80917C
:10210000D405811107C080910501882319F080E072
:102110000C94C71B08958091B30683FD3BC080914A
:10212000D3058823B9F19091EE0581E0892780934A
:10213000EE059091D405911104C089B182FB8827E6
:1021400080F98093CB05882309F496C0992309F47C
:1021500045C08091CD0590E03091AC062091F60508
:10216000321342C060E470E00E94612B8093CD0581
:1021700032133DC08F7009F442C08091CD058F733A
:102180000E94C71B0E943E100E940E100E94170A58
:102190001092CC058091D5059091D605A091D705D8
:1021A000B091D8058093BF059093C005A093C10559
:1021B000B093C2052FB7F89480913C0690913D06EC
:1021C000A0913E06B0913F062FBF8093D505909316
:1021D000D605A093D705B093D80508958091050141
:1021E000882309F4B6CF13C060E170E0BDCF9091B1
:1021F000C805992309F4BECF2093AC06BBCF8091CC
:10220000AC06281709F4B9CF1092CD05B6CF80914E
:10221000F4058093F2058091F5058093F3050E9403
:102220003E100E940E100E94170A8091CD0590E08A
:102230003091AC062091F605321303C060E470E0E3
:1022400002C060E170E00E94612B8093CD053217DF
:1022500029F09091C80591112093AC068F7029F454
:102260008091AC0628131092CD058091CD058F5F2B
:102270008F730E94081E8CCF8091CC0581118ACF6C
:10228000911104C08091050181110CC08091CD0590
:102290008F730E94081E0E943E100E940E100E9422
:1022A000170A14C08091F4058093F2058091F5051A
:1022B0008093F3050E943E100E940E100E94170AA0
:1022C0008091CD058F5F8F730E94C71B8091CD05D4
:1022D0008F5F8093CD055ECFCF92DF92EF92FF921A
:1022E0000F931F93CF93DF938091CC058111AFC0E3
:1022F0000E943210182F81E00E943210C82FD0E0C7
:10230000C10FD11D82E00E943210C80FD11D83E0A1
:102310000E943210C80FD11D84E00E943210C80FF5
:10232000D11D85E00E943210C80FD11D86E00E94A9
:102330003210C80FD11D87E00E943210C80FD11D86
:1023400088E00E943210C80FD11D89E00E9432102F
:10235000C80FD11D8AE00E943210C80FD11D8BE03A
:102360000E943210C80FD11D8CE00E943210C80F9D
:10237000D11D8DE00E943210C80FD11D8EE00E9449
:102380003210C80FD11D8FE00E943210C80FD11D2E
:10239000CD2B09F45CC0D090F205C090F3058EED12
:1023A000E82E85E0F82EC0E08C2F0E943210482FD6
:1023B000282F30E0F701808190E0B901660F771F88
:1023C000660F771F0E94612B8C018083442359F094
:1023D000220F331F9927821793072CF041E060E00A
:1023E0008C2F0E949A0A0F5FF70101937F018C2FB7
:1023F0000E94CD0A8823F1F08C2F0E940210D82F62
:102400008C17C1F084E0D89FF0011124E054F94FFB
:10241000808180FD0FC08C2F0E943210811115C069
:102420008D2F0E94321061E081110FC041E08D2F8D
:102430000E949A0ACF5FC03109F0B6CF0E94170AF6
:10244000D092F205C092F30502C060E0EFCFDF91B9
:10245000CF911F910F91FF90EF90DF90CF90089553
:102460000F931F93CF93C82F84E0C89F800111243E
:102470000054194F20E047E064E0F80183810E9496
:102480005C1C2C2F43E060E00E945C1CF8018383FD
:1024900060E48C2F0E94062060E88C2F0E940620AA
:1024A00060E28C2F0E94062060E18C2FCF911F915B
:1024B0000F910C9406201F93CF93DF9390E0FC01C3
:1024C000EE0FFF1FEE0FFF1FE054F94FC281D0E067
:1024D0002091AC0639E0389FF001399FF00D1124AE
:1024E00080E9289FE00DF11D1124E95EFE4F108563
:1024F000812F0E94C31B682F70E06F5F7F4FCE015A
:102500000E94612B660F771F21E030E0089714F4DA
:1025100020E030E0EB01C20FD31F812F0E94BF1BD0
:10252000682F70E06F5F7F4F660F771FCE010E94AC
:10253000612BDF91CF911F910895EF92FF920F933E
:102540001F93CF93DF93E82EC091AC06082F10E0C5
:1025500080E9C89FE001112489E0E89EC00DD11DEB
:102560001124C95EDE4F88850E94C31BF82E8E2D74
:102570000E945B12C80FD11D000F111F000F111F09
:10258000F801E054F94F828190E06F2D70E06F5FA9
:102590007F4F0E94612B9C012770332781E090E0E0
:1025A00001C0880F2A95EAF79881890F8883DF9107
:1025B000CF911F910F91FF90EF9008958091D405D6
:1025C000882309F472C0E8988BE595E19093140193
:1025D00080931301E998909316018093150110924E
:1025E000D30520911201822F90E0A0E0B0E09C0181
:1025F000AD01285231094109510960E57FEC8EEFA8
:102600009FEF0E94312B28EC30E040E050E00E9428
:10261000AA29BA01A901485B54496E4F7F4F80E156
:102620008093810010928000E3E0440F551F661FE5
:10263000771FEA95D1F74115510588E068077105C4
:1026400068F482E08093F105DB01CA0133E0B695BE
:10265000A795979587953A95D1F70CC083E080931D
:10266000F105DB01CA0126E0B695A79597958795F8
:102670002A95D1F79093F0058093EF058091EF05AF
:102680009091F00590938700809386008091F105EA
:102690008061809381008BE890E19093F8058093AE
:1026A000F70581E080936F001FC010926F0081E0FA
:1026B0008093D3058BE890E19093140180931301EC
:1026C000809169008C7F816080936900E89A81E540
:1026D00090E1909316018093150180916900837FAA
:1026E000846080936900E99A0C9451100F931F93B2
:1026F000CF93C82F8091DC050C2F10E0882391F038
:10270000F801EE0FFF1FEE0FFF1FE054F94F80811D
:1027100081FF08C08C2F0E94F21C811103C08C2FF6
:102720000E949D128C2F0E94F21C382F000F111F47
:10273000000F111FF801E054F94F908196FF02C07D
:1027400031110EC0F801E054F94F908192FF02C0A0
:1027500021E0322790FD30E091FF12C031E010C03F
:102760000E94532922E030E040E050E00E94AA2974
:1027700031E0161617061806190624F330E0E2CFEA
:10278000832FCF911F910F9108951F93CF93DF93C4
:10279000C82F893119F481E00E9419208091B30675
:1027A00020EF2C0F80FF32C02830E8F56091AC0696
:1027B00020E9629FB001112420E9C29FC0011124C9
:1027C00020E030E0EB01C20FD31FD901A80FB91FE1
:1027D00040E050E0FE01E40FF51FE95EFE4F10817E
:1027E000FA01EA0FFB1FE95EF7401083475F5F4F76
:1027F0004039510579F72F5F3F4F2930310511F7E7
:1028000081E0DF91CF911F910C945D18283058F42E
:102810004091AC0650E08C2F90E040974817590744
:1028200011F02093F605DF91CF911F910895AF929B
:10283000BF92CF92DF92EF92FF920F931F93CF93AD
:10284000DF938091CA0581110EC08091DD05DF9173
:10285000CF911F910F91FF90EF90DF90CF90BF909D
:10286000AF900C94CC1C8130C1F4E091DD0580E97F
:10287000E89FF0011124E95EFE4F80E09FE017829F
:10288000168215821482138212821182108290871E
:102890008F5F3996803199F7E5C0823009F0C9C061
:1028A0001091DD050E94E20AC0E06C2F8DE00E94CD
:1028B000661861E00E942A0ACF5FCA30B1F718306B
:1028C000B8F480910601282F30E0012E02C0359522
:1028D00027950A94E2F720FF22C021E030E0012E84
:1028E00001C0220F0A94EAF7821B8093060117C0E9
:1028F0008091D105912F9770282F30E0092E02C0CA
:10290000359527950A94E2F720FF09C021E030E0D1
:1029100001C0220F9A95EAF7821B8093D10560913E
:10292000060183E090E00E94941F6091D10584E04D
:1029300090E00E94941F0E94342084EC94E0189F41
:10294000E001199FD00D112468E7CE010A960E947C
:10295000941F61E0CE010B960E94941F61E0CE01AE
:102960000C960E94941F61E0CE010D960E94941F68
:102970007E018EE0E80EF11C00E060E0C7010E94DD
:10298000941F60E0C70140960E94941F202F43E0EF
:1029900060E080E00E945C1C682FC70180960E9466
:1029A000941F0F5F8FEFE81AF80A003131F7E12C1E
:1029B000F12C39E0C32ED12CEE9640E9A42EB12C97
:1029C000C701409624E0969587952A95E1F7B601D0
:1029D0000E944D2B892B11F060E001C06FE0CE0109
:1029E0008E0D9F1D0E94941FC701B5010E944D2BA3
:1029F000862F61E0805F0E942A0A0E9434208FEFB8
:102A0000E81AF80A80E8E81684E0F806C9F60E9499
:102A1000C10B8091D005181325C0DF91CF911F9174
:102A20000F91FF90EF90DF90CF90BF90AF900C94FC
:102A3000E80B833071F48091DD05DF91CF911F9118
:102A40000F91FF90EF90DF90CF90BF90AF900C94DC
:102A50003012843039F4C0E08C2F0E943012CF5FE6
:102A6000C031D1F7DF91CF911F910F91FF90EF907F
:102A7000DF90CF90BF90AF9008958093DB05609377
:102A8000CA054093DD0580910401811102C00C94B8
:102A9000171488E70C94B21C90910701992349F010
:102AA0008CEF890F833028F081E0973019F080E0B7
:102AB000089581E008950895CF92DF92EF92FF92FA
:102AC0000F931F93CF93DF936C017A018B01C0E0CA
:102AD000D0E0CE15DF0581F0D8016D918D01D601D2
:102AE000ED91FC910190F081E02DC6010995892BB3
:102AF00011F02196EECF7E01C701DF91CF911F919A
:102B00000F91FF90EF90DF90CF90089585ED809327
:102B1000BC008091BC0084FDFCCF10928806089513
:102B200040911906262F30E0240F311D2132310546
:102B3000DCF4209188062430C9F4FC0180E090E0A8
:102B4000861758F4309119062191DC01A750BA4F2D
:102B5000A30FB11D2C930196F3CF80911906680F36
:102B60006093190680E0089581E0089582E0089559
:102B7000089508950895E091410680914006E81770
:102B800030F4F0E0EE5BF94F808190E008958FEF34
:102B90009FEF08959091410680914006981750F458
:102BA000E92FF0E0EE5BF94F208130E09F5F9093DA
:102BB000410602C02FEF3FEFC90108958091400602
:102BC00090E020914106821B91090895CF92DF92F7
:102BD000EF92FF920F931F93CF93DF937C01CB0172
:102BE0008A0120918906222389F0EB016B01C40E32
:102BF000D51ECC15DD0569F06991D701ED91FC91E9
:102C00000190F081E02DC7010995F3CF642F0E9458
:102C10009015C801DF91CF911F910F91FF90EF9018
:102C2000DF90CF900895CF93DF931F92CDB7DEB79B
:102C30006983209189062223D1F02091AB062032AE
:102C400040F021E030E0FC013383228380E090E01B
:102C500015C080918A06E82FF0E0E557F94F998179
:102C600090838F5F80938A068093AB0605C061E0F6
:102C7000CE0101960E94901581E090E00F90DF91C7
:102C8000CF910895089580E090E008950E947B2BF5
:102C90001F920F920FB60F9211242F933F934F93D1
:102CA0005F936F937F938F939F93AF93BF93EF93B4
:102CB000FF93E0911501F09116010995FF91EF91B5
:102CC000BF91AF919F918F917F916F915F914F9144
:102CD0003F912F910F900FBE0F901F9018951F924C
:102CE0000F920FB60F9211242F933F934F935F9340
:102CF0006F937F938F939F93AF93BF93EF93FF93C4
:102D0000E0911301F09114010995FF91EF91BF91AA
:102D1000AF919F918F917F916F915F914F913F9173
:102D20002F910F900FBE0F901F9018951F920F922A
:102D30000FB60F9211242F933F934F935F936F938E
:102D40007F938F939F93AF93BF93EF93FF93809164
:102D5000B4059091B5058093B2008091B70590912C
:102D6000B805A091B905B091BA050196A11DB11D94
:102D70008093B7059093B805A093B905B093BA05B1
:102D80008091B7059091B805A091B905B091BA05A9
:102D90004091B0055091B1056091B2057091B305B5
:102DA00084179507A607B70710F18091B605811122
:102DB0001EC081E08093B6058091B7059091B8055B
:102DC000A091B905B091BA05841B950BA60BB70B62
:102DD0008093B7059093B805A093B905B093BA0551
:102DE000E091AE05F091AF0509951092B605FF91FF
:102DF000EF91BF91AF919F918F917F916F915F9173
:102E00004F913F912F910F900FBE0F901F901895EB
:102E10001F920F920FB60F9211242F933F934F934F
:102E20005F936F937F938F939F93AF93BF93EF9332
:102E3000FF938091B900887F803609F49CC068F5C3
:102E4000883209F45BC090F4803109F454C038F43E
:102E5000882309F4F6C0883009F44DC0F6C08831E3
:102E600009F44CC0803209F45DC0EFC0803409F42D
:102E700068C048F4803309F455C0883309F0E5C0D0
:102E800080938606D8C0803509F44FC0883509F490
:102E90005DC0883409F0D9C0D6C0883909F4C7C0EC
:102EA000A8F4883709F467C038F4883609F463C099
:102EB000803709F460C0C9C0883809F4B8C08039C7
:102EC00009F45FC0803809F0C0C05BC0803B09F4E2
:102ED00086C038F4803A09F466C0883A09F47FC0A5
:102EE000B4C0803C09F4A7C0883C09F4A4C0883B66
:102EF00009F48AC0AAC08091630610C0909185062B
:102F000080918406981770F5E091850681E08E0F18
:102F100080938506F0E0EC59F94F80818093BB00E7
:102F200085EC86C0809386068EC0E091850681E0A0
:102F30008E0F809385068091BB00F0E0EC59F94F2D
:102F4000808390918506809184066EC0E09185060D
:102F500081E08E0F809385068091BB00F0E0EC59F4
:102F6000F94F80838091870681116DC081E0809345
:102F7000620684EA61C083E08093880610923B0673
:102F8000CFCF80913B06803208F051C0E0913B06E4
:102F900081E08E0F80933B068091BB00F0E0E55E00
:102FA000F94F8083BDCF85EC8093BC0010928806DA
:102FB00080913B06803230F4E0913B06F0E0E55E24
:102FC000F94F108260913B0670E0E091BB05F091F3
:102FD000BC058BE196E0099510923B0636C084E073
:102FE0008093880610921A0610921906E091BD058A
:102FF000F091BE05099580911906811105C081E007
:10300000809319061092F905E0911A0681E08E0F5F
:1030100080931A06F0E0E750FA4F80818093BB005E
:1030200090911A0680911906981708F479CF85E8CF
:103030008093BC000AC085EC8093BC001092880687
:1030400004C0109286060E948615FF91EF91BF91F1
:10305000AF919F918F917F916F915F914F913F9130
:103060002F910F900FBE0F901F9018951F920F92E7
:103070000FB60F9211242F933F934F935F936F934B
:103080007F938F939F93AF93BF93EF93FF93E091C1
:10309000F705F091F8050995FF91EF91BF91AF9178
:1030A0009F918F917F916F915F914F913F912F9160
:1030B0000F900FBE0F901F9018959091B306292F77
:1030C000282319F0981B9093B30608958035F1F0EA
:1030D0008A3509F438C1843609F46AC18E36A1F400
:1030E000662309F4F0C1613009F4EFC1623009F4DC
:1030F000EEC1633009F4EDC1643009F4ECC1653010
:1031000009F4EBC189E0089581111DC0662309F41B
:10311000E6C1613009F4E5C1623009F4E4C163300D
:1031200009F4E3C1643009F4E2C1653009F4E1C196
:10313000663009F4E0C1673009F4DFC1683009F096
:10314000DEC18DE008958230E1F4662309F4D9C12F
:10315000613009F4D8C1623009F4D7C1633009F491
:10316000D6C1643009F4D5C1653009F4D4C16630E4
:1031700009F4D3C1673009F4D2C1683009F0D1C174
:1031800008958330E9F4662309F4CDC1613009F470
:10319000CCC1623009F4CBC1633009F4CAC16430D8
:1031A00009F4C9C1653009F4C8C1663009F4C7C162
:1031B000673009F4C6C1683009F0C5C189E00895D7
:1031C0008D30B9F4662309F4C0C1613009F4BFC180
:1031D000623009F4BEC1633009F4BDC1643009F442
:1031E000BCC1653009F4BBC1663009F0BAC18FE0DB
:1031F00008958930B9F4662309F4B5C1613009F442
:10320000B4C1623009F4B3C1633009F4B2C16430AF
:1032100009F4B1C1653009F4B0C1663009F4AFC139
:1032200084E008958B30B9F4662309F4AAC16130B3
:1032300009F4A9C1623009F4A8C1633009F4A7C137
:10324000643009F4A6C1653009F4A5C1663009F0FF
:10325000A4C187E008958A30E9F4662309F49FC188
:10326000613009F49EC1623009F49DC1633009F4F4
:103270009CC1643009F49BC1653009F49AC1663081
:1032800009F499C1673009F498C1683009F497C10D
:103290008DE008958430E9F4662309F492C1613029
:1032A00009F491C1623009F490C1633009F48FC10F
:1032B000643009F48EC1653009F48DC1663009F4BB
:1032C0008CC1673009F48BC1683009F08AC18BE08A
:1032D00008958530D1F4662309F485C1613009F47D
:1032E00084C1623009F483C1633009F482C164305F
:1032F00009F481C1653009F480C1663009F47FC1E9
:10330000673009F07EC182E008958730D1F46623EA
:1033100009F479C1613009F478C1623009F477C1E8
:10332000633009F476C1643009F475C1653009F47D
:1033300074C1663009F473C1673009F072C188E066
:1033400008958830A1F4662309F46DC1613009F451
:103350006CC1623009F46BC1633009F46AC1643036
:1033600009F469C1653009F068C18EE008958C30B8
:10337000E9F4662309F463C1613009F462C1623083
:1033800009F461C1633009F460C1643009F45FC1BC
:10339000653009F45EC1663009F45DC1673009F437
:1033A0005CC1683009F05BC18BE008958130E9F4BD
:1033B000662309F456C1613009F455C1623009F43D
:1033C00054C1633009F453C1643009F452C165300B
:1033D00009F451C1663009F450C1673009F44FC196
:1033E000683009F04EC18EE008958E30E9F466230E
:1033F00009F449C1613009F448C1623009F447C198
:10340000633009F446C1643009F445C1653009F4FC
:1034100044C1663009F443C1673009F442C16830E1
:1034200009F041C187E008958F30B9F4662309F4AB
:103430003CC1613009F43BC1623009F43AC16330E8
:1034400009F439C1643009F438C1653009F437C171
:10345000663009F036C187E008958630B9F46623F6
:1034600009F431C1613009F430C1623009F42FC16F
:10347000633009F42EC1643009F42DC1653009F4BC
:103480002CC1663009F02BC182E00895662309F44F
:1034900028C1613009F427C1623009F426C16330C4
:1034A00009F425C1643009F424C1653009F423C14D
:1034B000663009F422C1673009F421C1683009F48B
:1034C00020C18EE0089587E0089583E0089582E0AA
:1034D000089588E008958CE008958DE0089583E0D4
:1034E000089582E0089581E0089584E0089585E0DC
:1034F00008958AE008958BE008958EE008958CE0A9
:10350000089580E0089581E0089585E0089589E0B8
:1035100008958DE008958EE008958AE0089586E08C
:10352000089583E008958FE008958AE0089587E084
:10353000089582E0089581E0089580E0089584E090
:10354000089588E008958CE0089585E0089586E068
:1035500008958AE0089589E0089580E0089583E061
:1035600008958CE0089581E0089582E0089587E051
:1035700008958BE008958EE008958DE0089588E029
:10358000089580E0089584E0089589E008958DE02D
:1035900008958EE008958AE0089583E008958CE010
:1035A000089588E0089584E0089580E0089581E01A
:1035B000089582E0089587E008958BE008958EE0F5
:1035C00008958CE0089588E0089584E0089580E0EF
:1035D000089585E0089586E0089583E0089587E0E2
:1035E00008958FE008958AE0089589E008958CE0B9
:1035F000089588E0089584E0089580E0089581E0CA
:10360000089583E0089589E008958AE0089587E0A9
:10361000089582E0089581E0089580E0089584E0AF
:1036200008958CE0089580E0089584E0089588E08E
:1036300008958CE008958DE008958FE008958CE062
:10364000089588E0089589E0089584E0089581E070
:10365000089582E0089587E008958AE008958FE054
:10366000089583E0089582E0089581E0089580E060
:10367000089584E0089588E008958CE008958DE031
:1036800008958FE0089580E0089584E0089588E02B
:1036900008958CE0089589E008958AE008958FE008
:1036A00008958BE0089583E0089580E0089584E014
:1036B000089588E008958DE008958EE008958BE0E8
:1036C000089583E008958FE008958EE008958DE0D9
:1036D000089588E0089584E0089581E0089583E0E6
:1036E00008958DE0089589E0089585E0089584E0C7
:1036F000089581E0089582E0089587E0089586E0C6
:1037000008958AE00895CF93DF93E0E090E070E0C1
:1037100050E0461B570BA82FB0E081E02E2F30E081
:1037200042175307B4F0260F371FED01022E02C0D7
:10373000D595C7950A94E2F7C0FF07C0F82F01C0DE
:10374000FF0F2A95EAF72F2F01C020E0920FEF5FBD
:10375000E5CF892F90E002C0959587956A95E2F7AD
:10376000DF91CF91089547E064E08091C3050C9408
:10377000831B43E062E08091C3050C94831B45E00A
:1037800064E00C94831B43E060E00C94831B8F92F5
:103790009F92AF92BF92CF92DF92EF92FF920F93E0
:1037A0001F93CF93DF93D82E8091F6059091AC06AE
:1037B000981729F09091C80591118093AC069D2D22
:1037C0009F7079F49091AC06891759F08093AC06FC
:1037D000E0ECF6E01282349687E0E030F807D1F7AB
:1037E000D12CC0ECD6E000E010E089E0B82E90E9E2
:1037F000A92EED2CF12CC02ED11003C0888185FD9F
:1038000059C08091AC06B09EF001B19EF00D11241C
:10381000A89EE00DF11D1124E95EFE4F9084892DD4
:103820000E94BF1B882E892D0E94C31BEA81F0E0F5
:10383000482D50E04F5F5F4F282F30E02F5F3F4F04
:10384000429FB001439F700D529F700D1124CF0114
:103850000E94612B8A8347E066E0892D0E94831BCA
:10386000682F70E06F5F7F4FC7010E94612B892B2B
:1038700039F4888187FD04C08C2D0E94761301C025
:1038800080E040E0682F8C2D0E949A0A0F5F1F4F46
:1038900024960031110509F0AECFDF91CF911F9131
:1038A0000F91FF90EF90DF90CF90BF90AF909F90DF
:1038B0008F9008951A82A5CFCF9330E070E050E04A
:1038C000461B570BC1E0E32FF0E04E175F07B4F043
:1038D000E60FF71FA82FB0E00E2E02C0B595A795F2
:1038E0000A94E2F7A0FF06C09C2F01C0990FEA9549
:1038F000EAF701C090E0891B3F5FE5CF01C0220FCE
:103900006A95EAF7820FCF910895282F47E064E087
:103910008091C3050E945C1C8093C3050895282FE5
:1039200043E062E08091C3050E945C1C8093C30564
:1039300008950F931F93CF9300EC16E0C0E060E072
:103940008C2F0E94FE0FF801808182FF02C08450FC
:103950008083CF5F0C5F1F4FC03189F7CF911F91DC
:103960000F910895909107019817A9F01092CF0533
:10397000809307010E94991C80E00E94851CE0EC66
:10398000F6E0808183FF02C088508083349687E010
:10399000E030F807B1F708959091AC0629E0829FD6
:1039A000A001112420E9929F400D511D112420E017
:1039B00030E0E82FF0E0D901A40FB51FA95EBE4F9B
:1039C0001C922F5F3F4F28303105A9F7EE0FFF1FE4
:1039D000EE0FFF1FE054F94F808180FF02C081503D
:1039E00080830895DF92EF92FF920F931F93CF93FE
:1039F000DF93E090AC06F12C082F10E00E945B12E0
:103A0000D82E89E0809FE001819FD00D112420E90C
:103A10002E9DC0012F9D900D1124C80FD91FC95E86
:103A2000DE4F88850E94C31B682FCD0DD11D2881D4
:103A300030E0000F111F000F111FF801E054F94F83
:103A4000828190E070E06F5F7F4F0E94612B8770F2
:103A50009927A90102C0559547958A95E2F7CA01B1
:103A60008170DF91CF911F910F91FF90EF90DF90C8
:103A700008950F931F93CF93DF93C82F062F0E94B3
:103A8000CD0A811116C01091F205D091F305109264
:103A9000F3051092F20561E0011101C060E040E021
:103AA0008C2F0E949A0A0E94170A1093F205D09355
:103AB000F305DF91CF911F910F910895282F309139
:103AC000AB06313208F04AC0809188068111FCCFE4
:103AD0009091B20642E040938806209387062FEF2C
:103AE000209386061092850630938406EBE8F6E074
:103AF000A4E6B6E020E0321721F041914D932F5F0C
:103B0000FACF1092630620916306990F922B90933F
:103B1000630690916206913061F410926206909172
:103B200063069093BB009091BC0093FDF8CF95EC99
:103B300001C095EE9093BC00909188069230E1F31D
:103B4000909186069F3F79F080918606803241F001
:103B500080918606803331F084E005C081E003C0A7
:103B600082E001C083E010928A061092AB061092A8
:103B700089060895833081F028F4813099F08230ED
:103B8000A1F008958730A9F08830B9F08430D1F4DD
:103B9000809180008F7D03C0809180008F7780931B
:103BA0008000089584B58F7702C084B58F7D84BD71
:103BB00008958091B0008F7703C08091B0008F7D11
:103BC0008093B00008953FB7F8948091AE0690912D
:103BD000AF06A091B006B091B10626B5A89B05C06E
:103BE0002F3F19F00196A11DB11D3FBFBA2FA92F7C
:103BF000982F8827820F911DA11DB11DBC01CD01F9
:103C000042E0660F771F881F991F4A95D1F70895E4
:103C10009F92AF92BF92CF92DF92EF92FF920F935B
:103C20001F93CF93DF9300EC16E0C0E0D0E099E063
:103C3000D92E20E9C22EE82EF12C9C2E8091AC06C4
:103C4000DC9EF001DD9EF00D1124C89EE00DF11DFB
:103C50001124E95EFE4F47E066E080850E94831BE9
:103C6000682F70E06F5F7F4FC7010E94612B5C017E
:103C7000F8018081807921F08C2F0E94761301C099
:103C800080E040E0682F892D0E949A0AAB2821F439
:103C9000F80182818F5F828321960C5F1F4FC031B4
:103CA000D10559F6DF91CF911F910F91FF90EF90C1
:103CB000DF90CF90BF90AF909F900895CF93DF9308
:103CC000EC0181E08093890680E58093B206109232
:103CD0008A061092AB068D2F90E00E941420CE0130
:103CE00099270E94142081E00E945E1D8091880621
:103CF0008111FCCF81E080938806809387069FEF37
:103D0000909386061092850610928406809363062F
:103D100080916306806A8093630680916206813099
:103D200061F410926206809163068093BB008091DB
:103D3000BC0083FDF8CF85EC01C085EE8093BC000C
:103D4000809188068130E1F380918506811103C05E
:103D50009091850601C091E0A4E6B6E0E2E4F6E0C9
:103D600080E0891721F02D9121938F5FFACF109277
:103D7000410680934006882329F084EB96E00E9458
:103D8000CA1501C08FEFDF91CF910895CF93DF93D4
:103D9000282F30E0F901E255FF4F8491F901E656F2
:103DA000FF4FD491F901EA57FF4FC491CC2391F012
:103DB00081110E94BA1DEC2FF0E0EE0FFF1FE458B6
:103DC000FF4FA591B491EC91ED2381E090E021F4B7
:103DD00080E002C080E090E0DF91CF9108951F93D2
:103DE000CF93DF93282F30E0F901E255FF4F849104
:103DF000F901E656FF4FD491F901EA57FF4FC491FC
:103E0000CC23C1F0162F81110E94BA1DEC2FF0E0D7
:103E1000EE0FFF1FEE58FF4FA591B4919FB7F89496
:103E2000111104C08C91D095D82302C0EC91DE2BE7
:103E3000DC939FBFDF91CF911F910895CF93DF93C4
:103E400090E0FC01E656FF4F2491FC01EA57FF4F3A
:103E50008491882361F190E0880F991FFC01E85953
:103E6000FF4FC591D491FC01EE58FF4FA591B4913D
:103E7000611109C09FB7F8948881209582238883B7
:103E8000EC912E230BC0623061F49FB7F8948881C7
:103E9000322F309583238883EC912E2B2C939FBF58
:103EA00006C08FB7F894E8812E2B28838FBFDF914F
:103EB000CF9108958F929F92AF92BF92CF92DF924F
:103EC000EF92FF926B017C010E94E31D4B015C01AC
:103ED000C114D104E104F104F1F00E94E31DDC01FE
:103EE000CB0188199909AA09BB09883E9340A1050D
:103EF000B10570F321E0C21AD108E108F10888EE9B
:103F0000880E83E0981EA11CB11CC114D104E104E9
:103F1000F10419F7DDCFFF90EF90DF90CF90BF90C5
:103F2000AF909F908F9008951F93CF93DF93EC01F4
:103F3000162F81E08093890680E58093B206109267
:103F40008A061092AB068D2F90E00E941420CE01BD
:103F500099270E941420612F84EB96E00E9413168B
:103F600081E00E945E1D65E070E080E090E0DF91FE
:103F7000CF911F910C945A1F1F920F920FB60F9260
:103F800011242F933F938F939F93AF93BF9380916F
:103F90003C0690913D06A0913E06B0913F063091BF
:103FA000AD0623E0230F2D3720F40196A11DB11D8E
:103FB00005C026E8230F0296A11DB11D2093AD0672
:103FC00080933C0690933D06A0933E06B0933F0637
:103FD0008091AE069091AF06A091B006B091B10667
:103FE0000196A11DB11D8093AE069093AF06A093DC
:103FF000B006B093B106BF91AF919F918F913F9161
:104000002F910F900FBE0F901F90189524E0829F64
:10401000C0011124FC01E054F94F8081982F9623B0
:1040200011F0861B80830895682F84EB96E00C9432
:1040300013169091B306292F282319F4890F809322
:10404000B3060895442369F094E0899FF001112498
:10405000E054F94F8081982F962329F4680F6083EC
:1040600008950C9406200895CF93DF935F98C4ECD5
:10407000D5E0488168E086E00E948C00498168E0D4
:1040800086E00E948C004A8168E086E00E948C00F5
:104090004B8168E086E00E948C005F9ADF91CF91AF
:1040A0000895789484B5826084BD84B5816084BDB0
:1040B00085B5826085BD85B5816085BD80916E00C6
:1040C000816080936E0010928100809181008260F7
:1040D0008093810080918100816080938100809134
:1040E00080008160809380008091B1008460809323
:1040F000B1008091B00081608093B00080917A001F
:10410000846080937A0080917A00826080937A0044
:1041100080917A00816080937A0080917A00806833
:1041200080937A001092C10080E480937C0080919B
:104130007A00806480937A0080917A0086FDFCCFBB
:10414000609178008091790070E0782B072E000C48
:10415000880B990B611571058105910511F00E947D
:10416000A12983E090E0A0E0B0E08093B0059093B7
:10417000B105A093B205B093B3058CE691E190939D
:10418000AF058093AE05809170008E7F80937000A4
:104190008091B0008C7F8093B0008091B100877FC8
:1041A0008093B1008091B6008F7D8093B60080919E
:1041B00070008D7F809370008091B1008460809347
:1041C000B1008091B1008C7F8093B10086E090E0D7
:1041D0009093B5058093B4051092B7051092B80579
:1041E0001092B9051092BA051092B6058091B405E7
:1041F0009091B5058093B2008091700081608093AA
:104200007000109241061092400610928A06109299
:10421000AB061092880681E08093870610926206B2
:1042200061E082E10E94EF1E61E083E10E94EF1EE7
:104230008091B9008E7F8093B9008091B9008D7F05
:104240008093B90088E48093B80085E48093BC0033
:1042500088EB95E19093BE058093BD0589EB95E1D0
:104260009093BC058093BB05579A209A84B58F77AD
:1042700084BD8FB7F89456985E988FBF219A229A82
:104280008091B0008F778093B0008FB7F894239817
:104290002B988FBF3B9A3A9A8FB7F89439984198E8
:1042A0008FBF8FB7F89452985A9A8FBF8091B00001
:1042B0008F7D8093B0008FB7F89453985B9A8FBF2F
:1042C0000E9434200E94170A0E94CF0080E090E0F4
:1042D0000E945E1E8E3211F00E94420E82E090E03B
:1042E0000E945E1E8093D0050E94E80BC0E061E052
:1042F0008C2F0E942A0A0E9434206FE070E080E038
:1043000090E00E945A1FCF5FC83189F701E07724FF
:10431000739410E990E0A92E90E0B92E8091B30635
:1043200083FD96C68091D2058F738093D2058091CC
:10433000D305882309F440C02FB7F89480913C0638
:1043400090913D06A0913E06B0913F062FBFC090D0
:10435000D505D090D605E090D705F090D805BC01E2
:10436000CD016C197D098E099F090E94122A1B013B
:104370002C018091BF059091C005A091C105B0911D
:10438000C205A7019601281B390B4A0B5B0BCA011A
:10439000B9010E94122A26E636E646E65FE30E944D
:1043A000732A9B01AC01C201B1010E940D2AD82ED3
:1043B000DD1CDD24DD1C01C0D12CD092DA050E9469
:1043C000E20AC0910701C83711F5C0E06C2F8DE0FB
:1043D0000E94661861E00E942A0ACF5FCA30B1F7D6
:1043E0008091D2058F7190E0C1E040970CF0C0E061
:1043F0006C2F84E10E942A0A6C2F85E10E942A0A10
:104400006C2F86E10E942A0A6C2F87E112C68091E8
:10441000B30681FF6FC0CF3009F44AC0C0E0D0E0DE
:104420006091060170E00C2E02C0759567950A94A4
:10443000E2F761708C2F0E942A0A6091D10570E02A
:104440000C2E02C0759567950A94E2F761708C2F67
:10445000885F0E942A0A2196C830D10509F7C091C9
:10446000D2058C2F8F7190E061E040970CF060E0F6
:104470008091D0050E942A0A61E080E10E942A0A08
:1044800061E081E10E942A0A61E082E10E942A0A39
:1044900041E060E08091C3050E94831BCF702C2F08
:1044A00030E061E0283031050CF060E0805F1DC035
:1044B000C0E06C2F85E00E9466182091D2052F7114
:1044C00030E061E0203131050CF060E00E942A0A02
:1044D000CF5FCA3071F761E088E10E942A0A61E08B
:1044E00089E10E942A0A61E08BE10E942A0A61E0C8
:1044F0008AE19FC582FF2FC0C03521F0CA3511F077
:10450000C43669F48091D205803248F484E1809306
:10451000CF0561E08091CE050E942A0A17C0D09194
:10452000CF05D53108F0D4E1D093CF05F12CDF15BC
:1045300051F06F2D66958C2F0E94661861E00E94E5
:104540002A0AF394F4CFDF5FD093CF050E94780B53
:1045500061E08BE16EC5E090CD058E2D83708230D9
:1045600020F4D091CC05D02701C0D0E0C23030F08B
:104570008C2F8F7D883011F0CC33F1F5F12C61E078
:104580008F2D0E942A0AF39450E1F512F8CF809102
:10459000CC05811106C06091CB058E2D8F700E94D5
:1045A0002A0ACC3319F0C83209F032C561E080E143
:1045B0000E942A0A61E081E10E942A0A61E082E108
:1045C0000E942A0A61E083E10E942A0AC83249F463
:1045D0008091D2058F7090E061E008971CF060E058
:1045E00001C061E084E10E942A0ACC3309F05AC07C
:1045F0008091D2058F702CC0C63481F5F090CE0525
:104600008F2D0E94021061E00E942A0AC091D205FB
:104610008C2F8F7190E061E040970CF060E08F2D5F
:104620000E942A0A61E080E10E942A0A61E081E199
:104630000E942A0A61E082E10E942A0A61E083E185
:104640000E942A0A61E084E10E942A0ACF708C2F1E
:1046500090E061E008973CF160E025C0C23369F565
:104660008091CE050E94321061E00E942A0A61E02A
:1046700080E10E942A0A61E081E10E942A0A61E049
:1046800082E10E942A0A61E083E10E942A0A809165
:10469000D2058F7090E061E008970CF060E084E153
:1046A0000E942A0A61E085E10E942A0A61E086E10F
:1046B0000E942A0A61E087E1A9C4CE3149F5C0E031
:1046C00061E08C2F0E942A0ACF5FC031C9F761E0F8
:1046D00080E10E942A0A61E081E10E942A0A61E0E9
:1046E00082E10E942A0A61E083E10E942A0A61E0D5
:1046F00084E10E942A0A61E085E10E942A0A8091F1
:10470000D2058F7090E061E008978CF260E0CFCF27
:10471000C43609F0A4C00E94B31B81111AC0E091F5
:10472000CE0584E0E89FF0011124E054F94F47E002
:1047300064E081810E94831BFF24F394F80EC0E0A3
:10474000CF1508F020C361E08C2F0E942A0ACF5FAA
:10475000F7CF8130D1F4E091CE0594E0E99FF001EC
:104760001124E054F94F43E060E081810E94831BF3
:10477000FF24F394F80EC0E0CF1508F004C361E005
:104780008C2F0E942A0ACF5FF7CF823001F5C0E05C
:1047900089E0F82E8091CE05E091AC061E9FF001D5
:1047A0001124F89EE00DF11D1124E95EFE4F808575
:1047B0000E94C31B90E02C2F30E0821793070CF46B
:1047C000E2C261E08C2F0E942A0ACF5FE3CF8330E0
:1047D00009F0D9C2C0E0B9E09B2EC090AC06D12C44
:1047E0008091CE05E82EF12C1C9DF0011D9DF00D51
:1047F0001124989EE00DF11D1124E95EFE4F808585
:104800000E94C31B90E02C2F30E0821793070CF41A
:10481000BAC241E050E0C83010F440E050E09E9C45
:10482000C0019F9C900D11241C9D90011D9D300D79
:104830001124820F931F895E9E4FFC01E40FF51F28
:10484000608170E08C2F877002C0759567958A959E
:10485000E2F761708C2F0E942A0ACF5FBECFC0356D
:1048600009F0E4C0E090CE058091AC068E2C912C2E
:10487000E9E0EE9E70011124F701189FE00DF11D93
:104880001124E95EFE4F80850E94C31B582EF4015F
:10489000EE0FFF1FEE0FFF1FE054F94F828190E0F3
:1048A000652D70E06F5F7F4F0E94612B662E5394E1
:1048B000C0E09F012E5F3F4F6901C51540F0C0E089
:1048C00089E0889D7001899DF00C112444C00E94EC
:1048D000B31B6091AC0670E090E0880F991F41E037
:1048E00050E0C83010F440E050E0169F9001179F50
:1048F000300D11242E0D3F1D295E3E4F820F931F58
:10490000FC01E40FF51F808190E02C2F277002C07E
:10491000959587952A95E2F7382F31702091CC052F
:10492000211112C080FF07C0F6018081652D0E9411
:10493000412BC91751F0F6018081652D0E94412B52
:10494000C91302C021E001C0232F622F8C2F0E94C7
:104950002A0ACF5FB2CF8091AC06F701189FE00D15
:10496000F11D1124E95EFE4F80850E94BF1B90E07F
:104970002C2F30E0821793073CF061E080E18C0F30
:104980000E942A0ACF5FE7CF8091B30680FF1FC045
:10499000C0E060E08C2F0E942A0ACF5FC031C9F7C7
:1049A000C0E06C2F8EE60E9466182091D2052F7110
:1049B00030E061E0203131050CF060E00E942A0A0D
:1049C000CF5FCA3071F761E089E10E942A0A0E9434
:1049D000B31B2091D2052F7030E061E02830310503
:1049E0000CF060E0805F0E942A0A611002C06D2F07
:1049F00001C060E084E10E942A0AF1E06F1202C067
:104A00006D2F01C060E085E10E942A0A22E0621257
:104A100002C06D2F01C060E086E10E942A0A33E0E7
:104A2000631611F060E047CE6D2F45CECA3509F010
:104A300060C0C0E069E0962EE090CE05F12C809138
:104A4000AC069E9C60019F9CD00C1124F601189F1F
:104A5000E00DF11D1124E95EFE4F80850E94C31B0D
:104A600090E02C2F30E08217930714F4C0E00CC0C4
:104A700061E08C2F0E942A0ACF5FDECF61E080E1E7
:104A80008C0F0E942A0ACF5F8091AC06F601189F16
:104A9000E00DF11D1124E95EFE4F80850E94BF1BD1
:104AA00090E02C2F30E08217930744F7C0E089E0B4
:104AB0008E9D60018F9DD00C11248091AC06F60173
:104AC000189FE00DF11D1124E95EFE4F47E066E0FE
:104AD00080850E94831B90E02C2F30E08217930783
:104AE0000CF496C261E084E18C0F0E942A0ACF5F29
:104AF000E4CFC930B9F4C0E0D0268C2F0E94F21C5C
:104B0000882311F06D2D01C061E08C2F0E942A0ACC
:104B1000CF5FC03191F761E080E10E942A0A61E035
:104B200081E13FC1CA3089F4C0E0D0268C2F0E94B9
:104B3000F21C882311F06D2D01C061E08C2F0E94C2
:104B40002A0ACF5FC03191F763C2C43011F550EC2F
:104B5000E52E56E0F52EC0E0D0268091D3058823BF
:104B600069F0F701808180FD07C08C2F0E94F21C44
:104B7000882321F06D2D03C060E001C061E08C2F1F
:104B80000E942A0ACF5FF4E0EF0EF11CC03129F732
:104B90003FC2C53099F440ECE42E46E0F42EC0E06C
:104BA000F7016081669561708C2F0E942A0ACF5FA1
:104BB000F4E0EF0EF11CC03199F72AC2C63049F477
:104BC000C0E061E08C2F0E942A0ACF5FC031C9F794
:104BD0001FC2CB3009F055C030ECE32E36E0F32E87
:104BE000C0E00E94B31B811106C0F701608165FB24
:104BF000662760F918C0813029F4F7016081629559
:104C0000617011C0823031F4F7016081661F662740
:104C1000661F09C0833031F4F701608166FB6627A7
:104C200060F901C060E08C2F0E942A0ACF5FF4E097
:104C3000EF0EF11CC031A9F661E080E10E942A0A62
:104C400061E081E10E942A0A61E082E10E942A0A71
:104C500061E083E10E942A0A61E084E10E942A0A5D
:104C600061E085E10E942A0A0E94B31B2091D205CF
:104C70002F7030E061E0283031050CF060E0805F9B
:104C800013CDC431F1F48091CA05813009F419C201
:104C9000823009F428C2833009F432C21092C70569
:104CA0001092C6051092C5051092C40583708093BA
:104CB000CA059091D2059111ABC18F5F8093CA054F
:104CC000A7C1C23009F052C0E12CF12C29E0C22E5C
:104CD000CE2D0E94B31B882311F0833021F48C2F3A
:104CE0000E94F21C36C0813089F1823089F58E2D08
:104CF0000E94F21C882311F0DD2051F18091AC0656
:104D0000CE9CF001CF9CF00D1124189FE00DF11DF9
:104D10001124E95EFE4F8081218130E0280F311D92
:104D20008281280F311D8381280F311D8481280F36
:104D3000311D8581280F311D8681280F311D878106
:104D4000280F311D81E0232B21F402C081E001C036
:104D500080E0682F8C2F0E942A0A2FEFE21AF20AB5
:104D600030E1E316F10409F0B3CF0DC0C33041F5D3
:104D7000C0E08C2F0E94F21C682F8C2F0E942A0A00
:104D8000CF5FC031B1F761E080E10E942A0A61E0A3
:104D900081E10E942A0A61E082E10E942A0A61E020
:104DA00083E10E942A0A0E94B31B2091D2052F7032
:104DB00030E061E0283031050CF060E0805F26C112
:104DC000CD3009F074C0E12CF12C99E0C92ECE2D24
:104DD0008E2D0E94F21C882311F0DD2039F1809184
:104DE000AC06CE9CF001CF9CF00D1124189FE00D75
:104DF000F11D1124E95EFE4F2081818190E0820F38
:104E0000911D2281820F911D2381820F911D24818A
:104E1000820F911D2581820F911D2681820F911D88
:104E20002781820F911D61E0892B09F460E08C2FAE
:104E30000E942A0A4FEFE41AF40A50E1E516F10441
:104E400031F687E1E82E81E0F82EC0E1F70120E19C
:104E500060E061111CC03081818190E0830F911D61
:104E60003281830F911D3381830F911D3481830F14
:104E7000911D3581830F911D3681830F911D3781DF
:104E8000830F911D61E0892B19F460E001C061E09E
:104E9000215039962111DDCF61708C2F0E942A0A92
:104EA000CF5F80E9E80EF11CC83181F6B1C0C73090
:104EB00009F04CC0C0E0D0260E94B91B880F880FB3
:104EC0008C0F94E0899FF0011124E054F94F9081F8
:104ED00093FD20C090FD06C00E94F21C882321F0A3
:104EE0006D2D03C060E001C061E08C2F0E942A0A92
:104EF0000E94B91B880F880F8C0F24E0829FF0015D
:104F00001124E054F94F60816695617084E08C0F44
:104F10000E942A0A0E94B91B880F880F8C0F34E068
:104F2000839FF0011124E054F94F608163FB6627F1
:104F300060F988E08C0F0E942A0ACF5FC43009F024
:104F4000BBCF0E94B91B61E0845F60C0CF30A9F580
:104F500061E08091D905811101C060E080E00E948C
:104F60002A0A61E08091C905811101C060E081E0F9
:104F70000E942A0A61E080910501811101C060E070
:104F800082E00E942A0A61E080910801811101C03B
:104F900060E083E00E942A0A61E0809104018111AF
:104FA00001C060E084E00E942A0A61E08091C805A7
:104FB000811101C060E085E029C0CC3049F58091C5
:104FC000D405882309F485C061E086E00E942A0A9E
:104FD00061E089E00E942A0A61E08AE00E942A0AD0
:104FE00061E08BE00E942A0A61E08EE00E942A0ABA
:104FF00061E085E10E942A0A61E086E10E942A0AB6
:1050000061E087E10E942A0A61E080E00E942A0AAA
:105010000E944C1581110E94780B80910701843108
:1050200051F08091D305811102C061E001C06D2F64
:1050300088E10E942A0A0E9434208091D2058F5F65
:105040008093D2056FE070E080E090E00E945A1FEC
:105050000E94CF008091D9058823F1F08091D50579
:105060009091D605A091D705B091D80588519C4F55
:10507000AF4FBF4F2FB7F89440913C0650913D067B
:1050800060913E0670913F062FBF84179507A607D3
:10509000B70710F40E9451108091D40581110AC005
:1050A00080910801882331F08091D305811102C0DD
:1050B0007092D305A114B10409F430C90E94000014
:1050C00028C99CEF9093C40596E69093C50592E39A
:1050D0001EC08091D2058F7190E061E040970CF482
:1050E00094CF60E092CF98E89093C40596E59093B2
:1050F000C50598EC9093C60594E49093C705D6CD6A
:1051000098EF9093C40596E49093C50592EF909321
:10511000C6059EE9F2CFCF93C82F0E94F21C8111E1
:105120000CC08C2F0E949D128091C905882329F004
:1051300061E08C2FCF910C94391DCF91089520916F
:105140001201822F90E0A0E0B0E09C01AD01285256
:1051500031094109510960E57FEC8EEF9FEF0E9414
:10516000312B28EC30E040E050E00E94AA29DA011F
:10517000C901885B9449AE4FBF4FAC01BD01E3E06C
:10518000440F551F661F771FEA95D1F7411551054A
:1051900088E06807710568F482E08093F105DB011F
:1051A000CA0133E0B695A795979587953A95D1F7BB
:1051B0000CC083E08093F105DB01CA0126E0B695BF
:1051C000A795979587952A95D1F79093F0058093A9
:1051D000EF058091EF059091F00590938700809303
:1051E00086008091F1058061809381000895E4EB51
:1051F000F6E01382128288EE93E0A0E0B0E08483B0
:105200009583A683B7838FE995E091838083089582
:105210008F929F92AF92BF92CF92DF92EF92FF92C6
:10522000CF93DF93EC01688179818A819B8161153D
:1052300071058105910521F464E279ED8BE597E034
:105240002DE133EF41E050E00E94AA2949015A01C3
:105250009B01AC01A7EAB1E40E94C9296B017C0162
:10526000ACEEB4EFA50194010E94D729DC01CB017B
:105270008C0D9D1DAE1DBF1DB7FF03C00197A10979
:10528000B04888839983AA83BB83BC01CD019F77F3
:10529000DF91CF91FF90EF90DF90CF90BF90AF90D4
:1052A0009F908F9008958F929F92AF92BF92CF92CE
:1052B000DF92EF92FF92609197057091980580912F
:1052C000990590919A05611571058105910521F463
:1052D00064E279ED8BE597E02DE133EF41E050E0BA
:1052E0000E94AA2949015A019B01AC01A7EAB1E435
:1052F0000E94C9296B017C01ACEEB4EFA5019401B9
:105300000E94D729DC01CB018C0D9D1DAE1DBF1D58
:10531000B7FF03C00197A109B04880939705909308
:105320009805A0939905B0939A05BC01CD019F778C
:10533000FF90EF90DF90CF90BF90AF909F908F90B5
:1053400008956093970570939805809399059093BD
:105350009A050895052E97FB1EF400940E94C1291A
:1053600057FD07D00E94DC2907FC03D04EF40C94B3
:10537000C12950954095309521953F4F4F4F5F4F34
:10538000089590958095709561957F4F8F4F9F4FB1
:1053900008950E94FE29A59F900DB49F900DA49F93
:1053A000800D911D11240895B7FF0C94C9290E9406
:1053B000C929821B930B0895A1E21A2EAA1BBB1BBD
:1053C000FD010DC0AA1FBB1FEE1FFF1FA217B307D1
:1053D000E407F50720F0A21BB30BE40BF50B661FE7
:1053E000771F881F991F1A9469F7609570958095AB
:1053F00090959B01AC01BD01CF010895A29FB00122
:10540000B39FC001A39F700D811D1124911DB29FF8
:10541000700D811D1124911D08950E944F2A08F4DA
:1054200081E00895E89409C097FB3EF4909580953B
:10543000709561957F4F8F4F9F4F9923A9F0F92F5A
:1054400096E9BB279395F695879577956795B795D8
:10545000F111F8CFFAF4BB0F11F460FF1BC06F5FBE
:105460007F4F8F4F9F4F16C0882311F096E911C0D0
:10547000772321F09EE8872F762F05C0662371F0F1
:1054800096E8862F70E060E02AF09A95660F771F05
:10549000881FDAF7880F9695879597F90895990FE1
:1054A0000008550FAA0BE0E8FEEF16161706E807EE
:1054B000F907C0F012161306E407F50798F0621B0F
:1054C000730B840B950B39F40A2661F0232B242BE4
:1054D000252B21F408950A2609F4A140A6958FEF03
:1054E000811D811D08950E94862A0C94F72A0E942E
:1054F000E92A38F00E94F02A20F0952311F00C944C
:10550000E02A0C94E62A11240C942B2B0E94082BE1
:1055100070F3959FC1F3950F50E0551F629FF00106
:10552000729FBB27F00DB11D639FAA27F00DB11D1F
:10553000AA1F649F6627B00DA11D661F829F2227A8
:10554000B00DA11D621F739FB00DA11D621F839F2F
:10555000A00D611D221F749F3327A00D611D231F05
:10556000849F600D211D822F762F6A2F11249F5753
:1055700050409AF0F1F088234AF0EE0FFF1FBB1F56
:10558000661F771F881F91505040A9F79E3F510515
:1055900080F00C94E02A0C942B2B5F3FE4F3983EB0
:1055A000D4F3869577956795B795F795E7959F5FBF
:1055B000C1F7FE2B880F911D9695879597F9089551
:1055C00097F99F6780E870E060E008959FEF80ECB6
:1055D000089500240A941616170618060906089559
:1055E00000240A9412161306140605060895092EBF
:1055F0000394000C11F4882352F0BB0F40F4BF2B2E
:1056000011F460FF04C06F5F7F4F8F4F9F4F08956D
:1056100057FD9058440F551F59F05F3F71F0479563
:10562000880F97FB991F61F09F3F79F08795089548
:10563000121613061406551FF2CF4695F1DF08C067
:10564000161617061806991FF1CF86957105610584
:1056500008940895E894BB2766277727CB0197F92C
:105660000895DB018F939F930E94C929BF91AF9149
:10567000A29F800D911DA39F900DB29F900D1124AC
:105680000895991B79E004C0991F961708F0961B9E
:10569000881F7A95C9F780950895AA1BBB1B51E115
:1056A00007C0AA1FBB1FA617B70710F0A61BB70B92
:1056B000881F991F5A95A9F780959095BC01CD0137
:1056C000089597FB072E16F4009407D077FD09D0B4
:1056D0000E944D2B07FC05D03EF4909581959F4F7D
:1056E0000895709561957F4F0895EE0FFF1F059007
:1056F000F491E02D099481E090E0F8940C94802BD3
:04570000F894FFCF4B
:10570400FFFFFFFF0101010401FFFFFFFFFFFFFF98
:10571400FF01785B155B1500000000000000000F1E
:1057240000000000000000000F0000000000000066
:10573400000F00000000000000000F000000000047
:105744000000000F00000000000000000F00000037
:1057540000000000000F00000000000000000F0027
:10576400000000000000000F000000000000000026
:105774000F00000000000000000F00000000000007
:1057840000000F00000000000000000F00000000F7
:10579400000000000F00000000000000000F0000E7
:1057A4000000000000000F00000000000000000FD7
:1057B40000000000000000000F00000000000000D6
:1057C400000F00000000000000000F0000000000B7
:1057D4000000000F00000000000000000F000000A7
:1057E40000000000000F00000000000000000F0097
:1057F400000000000000000F000000000000000096
:105804000F00000000000000000F00000000000076
:1058140000000F00000000000000000F0000000066
:10582400000000000F00000000000000000F000056
:105834000000000000000F00000000000000000F46
:1058440000000000000000000F0000000000000045
:10585400000F00000000000000000F000000000026
:105864000000000F00000000000000000F00000016
:1058740000000000000F00000000000000000F0006
:10588400000000000000000F000000000000000005
:105894000F00000000000000000F000000000000E6
:1058A40000000F00000000000000000F00000000D6
:1058B400000000000F00000000000000000F0000C6
:1058C4000000000000000F00000000000000000FB6
:1058D40000000000000000000F00000000000000B5
:1058E400000F00000000000000000F000000000096
:1058F4000000000F00000000000000000F00000086
:1059040000000000000F00000000000000000F0075
:10591400000000000000000F000000000000000074
:105924000F00000000000000000F00000000000055
:1059340000000F00000000000000000F0000000045
:10594400000000000F00000000000000000F000035
:105954000000000000000F00000000000000000F25
:1059640000000000000000000F0000000000000024
:10597400000F00000000000000000F000000000005
:105984000000000F00000000000000000F000000F5
:1059940000000000000F00000000000000000F00E5
:1059A400000000000000000F0000000000000000E4
:1059B4000F00000000000000000F000000000000C5
:1059C40000000F00000000000000000F00000000B5
:1059D400000000000F00000000000000000F0000A5
:1059E4000000000000000F00000000000000000F95
:1059F40000000000000000000F0000000000000094
:105A0400000F00000000000000000F000000000074
:105A14000000000F00000000000000000F00000064
:105A240000000000000F00000000000000000F0054
:105A3400000000000000000F000000000000000053
:105A44000F00000000000000000F00000000000034
:105A540000000F00000000000000000F0000000024
:105A6400000000000F00000000000000000F000014
:105A74000000000000000F00000000000000000F04
:105A840000000000000000000F0000000000000003
:105A9400000F00000000000000000F0000000000E4
:105AA4000000000F00000000000000000F000000D4
:105AB40000000000000F00000000000000000F00C4
:105AC400000000000000000F0000000000000000C3
:105AD4000F00000000000000000F000000000000A4
