:100000000C9462000C94180A0C9406090C948A0053
:100010000C948A000C948A000C948A000C948A0038
:100020000C948A000C948A000C948A000C948A0028
:100030000C948A000C946D0B0C948A000C948A002A
:100040000C94B91B0C948A000C948A000C948A00BE
:100050000C948A000C948A000C948A000C948A00F8
:100060000C943F0A0C948A00000000002400270032
:100070002A0000000000250028002B0000000000DE
:1000800023002600290004040404040404040202DA
:100090000202020203030303030301020408102007
:1000A0004080010204081020010204081020000012
:1000B0000008000201000003040700000000000027
:1000C00000001E2311241FBECFEFD8E0DEBFCDBF3E
:1000D00015E0A0E0B1E0E2E9FCE402C005900D9279
:1000E000A23CB107D9F726E0A2ECB5E001C01D9211
:1000F000A43EB207E1F710E0C2E6D0E004C02197C9
:10010000FE010E943C26C136D107C9F70E94471C58
:100110000C9447260C940000CF92DF92FF920F932D
:100120001F93CF93DF93D82FC62FF42E61E08C2F2F
:100130000E941B1B61E08D2F0E941B1B60E08D2F16
:100140000E94EC1A60E08C2F0E94EC1A07E010E08D
:10015000CC24C394D12C60E08C2F0E94EC1AB60101
:10016000002E01C0660F0A94EAF76F218D2F0E94BE
:10017000EC1A61E08C2F0E94EC1A60E08D2F0E9437
:10018000EC1A0150110938F760E08C2FDF91CF9104
:100190001F910F91FF90DF90CF900C94EC1A229A50
:1001A0008091B0008F778093B0008FB7F894239838
:1001B0002B988FBF80E027E030E061E070E0909105
:1001C00080009F7D909380002A989091B0009F7747
:1001D0009093B0001B990AC0909180009F7D9093EE
:1001E00080002A9A2150310950F70895AB01022E60
:1001F00001C0440F0A94EAF7842BEECF2F923F926E
:100200004F925F926F927F928F929F92AF92BF9226
:10021000CF92DF92EF92FF920F931F93CF93DF93D2
:10022000CDB7DEB761970FB6F894DEBF0FBECDBF76
:100230002DB73EB73F872E87809180008F778093C0
:100240008000299A8BE490E00197F1F7809180007B
:100250008F778093800029980E94CF0080931C01A3
:100260000E94CF0080931D010E94CF0080931E0149
:100270000E94CF0080931F01ACE1B1E060E04D919E
:1002800050E0862F20E030E08230C1F18330C1F1B0
:100290008130C1F18823C1F18630C1F18830C1F1CC
:1002A0008530C1F18430C1F18B30C1F18C30C1F1A6
:1002B0008A30C1F18930C1F18031C1F18131C1F1A0
:1002C0008E30C1F18D30C1F18431C1F18531C1F180
:1002D0008331C1F18231C1F18931C1F18A31C1F17A
:1002E0008831C1F18631C1F18D31C1F18E31C1F159
:1002F0008C31C1F18B31C1F1E5E437C0E0E035C0AC
:10030000E1E033C0E2E031C0E3E02FC0E4E02DC023
:10031000E5E02BC0E6E029C0E7E027C0E8E025C023
:10032000E9E023C0EAE021C0EBE01FC0ECE01DC023
:10033000EDE01BC0EEE019C0EFE017C0E0E115C032
:10034000E1E113C0E2E111C0E3E10FC0E4E10DC05F
:10035000E5E10BC0E6E109C0E7E107C0E8E105C05F
:10036000E9E103C0EAE101C0EBE1F0E08A01022E1D
:1003700002C0159507950A94E2F7E050FF4F90816F
:1003800000FF08C09A3021F09E3151F09AE008C079
:100390009EE106C0943109F442C1983209F094E11B
:1003A00090832F5F3F4F8F5F2830310509F06CCF6E
:1003B000685F603209F063CF40E051E05D874C87B1
:1003C00063EA76E07D836C835B874A87E0EEFFEF2C
:1003D000F987E88728EF3FEF3B832A833CEE3E8393
:1003E00040EF498351E05F83212C312C122DEA85A7nb jh jh kjh
:1003F000FB858191FB87EA878A3009F089C080916B
:1004000027018436A9F4143120F089818850843082
:1004100020F4809125060E94E80FFE81F43008F058
:1004200077C00E943D18809125060E94E80F70C099
:100430008091D30683FF3AC061E0822D0E94A5100F
:100440000E942A1C103138F461E0822D0E94511163
:100450000E94921006C01B3121F484E00E94081C07
:100460005BC0183109F054C08091D30682FDD9C019
:100470006FEF261A360A7F817F5F7F8389818F5FC6
:1004800089839E819F5F9E83EA81FB813196FB83F6
:10049000EA832C813D812D5F3F4F3D832C8348852E
:1004A00059854E5F5F4F59874887A0CF1831B9F4FF
:1004B0008091D605811104C080912801811118C056
:1004C0008091D505882329F01092D5050E94E11569
:1004D0000FC00E94E11581E08093D50509C01A3153
:1004E00011F482E003C01B3119F484E00E94081C5F
:1004F000009127018091D3060F3009F096C0982F04
:100500009670963009F091C0103110F40E943014AA
:100510007F817C3109F0ACCF10E0EC85FD85019145
:10052000FD87EC87043109F056C08091D30683FF24
:1005300014C060E0812F0E94A5100E942A1C103177
:1005400038F460E0812F0E9451110E94921043C044
:100550001B3109F040C084E019C01A3121F482E057
:100560000E94940B07C01B3129F484E00E94940B75
:100570000093D1050E944D19882319F0193109F40F
:1005800034C6809127018C3321F481E00E94940BC2
:1005900022C0853029F41031F0F460E0812F0CC0C6
:1005A000873069F40E94F00E9CEF910F943098F41C
:1005B000880F880F60E0890F0E94DD150CC0823023
:1005C00051F4103140F40E94EA0E813021F460E0D1
:1005D000812F0E9465101F5F1C3109F09ECF2E8570
:1005E0003F850FB6F8943EBF0FBE2DBF61960FB684
:1005F000F894DEBF0FBECDBFDF91CF911F910F9159
:10060000FF90EF90DF90CF90BF90AF909F908F9032
:100610007F906F905F904F903F902F90089598E259
:10062000BFCE88E00E94940B73CF81FF03C00F30D0
:1006300009F0A7C582FF0EC0103108F09EC51E301C
:1006400029F48091D2050E94191397C5812F0E9429
:10065000E80F93C5023018F0083071F4CAC51031A4
:1006600008F086C51093D005011102C08CE301C0CB
:1006700080E50E94E80F7CC50C3309F0D1C0193128
:10068000C1F48091D005E0919C0630E9E39FF00130
:10069000112449E0849FE00DF11D1124E55DFE4F1A
:1006A00080850E94F60E882331F081E00E94081CAC
:1006B00002C01031D0F1E0909C068091D005F0E9A5
:1006C000EF9E70011124970149E0849F200D311D98
:1006D0001124B901655D7E4F7B01FB0180850E947D
:1006E000F60E90E0409682159305FCF08091D306BB
:1006F00080FF86C50E94EA0EF701E80FF11DE80FA2
:10070000F11D8081C884D984CE0CDF1CF601808362
:100710000E94EA0EF701E80FF11DE80FF11D81813B
:10072000F601818381E00E94940BE0909C06809109
:10073000D005A82EB12CCE2CD12CF0E9EF9E700163
:100740001124970149E0849F200D311D1124B90126
:10075000655D7E4F7B01FB0180850E94FA0E18309B
:1007600020F50E94EA0EF701E80FF11DE80FF11DD8
:100770008081282F30E0022C02C0359527950A94FD
:10078000E2F720FF09C021E030E0022C01C0220F77
:100790000A94EAF7821B08C021E030E0022C01C075
:1007A000220F0A94EAF7820F8083FA81F83008F06A
:1007B000DFC40E94EA0E99E09A9DA0019B9D500D16
:1007C000112490E99C9D90019D9D300D1124240FD2
:1007D000351F280F311D280F311DF901E45DFE4F33
:1007E0008081282F30E00A8002C0359527950A9431
:1007F000E2F720FF0AC021E030E00A8002C0220FA9
:10080000331F0A94E2F7821B09C021E030E00A801E
:1008100002C0220F331F0A94E2F7820F8083A8C41C
:10082000063409F058C01031D0F4E0909C06809155
:10083000D00520E9E29E70011124A70169E0869F9E
:10084000400D511D1124FA01E55DFE4F7F01212F5E
:1008500043E060E080850E94920FF7018087F98174
:10086000F430D0F4E0909C068091D00520E9E29E1F
:1008700070011124A70169E0869F400D511D1124CC
:10088000FA01E55DFE4F7F01298145E064E0808546
:100890000E94920FF7018087FE81F43008F068C44F
:1008A000E0909C068091D00520E9E29E7001112421
:1008B000A70169E0869F400D511D1124FA01E55DF5
:1008C000FE4F7F012E8147E066E080850E94920FF7
:1008D000F70180874DC4043069F4103108F048C432
:1008E000EC81FD8140814095417061E0812F0E9443
:1008F000111C3EC4053041F4103108F039C461E0E8
:10090000812F0E94DD1534C40B30C1F5103108F081
:1009100092C20E94EA0E81110AC0EC81FD814081E1
:1009200045FB442740F981E0482760E223C081303D
:1009300051F4EC81FD81408142954F708427482F0E
:10094000417060E117C0823049F4EC81FD81408143
:100950004095441F4427441F60E80CC0833009F0D1
:100960006AC2EC81FD81408146FB442740F981E069
:10097000482760E4812F0E94111C5DC2063039F4C3
:10098000103108F0F5C3EC81FD811282F1C309300A
:1009900009F0B3C0103108F0ABC00E94EA0E782E07
:1009A0008DB69EB680919C0699E0929DF001939D34
:1009B000F00D1124A82EB12C20E9829FE00DF11D2D
:1009C0001124E55DFE4F0085802F0E94FA0EF82E5F
:1009D000802F0E94F60E90E00196082FF89E000DE1
:1009E0001124E02EF12C4DB75EB74E195F090FB6FA
:1009F000F8945EBF0FBE4DBF6DB77EB76F5F7F4F80
:100A00006B01CB018E0D9F1DFB01E817F90799F4CF
:100A1000F60140E089E0829D9001839D300D112414
:100A200050E95A9DC0015B9D900D1124280F391F7C
:100A3000255D3E4F02C01192E8CF0417A1F0842F2C
:100A4000869586958695D901A80FB11D8C9190E069
:100A5000542F577002C0959587955A95E2F781708B
:100A600081934F5FEACF812F0E94F60F772019F014
:100A70008FEF9FEF02C081E090E040919C06E0E0A4
:100A8000F0E05C01AE0CBF1C89E0829D9001839D6B
:100A9000300D112470E9479F200D311D1124255D73
:100AA0003E4F4E2FE017F8F4C5018E0F9F1FB70180
:100AB0000E942826D601A80FB91F8C91813089F495
:100AC0008E2F869586958695D901A80FB11D477002
:100AD00081E090E001C0880F4A95EAF79C91890F68
:100AE0008C933196DECF0FB6F8949EBE0FBE8DBEAE
:100AF0008981823008F03CC339C30A3009F0A1C0B3
:100B0000103108F035C3ADB6BEB680919C0699E0B1
:100B1000929DF001939DF00D1124882E912C90E967
:100B2000899FE00DF11D1124E55DFE4F0085802FAA
:100B30000E94FA0EF82E802F0E94F60E90E0019689
:100B4000082FF89E000D1124E02EF12CEDB7FEB712
:100B5000EE19FF090FB6F894FEBF0FBEEDBF2DB71B
:100B60003EB72F5F3F4F6901C9018E0D9F1DF901EF
:100B70008E179F0799F4F60140E089E0829D90016D
:100B8000839D300D112450E9589DC001599D900D51
:100B90001124280F391F255D3E4F02C01192E8CF66
:100BA0000417A1F0842F869586958695D901A80F04
:100BB000B11D8C9190E0542F577002C09595879588
:100BC0005A95E2F7817081934F5FEACF812F0E949F
:100BD000F60F20919C0631E0E31AF108D601AE0D24
:100BE000BF1D40E039E0329DC001339D900D1124BE
:100BF00050E9259F800D911D1124855D9E4F04179E
:100C0000D1F02C912130A1F4242F269526952695FC
:100C1000FC01E20FF11D242F277061E070E002C09B
:100C2000660F771F2A95E2F79B013081230F2083FF
:100C30004F5F1197E4CF0FB6F894BEBE0FBEADBEA6
:100C400097C20230E1F41031A0F40E94EA0E811143
:100C500004C0812F0E942F230CC0813029F461E051
:100C6000812F0E94651005C0412F60E082E00E9444
:100C70003E197981733008F07BC2872F77C20C3020
:100C800081F58091D605882301F1898185508330D3
:100C900058F480912A01893208F46AC28150809305
:100CA0002A010E94832364C2812F877F863021F02E
:100CB0008981895F833048F480912A01803F28F43C
:100CC0008F5F80932A010E948323111151C281E01A
:100CD0009091D605911180E08093D6050E94181757
:100CE00047C2033009F0ADC0103108F0A4C0C12CD8
:100CF000D12C89E0829DF001839DF00D1124F98BA8
:100D0000E88B0E9426242FEF30E040E050E00E9464
:100D10007D24062F0E94EA0E833090F5E12CF12C01
:100D20000E9426244B015C010E94EA0E90E001968D
:100D3000F9E1F89F2001F99F500C1124052C000CBB
:100D400066087708C501B40124E630E040E050E0D1
:100D50000E947D24461657066806790654F4802FB3
:100D600090E00E2C02C0959587950A94E2F780FDDD
:100D700033C22FEFE21AF20A38E0E316F10481F6EB
:100D800080919C06E82EF12CE889F98940E9489F7A
:100D9000E00DF11D1124E55DFE4FDF01AC0DBD1D21
:100DA0000C935FEFC51AD50A68E0C616D10409F0A6
:100DB000A8CF2081818190E0820F911D892BD9F5E8
:100DC0000E9426244B015C010E9426242B013C0139
:100DD000C501B40124E130E040E050E00E947D24F0
:100DE00021E030E06B3071058105910514F020E0C1
:100DF00030E089E0829DA001839D500D112460E9BF
:100E00006E9DC0016F9D900D1124840F951F855D0F
:100E10009E4F7C01E20EF31EC301B20127E030E0D9
:100E200040E050E00E947D2481E001C0880F6A9577
:100E3000EAF7F7018083F981F43008F099C18F2F28
:100E400095C10D3079F4103118F4412F60E006C0DF
:100E50002981283008F08CC1422F61E08DE00E948A
:100E60003E1986C1073009F05FC00E94F00E082FBE
:100E70001430C0F4880F880F810F282F30E0F9015B
:100E8000EE0FFF1F2E0F3F1FF901ED55F94F408167
:100E900043FF03C00E942F2305C04095417061E0CD
:100EA0000E94111C8981845F8430D0F4402F440F4C
:100EB000440F840F282F30E0F901EE0FFF1F2E0F93
:100EC0003F1FF901ED55F94F908193FF06C0482F60
:100ED00060E087E00E943E1903C061E00E94DD15DA
:100EE0003A813430B8F4802F880F880F830F282F71
:100EF00030E0F901EE0FFF1F2E0F3F1FF901ED55F6
:100F0000F94F408143FB442740F991E0492768E0CD
:100F10000E94111C89818C5F843008F029C10E94D5
:100F2000C50F0E94CF0F24C10F3009F045C0111129
:100F300008C081E09091DB05911180E08093DB0592
:100F400017C1113041F481E09091CC05911180E0FE
:100F50008093CC050DC1123041F481E090912501C0
:100F6000911180E08093250103C1133041F481E0A9
:100F700090912801911180E080932801F9C01430EC
:100F800041F481E090912401911180E0809324014B
:100F9000EFC0153041F481E09091CB05911180E0D4
:100FA0008093CB05E5C01C3009F0E2C088E00E94C8
:100FB000081C0E947211DCC0003509F0D9C0103144
:100FC00008F0D0C00E94EA0E0091D005E0909C0687
:100FD00081110FC0C02ED12CC601880F991F8C0D16
:100FE0009D1DAC014D55594F6A01212F47E064E02A
:100FF00010C08130A9F4C02ED12CC601880F991FD2
:101000008C0D9D1D9C012D55394F6901212F43E009
:1010100060E0F60181810E94920FF601818319C080
:101020008230B9F4F0E9EF9E60011124C60129E095
:10103000029F800D911D1124AC01455D5E4F6A0138
:10104000212F43E060E0F60180850E94920FF601B7
:101050008087C02ED12CF0E9EF9E70011124C701CA
:1010600029E0029F800D911D1124AC01455D5E4F6A
:101070007A01FA0117821682158214821382128273
:101080001182108280850E94FA0E77247394780E64
:10109000A12CB12C00E0C601880F991F8C0D9D1D5D
:1010A0009C012C55394F6901872C912CA71408F00D
:1010B00059C0F601608047E064E0862D0E94BA0EB8
:1010C000800F01E0080F43E060E0862D0E94BA0E19
:1010D000071508F443C09501280F311DC901019679
:1010E000B4010E942826282F0719E1E0F0E088309B
:1010F00010F4E0E0F0E08770992741E050E002C092
:10110000440F551F8A95E2F7CA01EE0DFF1D30818D
:10111000340F3083283018F4E2E0F0E002C0E3E05E
:10112000F0E0EE0DFF1D3081380F3083283018F0CD
:10113000E5E0F0E002C0E4E0F0E0EE0DFF1D3081FC
:10114000380F3083283018F0E7E0F0E002C0E6E026
:10115000F0E0EE0DFF1D9081890F80835FEFA51AEF
:10116000B50AA4CF6981643018F4862F0E94BB0FA2
:101170000E944D19882309F4CBC9812F0E94EB17D7
:10118000C7C91031E0F441E060E08091CA050E94D7
:10119000BA0E811107C01093D20510929C060E94CE
:1011A000E9110DC0813021F4812F0E94191307C06D
:1011B000823029F4412F62E0802F0E943E1929815C
:1011C000243008F0A5C941E060E08091CA050E9482
:1011D000920F8093CA059CC981E090E00E2C01C05B
:1011E000880F0A94EAF7081BC4CD81E00E94940B93
:1011F000C8C9103108F0BCCF1093D00586E439CAB5
:1012000089810E94BB0F91CA0E9442261F920F92B1
:101210000FB60F9211242F933F934F935F936F93C9
:101220007F938F939F93AF93BF93EF93FF93E0913F
:101230002201F09123010995FF91EF91BF91AF91A8
:101240009F918F917F916F915F914F913F912F91DE
:101250000F900FBE0F901F9018950895CF92DF92B8
:10126000EF92FF920F931F93CF93DF936C017A015C
:101270008B01C0E0D0E0CE15DF0581F0D8016D9183
:101280008D01D601ED91FC910190F081E02DC60118
:101290000995892B11F02196EECF7E01C701DF91D0
:1012A000CF911F910F91FF90EF90DF90CF90089515
:1012B00085ED8093BC008091BC0084FDFCCF109232
:1012C0007806089540910206262F30E0240F311D44
:1012D00021323105DCF4209178062430C9F4FC0178
:1012E00080E090E0861758F4309102062191DC01ED
:1012F000AE51BA4FA30FB11D2C930196F3CF80913D
:101300000206680F6093020680E0089581E0089568
:1013100082E00895089508950895E091310680913E
:101320003006E81730F4F0E0EE5CF94F808190E091
:1013300008958FEF9FEF08959091310680913006C8
:10134000981750F4E92FF0E0EE5CF94F208130E07F
:101350009F5F9093310602C02FEF3FEFC9010895C0
:101360008091300690E020913106821B910908950A
:10137000CF92DF92EF92FF920F931F93CF93DF9361
:101380007C01CB018A0120917906222389F0EB01AF
:101390006B01C40ED51ECC15DD0569F06991D7012E
:1013A000ED91FC910190F081E02DC7010995F3CFFB
:1013B000642F0E946209C801DF91CF911F910F91A4
:1013C000FF90EF90DF90CF900895CF93DF931F921F
:1013D000CDB7DEB76983209179062223D1F0209121
:1013E0009B06203240F021E030E0FC013383228371
:1013F00080E090E015C080917A06E82FF0E0E55893
:10140000F94F998190838F5F80937A0680939B0632
:1014100005C061E0CE0101960E94620981E090E082
:101420000F90DF91CF910895089580E090E00895A6
:101430001F920F920FB60F9211242F933F934F9349
:101440005F936F937F938F939F93AF93BF93EF932C
:10145000FF93E0912001F09121010995FF91EF9117
:10146000BF91AF919F918F917F916F915F914F91BC
:101470003F912F910F900FBE0F901F9018951F92C4
:101480000F920FB60F9211242F933F934F935F93B8
:101490006F937F938F939F93AF93BF93EF93FF933C
:1014A0008091B900887F803609F49CC068F5883245
:1014B00009F45BC090F4803109F454C038F48823F7
:1014C00009F4F6C0883009F44DC0F6C0883109F43B
:1014D0004CC0803209F45DC0EFC0803409F468C0AC
:1014E00048F4803309F455C0883309F0E5C080938F
:1014F0007606D8C0803509F44FC0883509F45DC040
:10150000883409F0D9C0D6C0883909F4C7C0A8F416
:10151000883709F467C038F4883609F463C0803727
:1015200009F460C0C9C0883809F4B8C0803909F42A
:101530005FC0803809F0C0C05BC0803B09F486C042
:1015400038F4803A09F466C0883A09F47FC0B4C020
:10155000803C09F4A7C0883C09F4A4C0883B09F486
:101560008AC0AAC08091530610C0909175068091E0
:101570007406981770F5E091750681E08E0F8093E0
:101580007506F0E0EC5AF94F80818093BB0085EC42
:1015900086C0809376068EC0E091750681E08E0F3E
:1015A000809375068091BB00F0E0EC5AF94F808380
:1015B00090917506809174066EC0E091750681E089
:1015C0008E0F809375068091BB00F0E0EC5AF94FC6
:1015D00080838091770681116DC081E080935206EF
:1015E00084EA61C083E08093780610922406CFCF0E
:1015F00080912406803208F051C0E091240681E0F9
:101600008E0F809324068091BB00F0E0EC5FF94FD1
:101610008083BDCF85EC8093BC00109278068091CA
:101620002406803230F4E0912406F0E0EC5FF94FBC
:1016300010826091240670E0E091C205F091C3052C
:1016400084E096E009951092240636C084E08093E9
:1016500078061092030610920206E091C405F091FC
:10166000C505099580910206811105C081E080932E
:1016700002061092E205E091030681E08E0F80934E
:101680000306F0E0EE51FA4F80818093BB00909109
:10169000030680910206981708F479CF85E88093B5
:1016A000BC000AC085EC8093BC001092780604C090
:1016B000109276060E945809FF91EF91BF91AF9169
:1016C0009F918F917F916F915F914F913F912F915A
:1016D0000F900FBE0F901F9018951F920F920FB68C
:1016E0000F9211242F933F934F935F936F937F93A8
:1016F0008F939F93AF93BF93EF93FF93E091E00598
:10170000F091E1050995FF91EF91BF91AF919F9104
:101710008F917F916F915F914F913F912F910F909A
:101720000FBE0F901F9018959091D306292F282354
:1017300019F0981B9093D30608958C33F1F08634FA
:1017400009F438C1803509F46AC18A35A1F46623E9
:1017500009F4F0C1613009F4EFC1623009F4EEC15F
:10176000633009F4EDC1643009F4ECC1653009F46B
:10177000EBC189E0089581111DC0662309F4E6C11B
:10178000613009F4E5C1623009F4E4C1633009F461
:10179000E3C1643009F4E2C1653009F4E1C16630A7
:1017A00009F4E0C1673009F4DFC1683009F0DEC137
:1017B0008DE008958230E1F4662309F4D9C16130E7
:1017C00009F4D8C1623009F4D7C1633009F4D6C135
:1017D000643009F4D5C1653009F4D4C1663009F428
:1017E000D3C1673009F4D2C1683009F0D1C108957E
:1017F0008330E9F4662309F4CDC1613009F4CCC12A
:10180000623009F4CBC1633009F4CAC1643009F411
:10181000C9C1653009F4C8C1663009F4C7C1673071
:1018200009F4C6C1683009F0C5C189E008958D305A
:10183000B9F4662309F4C0C1613009F4BFC1623054
:1018400009F4BEC1633009F4BDC1643009F4BCC100
:10185000653009F4BBC1663009F0BAC18FE0089564
:101860008930B9F4662309F4B5C1613009F4B4C113
:10187000623009F4B3C1633009F4B2C1643009F4D1
:10188000B1C1653009F4B0C1663009F4AFC184E07C
:1018900008958B30B9F4662309F4AAC1613009F4C4
:1018A000A9C1623009F4A8C1633009F4A7C164304A
:1018B00009F4A6C1653009F4A5C1663009F0A4C1D8
:1018C00087E008958A30E9F4662309F49FC1613006
:1018D00009F49EC1623009F49DC1633009F49CC1D2
:1018E000643009F49BC1653009F49AC1663009F48B
:1018F00099C1673009F498C1683009F497C18DE047
:1019000008958430E9F4662309F492C1613009F442
:1019100091C1623009F490C1633009F48FC1643021
:1019200009F48EC1653009F48DC1663009F48CC1AB
:10193000673009F48BC1683009F08AC18BE00895E3
:101940008530D1F4662309F485C1613009F484C17E
:10195000623009F483C1633009F482C1643009F450
:1019600081C1653009F480C1663009F47FC16730F8
:1019700009F07EC182E008958730D1F4662309F42E
:1019800079C1613009F478C1623009F477C16330FC
:1019900009F476C1643009F475C1653009F474C185
:1019A000663009F473C1673009F072C188E00895A8
:1019B0008830A1F4662309F46DC1613009F46CC16B
:1019C000623009F46BC1633009F46AC1643009F410
:1019D00069C1653009F068C18EE008958C30E9F482
:1019E000662309F463C1613009F462C1623009F40D
:1019F00061C1633009F460C1643009F45FC16530CE
:101A000009F45EC1663009F45DC1673009F45CC158
:101A1000683009F05BC18BE008958130E9F46623FA
:101A200009F456C1613009F455C1623009F454C15A
:101A3000633009F453C1643009F452C1653009F4CC
:101A400051C1663009F450C1673009F44FC16830A4
:101A500009F04EC18EE008958E30E9F4662309F452
:101A600049C1613009F448C1623009F447C16330AB
:101A700009F446C1643009F445C1653009F444C134
:101A8000663009F443C1673009F442C1683009F097
:101A900041C187E008958F30B9F4662309F43CC151
:101AA000613009F43BC1623009F43AC1633009F492
:101AB00039C1643009F438C1653009F437C1663082
:101AC00009F036C187E008958630B9F4662309F439
:101AD00031C1613009F430C1623009F42FC1633083
:101AE00009F42EC1643009F42DC1653009F42CC10C
:101AF000663009F02BC182E00895662309F428C1FD
:101B0000613009F427C1623009F426C1633009F459
:101B100025C1643009F424C1653009F423C166305D
:101B200009F422C1673009F421C1683009F420C1E9
:101B30008EE0089587E0089583E0089582E0089597
:101B400088E008958CE008958DE0089583E008957D
:101B500082E0089581E0089584E0089585E0089585
:101B60008AE008958BE008958EE008958CE0089552
:101B700080E0089581E0089585E0089589E0089562
:101B80008DE008958EE008958AE0089586E0089536
:101B900083E008958FE008958AE0089587E008952E
:101BA00082E0089581E0089580E0089584E008953A
:101BB00088E008958CE0089585E0089586E0089512
:101BC0008AE0089589E0089580E0089583E008950B
:101BD0008CE0089581E0089582E0089587E00895FB
:101BE0008BE008958EE008958DE0089588E00895D3
:101BF00080E0089584E0089589E008958DE00895D7
:101C00008EE008958AE0089583E008958CE00895B9
:101C100088E0089584E0089580E0089581E00895C3
:101C200082E0089587E008958BE008958EE008959E
:101C30008CE0089588E0089584E0089580E0089598
:101C400085E0089586E0089583E0089587E008958B
:101C50008FE008958AE0089589E008958CE0089562
:101C600088E0089584E0089580E0089581E0089573
:101C700083E0089589E008958AE0089587E0089553
:101C800082E0089581E0089580E0089584E0089559
:101C90008CE0089580E0089584E0089588E0089538
:101CA0008CE008958DE008958FE008958CE008950C
:101CB00088E0089589E0089584E0089581E008951A
:101CC00082E0089587E008958AE008958FE00895FE
:101CD00083E0089582E0089581E0089580E008950A
:101CE00084E0089588E008958CE008958DE00895DB
:101CF0008FE0089580E0089584E0089588E00895D5
:101D00008CE0089589E008958AE008958FE00895B1
:101D10008BE0089583E0089580E0089584E00895BD
:101D200088E008958DE008958EE008958BE0089591
:101D300083E008958FE008958EE008958DE0089582
:101D400088E0089584E0089581E0089583E008958F
:101D50008DE0089589E0089585E0089584E0089570
:101D600081E0089582E0089587E0089586E008956F
:101D70008AE00895CF93DF93E0E090E070E050E0D8
:101D8000461B570BA82FB0E081E02E2F30E0421702
:101D90005307B4F0260F371FED01022E02C0D59570
:101DA000C7950A94E2F7C0FF07C0F82F01C0FF0FE4
:101DB0002A95EAF72F2F01C020E0920FEF5FE5CFC1
:101DC000892F90E002C0959587956A95E2F7DF919B
:101DD000CF91089545E064E08091CA050C94BA0E55
:101DE00043E062E08091CA050C94BA0E45E064E0DD
:101DF0000C94BA0E43E060E00C94BA0E8F929F925E
:101E0000AF92BF92CF92DF92EF92FF920F931F9308
:101E1000CF93DF93D82E8091DF0590919C06981781
:101E200029F09091CB05911180939C069D2D9F7078
:101E300079F490919C06891759F080939C06E3EA07
:101E4000F6E01282339686E0E33DF807D1F7D12C15
:101E5000C3EAD6E000E010E089E0B82E90E9A92EB0
:101E6000ED2CF12CC02ED11003C0888185FD58C007
:101E700080919C06B09EF001B19EF00D1124A89EA9
:101E8000E00DF11D1124E55DFE4F9084892D0E9427
:101E9000F60E882E892D0E94FA0EEA81F0E0482D78
:101EA00050E04F5F5F4F282F30E02F5F3F4F429F42
:101EB000B001439F700D529F700D1124CF010E94FD
:101EC00028268A8347E066E0892D0E94BA0E682F93
:101ED00070E06F5F7F4FC7010E942826892B39F47D
:101EE000888187FD04C08C2D0E94B01701C080E05E
:101EF000682F8C2D0E9451110F5F1F4F23960031C8
:101F0000110509F0AFCFDF91CF911F910F91FF9095
:101F1000EF90DF90CF90BF90AF909F908F900895FB
:101F20001A82A6CFCF9330E070E050E0461B570BEB
:101F3000C1E0E32FF0E04E175F07B4F0E60FF71FA4
:101F4000A82FB0E00E2E02C0B595A7950A94E2F72F
:101F5000A0FF06C09C2F01C0990FEA95EAF701C0C7
:101F600090E0891B3F5FE5CF01C0220F6A95EAF739
:101F7000820FCF910895282F45E064E08091CA0533
:101F80000E94920F8093CA050895282F43E062E0D3
:101F90008091CA050E94920F8093CA0508950F93FD
:101FA0001F93CF9303EA16E0C0E060E08C2F0E94FD
:101FB000DD15F801808182FF02C084508083CF5FED
:101FC0000D5F1F4FC03189F7CF911F910F91089579
:101FD00090912701981749F01092D105809327011D
:101FE0000E94CF0F80E00C94BB0F089590919C0647
:101FF00029E0829FA001112420E9929F400D511DEC
:10200000112420E030E090E0F901E40FF51FE55DD8
:10201000FE4F10822F5F3F4F28303105A9F7FC019A
:10202000EE0FFF1F8E0F9F1FFC01ED55F94F8081B2
:1020300080FF02C0815080830895DF92EF92FF926B
:102040000F931F93CF93DF93E0909C06F12C082F02
:1020500010E00E94D616D82E89E0809FE001819F73
:10206000D00D112420E92E9DC0012F9D900D11242B
:10207000C80FD91FC55DDE4F88850E94FA0E682FF4
:10208000CD0DD11D288130E0F801EE0FFF1F0E0F9E
:102090001F1FF801ED55F94F828190E070E06F5FEE
:1020A0007F4F0E94282687709927A90102C0559565
:1020B00047958A95E2F7CA018170DF91CF911F9110
:1020C0000F91FF90EF90DF9008950F931F93CF93A0
:1020D000DF93D82F062F0E943C11C82F8D2F0E940E
:1020E0001511EC2FF0E0E352FA4F90818923A9F407
:1020F0001091DD05C091DE051092DE051092DD0520
:1021000061E0011101C060E08D2F0E9451110E9419
:1021100092101093DD05C093DE05DF91CF911F91E2
:102120000F910895CF93DF934398CDEDD5E048818B
:1021300060E18FE00E948C00498160E18FE00E94A5
:102140008C00439ADF91CF910895853009F449C0FE
:1021500098EF980F953008F463C08F3009F462C08F
:1021600093EF980F923070F090EF980F953050F0F9
:102170009BEE980F973010F0E0E001C0E3E0882379
:1021800089F101C0E2E08E3069F1873159F1833085
:1021900059F1883049F18D3039F1863129F1823099
:1021A00029F18B3019F1803109F18531F9F0813055
:1021B000F9F08A30E9F08331D9F08831C9F0843000
:1021C000C9F08930B9F08231A9F08B3199F08730AC
:1021D00099F08C3089F0813179F08A3169F082E0B0
:1021E0000CC0E1E080E809C080E407C080E205C0DF
:1021F00080E103C088E001C084E0F0E0E052F94FE4
:102200009081282F2923662329F021110DC0890FE1
:1022100080830895222319F0981B908308950895D0
:10222000E1E0B1CFE1E0DBCF08958230B8F0982F44
:10223000977F9230A9F09330A9F09CEF980F9230DD
:1022400098F0863099F08C3089F0873089F08E30A4
:1022500079F08D7F8D3071F482E0089580E80895E3
:1022600080E4089580E2089580E1089588E008956B
:1022700084E0089581E008959FEF980F923078F000
:10228000853069F0893059F095EF980F923038F029
:1022900092EF980F81E0923018F080E0089581E08D
:1022A00008951F93CF93DF93D82F162F0E943C11D0
:1022B000C82F8D2F0E941511EC2FF0E0E352FA4F3A
:1022C0009081282F2923112329F0211107C0890F7C
:1022D000808304C0222311F0981B9083DF91CF915B
:1022E0001F910895E0EEF6E01382128211821082AF
:1022F0000895CF93C0E161E08C2F0E94A510CF5FBD
:10230000C831C9F78091D405877090E061E00497E7
:102310000CF060E08091DF05805F0E94A510809145
:10232000D4058F7090E061E008970CF060E0809138
:102330009C06805F0E94A5108091D30680FF20C07C
:10234000C0E060E08C2F0E94A510CF5FC031C9F7BC
:10235000C0E06C2F8AE50E949D0B2091D4052F715F
:1023600030E061E0203131050CF060E00E94A51002
:10237000CF5FCA3071F761E089E1CF910C94A5106D
:10238000CF9108951F93CF93DF93D0E011E0CD2F2D
:10239000C170C1276C2F88E10E94A5106C2F89E1C4
:1023A0000E94A5106C2F8AE10E94A5106C2F8BE172
:1023B0000E94A5100E942A1C64E670E080E090E074
:1023C0000E94571BDF5FD53011F7DF91CF911F912E
:1023D00008956F927F928F929F92AF92BF92CF9209
:1023E000DF92EF92FF920F931F93CF93DF931092A0
:1023F000D5058091290181110FC00E947211C0E0A2
:102400006C2F88E00E949D0B61E00E94A510CF5FB9
:10241000CA30B1F70E942A1C83E090E00E945B1A48
:102420008093260184E090E00E945B1A8093D3059C
:1024300085E090E00E945B1A8093250186E090E0A1
:102440000E945B1A8093280187E090E00E945B1A4B
:102450008093240188E090E00E945B1A8093CB0572
:102460002091D205C4ECD4E02C9FC0012D9F900D8B
:1024700011240A960E945B1A80932A012091D205AA
:102480002C9FC0012D9F900D11240B960E945B1A6A
:102490008093D6052091D2052C9FC0012D9F900DD1
:1024A00011240C960E945B1A8093DB052091D205C3
:1024B0002C9FC0012D9F900D11240D960E945B1A38
:1024C0008093CC0503EA16E0C0E0D0E074ECE72E80
:1024D00074E0F72E2091D2052E9DC0012F9D900D06
:1024E00011240E968C0F9D1F0E945B1AF8018083A9
:1024F0002091D2052E9DC0012F9D900D11244E9646
:102500008C0F9D1F0E945B1AF801818321960D5F3D
:102510001F4FC031D105F1F6812C912C00E910E05C
:1025200034ECE32E34E0F32E49E0C42ED12C59E0F4
:10253000752E60E9662EC401B8010E941426EB01D5
:102540005C012091D2052E9DC0012F9D900D11247C
:102550008E96880D991D0E945B1A482FF401EF702A
:10256000FF27C40124E0969587952A95E1F7B601E7
:102570000E9414267E9E90017F9E300D11246C9E39
:10258000B0016D9E700D1124260F371F255D3E4F43
:10259000F901E80FF91F4083AB2859F48091290114
:1025A000811107C061E08C2F805F0E94A5100E94FE
:1025B0002A1CFFEF8F1A9F0A80E8881684E098068D
:1025C00009F0B9CF80912901811102C00E94C21186
:1025D0001092DF0510929C061092D00584E00E94B4
:1025E000940B80E00E94C50F84E00E94E80F0E94D7
:1025F000E1151092CF050E9418178091D605882307
:1026000021F081E090912801911180E08093D5051F
:1026100010922901DF91CF911F910F91FF90EF90C0
:10262000DF90CF90BF90AF909F908F907F906F90F2
:1026300008958F929F92AF92BF92CF92DF92EF92C6
:10264000FF920F931F93CF93DF93182F0E94721165
:10265000C0E06C2F8EE00E949D0B61E00E94A510EF
:10266000CF5FCA30B1F71830B8F440912601242F5B
:1026700030E0012E02C0359527950A94E2F720FD3F
:1026800022C081E090E0012E01C0880F0A94EAF791
:10269000840F8093260117C04091D305512F5770A6
:1026A000242F30E0052E02C0359527950A94E2F7D5
:1026B00020FD09C081E090E001C0880F5A95EAF73B
:1026C000840F8093D3056091D20582E090E00E9450
:1026D000911B6091260183E090E00E94911B609124
:1026E000D30584E090E00E94911B6091250185E074
:1026F00090E00E94911B6091280186E090E00E948A
:10270000911B6091240187E090E00E94911B6091F1
:10271000CB0588E090E00E94911B0E942A1C84EC6B
:1027200094E0189FE001199FD00D112460912A01B7
:10273000CE010A960E94911B6091D605CE010B96A0
:102740000E94911B6091DB05CE010C960E94911BAB
:102750006091CC05CE010D960E94911B73EAC72EA5
:1027600076E0D72E8E01025F1F4FE3EDEE2EE6E0FE
:10277000FE2EF6018081682F6E7F81FD02C090E001
:1027800001C092E0691B82FD02C090E001C094E0AC
:10279000691B83FD02C080E001C088E0681BC8019E
:1027A0000E94911BF6016181C80140960E94911B15
:1027B000F3E0CF0ED11C0F5F1F4FEC14FD04C9F6E0
:1027C00000E010E030E9C32ED12C49E0E42EF12CDA
:1027D00059E0852E60E9962EAE96C801B6010E949A
:1027E00014265B01F801EF70FF27C80124E09695DD
:1027F00087952A95E1F7B7010E9414268E9E9001D5
:102800008F9E300D11249A9CA0019B9C500D112489
:10281000240F351F255D3E4FF901E80FF91F608138
:10282000CE01800F911F0E94911B61E080E18A0D13
:102830000E94A5100E942A1C0F5F1F4F003884E0E1
:10284000180759F6DF91CF911F910F91FF90EF90EC
:10285000DF90CF90BF90AF909F908F900C94C2115B
:10286000AF92BF92CF92DF92FF920F931F93CF93BD
:10287000DF931092D5050E947211C0E161E08C2FA8
:102880000E94A510CF5FCC31C9F70E942A1C6BE1D2
:1028900080E090E00E94911B64E081E090E00E9463
:1028A000911B60E082E090E00E94911B61E083E078
:1028B00090E00E94911B60E084E090E00E94911BF8
:1028C00060E085E090E00E94911B61E086E090E08E
:1028D0000E94911B61E087E090E00E94911B60E004
:1028E00088E090E00E94911BC0E0D0E0F12C39E03C
:1028F000A32EB12C68E7CE010A960E94911B61E0DD
:10290000CE010B960E94911B61E0CE010C960E94B5
:10291000911B61E0CE010D960E94911B8E01025F1A
:102920001F4F6E018EE1C80ED11C60E0C8010E94ED
:10293000911B60E0C80140960E94911B0F5F1F4FE2
:10294000C016D10691F700E110E0C80124E0969589
:1029500087952A95E1F7B5010E941426892B11F07D
:1029600060E001C06FE0C8018C0D9D1D0E94911BAD
:102970000F5F1F4F003984E0180739F761E08F2D92
:102980000E94A5100E942A1CF394CC53DB4F80E1D7
:10299000F812B0CF61E88EE290E00E94911B61E0F6
:1029A0008EE390E00E94911B60E18FE290E00E9434
:1029B000911B60E18FE390E00E94911B65E580E34D
:1029C00090E00E94911B65E580E490E00E94911BDD
:1029D00060E081E390E00E94911B60E881E490E078
:1029E0000E94911B61E18EEB90E00E94911B61E1DE
:1029F0008EEC90E00E94911B60E18FEB90E00E94D2
:102A0000911B60E18FEC90E00E94911B61E180ECF2
:102A100090E00E94911B61E180ED90E00E94911B8B
:102A200064E481EC90E00E94911B64E481ED90E00D
:102A30000E94911B61E48EE491E00E94911B60E092
:102A40008EE591E00E94911B60E18FE491E00E948D
:102A5000911B60E18FE591E00E94911B6DED80E597
:102A600091E00E94911B6DEF80E691E00E94911B26
:102A700065ED81E591E00E94911B6AE581E691E0B8
:102A80000E94911B69E98EED91E00E94911B69E91A
:102A90008EEE91E00E94911B69E48FED91E00E941F
:102AA000911B64E28FEE91E00E94911B6FEF80EE2C
:102AB00091E00E94911B6FEF80EF91E00E94911BCB
:102AC00061E481EE91E00E94911B60E281EF91E070
:102AD0000E94911B6FE48EE592E00E94911B6FE4CF
:102AE0008FE592E00E94911B6FE480E692E00E94E5
:102AF000911B6FE481E692E00E94911B65E88EE6EF
:102B000092E00E94911B62E18EE792E00E94911B8D
:102B100060E98FE692E00E94911B6AE98FE792E0FC
:102B20000E94911B6FE780E792E00E94911B6FED7E
:102B300080E892E00E94911B60E881E792E00E94A9
:102B4000911B60E281E892E00E94911B61E48EEFAC
:102B500092E00E94911B61E48EE093E00E94911B41
:102B600061E18FEF92E00E94911B61E18FE093E0C1
:102B70000E94911B6DED80E093E00E94911B6DED32
:102B800080E193E00E94911B61EA81E093E00E9462
:102B9000911B63E481E193E00E94911B1092D005A8
:102BA0001092D205DF91CF911F910F91FF90DF908E
:102BB000CF90BF90AF900C94E911462F62E00C9437
:102BC000111C81E08093CE05109228061092CD054D
:102BD0008091CF05823018F0E3EAF6E015C08091CD
:102BE000D6058111F9CF809128018823A9F310928D
:102BF000CF051092DE051092DD050E9492108091A3
:102C00002901882341F008951282339686E0E33D3E
:102C1000F807D1F7ECCF8091D605811107C08091DC
:102C20002501882319F080E00C94FE0E0895809110
:102C3000D30683FD36C08091D505882391F190910C
:102C4000280681E08927809328069091D605911166
:102C500004C089B182FB882780F98093CD05882341
:102C600009F484C0992309F440C08091CF0590E015
:102C700030919C062091DF0532133DC060E470E086
:102C80000E9428268093CF05321338C08F70E9F157
:102C90008091CF058F730E94FE0E0E9492101092B9
:102CA000CE058091D7059091D805A091D905B09116
:102CB000DA058093C6059093C705A093C805B09325
:102CC000C9052FB7F89480912C0690912D06A091FC
:102CD0002E06B0912F062FBF8093D7059093D8056D
:102CE000A093D905B093DA05089580912501882332
:102CF00009F4BBCF12C060E170E0C2CF9091CB0568
:102D0000992321F220939C06C1CF80919C0628171D
:102D100009F4BECF1092CF05BBCF0E9492108091D4
:102D2000CF0590E030919C062091DF05321303C05F
:102D300060E470E002C060E170E00E9428268093A9
:102D4000CF05321729F09091CB05911120939C0665
:102D50008F7029F480919C0628131092CF058091E2
:102D6000CF058F5F8F730E94061A99CF8091CE0591
:102D7000811197CF911104C080912501811108C064
:102D80008091CF058F730E94061A0E94921008C08E
:102D90000E9492108091CF058F5F8F730E94FE0E6C
:102DA0008091CF058F5F8093CF057BCF1F93CF930B
:102DB000DF9390E0FC01EE0FFF1FE80FF91FED55C8
:102DC000F94FC281D0E020919C0639E0389FF00194
:102DD000399FF00D112480E9289FE00DF11D112489
:102DE000E55DFE4F1085812F0E94FA0E682F70E07E
:102DF0006F5F7F4FCE010E942826660F771F21E06C
:102E000030E0089714F420E030E0EB01C20FD31F4C
:102E1000812F0E94F60E682F70E06F5F7F4F660F64
:102E2000771FCE010E942826DF91CF911F91089530
:102E30008091D605882309F472C0E8988DE299E064
:102E40009093210180932001E9989093230180932E
:102E500022011092D50520912A01822F90E0A0E056
:102E6000B0E09C01AD01285231094109510960E5EA
:102E70007FEC8EEF9FEF0E94042628EC30E040E0CC
:102E800050E00E947D24BA01A901485B54496E4F6D
:102E90007F4F80E18093810010928000E3E0440F37
:102EA000551F661F771FEA95D1F74115510588E038
:102EB0006807710568F482E080932B06DB01CA0184
:102EC00033E0B695A795979587953A95D1F70CC0BD
:102ED00083E080932B06DB01CA0126E0B695A79517
:102EE000979587952A95D1F790932A06809329067E
:102EF0008091290690912A069093870080938600FE
:102F000080912B0680618093810087E196E1909308
:102F1000E1058093E00581E080936F001FC010926F
:102F20006F0081E08093D50587E196E190932101C0
:102F300080932001809169008C7F8160809369007B
:102F4000E89A81EE95E1909323018093220180918C
:102F50006900837F846080936900E99A0C94E1158D
:102F60000F931F93CF93DF93C82F0E941D10382F0C
:102F7000D0E08E01000F111FF801EC0FFD1FED5581
:102F8000F94F908196FF02C031110FC0C00FD11FC1
:102F9000CD55D94F988192FF02C021E0322790FD94
:102FA00030E091FF12C031E010C00E94262422E0E0
:102FB00030E040E050E00E947D2431E01616170614
:102FC000180619061CF330E0E1CF832FDF91CF9173
:102FD0001F910F9108951F93CF93DF93C82F8931CD
:102FE00019F481E00E94081C8091D30620EF2C0F79
:102FF00080FF32C02830E8F560919C0620E9629F8E
:10300000B001112420E9C29FC001112420E030E06A
:10301000EB01C20FD31FD901A80FB91F40E050E048
:10302000FE01E40FF51FE55DFE4F1081FA01EA0F86
:10303000FB1FE55DF7401083475F5F4F4039510547
:1030400079F72F5F3F4F2930310511F781E0DF918C
:10305000CF911F910C94940B283058F440919C060A
:1030600050E08C2F90E040974817590711F02093BB
:10307000DF05DF91CF911F910895AF92BF92CF925C
:10308000DF92EF92FF921F93CF93DF9380912706F9
:1030900081110DC080912606DF91CF911F91FF9085
:1030A000EF90DF90CF90BF90AF900C94F60F8130EF
:1030B000C1F4E091260680E9E89FF0011124E55D66
:1030C000FE4F80E09FE017821682158214821382E1
:1030D00012821182108290878F5F3996803199F722
:1030E000C3C0823009F0C0C0109126060E94721140
:1030F000C0E06C2F8DE00E949D0B61E00E94A51046
:10310000CF5FCA30B1F71830B8F480912601282F6C
:1031100030E0012E02C0359527950A94E2F720FF92
:1031200022C021E030E0012E01C0220F0A94EAF70C
:10313000821B8093260117C08091D305912F977031
:10314000282F30E0092E02C0359527950A94E2F722
:1031500020FF09C021E030E001C0220F9A95EAF774
:10316000821B8093D3056091260183E090E00E944A
:10317000911B6091D30584E090E00E94911B0E9416
:103180002A1C84EC94E0189FE001199FD00D1124B3
:1031900068E7CE010A960E94911B61E0CE010B9672
:1031A0000E94911B61E0CE010C960E94911B61E090
:1031B000CE010D960E94911B7E018EE0E80EF11C5F
:1031C0006E018EE1C80ED11C60E0C7010E94911B08
:1031D00060E0C70140960E94911B8FEFE81AF80A41
:1031E000EC14FD0489F7E12CF12C39E0C32ED12C2D
:1031F000AE9640E9A42EB12CC701409624E09695E6
:1032000087952A95E1F7B6010E941426892B11F0C3
:1032100060E001C06FE0CE018E0D9F1D0E94911BEA
:10322000C701B5010E941426862F61E0805F0E94CD
:10323000A5100E942A1C8FEFE81AF80A80E8E81609
:1032400084E0F806C9F60E94C2118091D2051813D5
:103250000BC0DF91CF911F91FF90EF90DF90CF9047
:10326000BF90AF900C94E911DF91CF911F91FF9027
:10327000EF90DF90CF90BF90AF9008958093250698
:10328000609327064093260680912401811102C095
:103290000C943D1884E60C94E80F90912701992333
:1032A00049F08CEF890F833028F081E0973019F0D6
:1032B00080E0089581E00895282F30919B063132F7
:1032C00008F04AC0809178068111FCCF9091A20647
:1032D00042E040937806209377062FEF20937606FE
:1032E0001092750630937406EBE7F6E0A4E5B6E0BD
:1032F00020E0321721F041914D932F5FFACF1092C9
:10330000530620915306990F922B90935306909158
:103310005206913061F410925206909153069093A8
:10332000BB009091BC0093FDF8CF95EC01C095EEE9
:103330009093BC00909178069230E1F390917606DC
:103340009F3F79F080917606803241F08091760639
:10335000803331F084E005C081E003C082E001C029
:1033600083E010927A0610929B06109279060895D7
:10337000833081F028F4813099F08230A1F00895F3
:103380008730A9F08830B9F08430D1F48091800082
:103390008F7D03C0809180008F7780938000089597
:1033A00084B58F7702C084B58F7D84BD08958091E8
:1033B000B0008F7703C08091B0008F7D8093B00004
:1033C00008953FB7F89480919E0690919F06A09132
:1033D000A006B091A10626B5A89B05C02F3F19F005
:1033E0000196A11DB11D3FBFBA2FA92F982F882785
:1033F000820F911DA11DB11DBC01CD0142E0660FE0
:10340000771F881F991F4A95D1F708959F92AF9211
:10341000BF92CF92DF92EF92FF920F931F93CF93C1
:10342000DF9303EA16E0C0E0D0E099E0D92E20E96E
:10343000C22EE82EF12C9C2E80919C06DC9EF00181
:10344000DD9EF00D1124C89EE00DF11D1124E55DF7
:10345000FE4F47E066E080850E94BA0E682F70E05C
:103460006F5F7F4FC7010E9428265C01F8018081B1
:10347000807921F08C2F0E94B01701C080E0682F66
:10348000892D0E945111AB2821F4F80182818F5FB0
:10349000828321960D5F1F4FC031D10561F6DF9108
:1034A000CF911F910F91FF90EF90DF90CF90BF9041
:1034B000AF909F900895CF93DF93EC0181E08093CC
:1034C000790680E58093A20610927A0610929B06F8
:1034D0008D2F90E00E94031CCE0199270E94031CAF
:1034E00081E00E945C19809178068111FCCF81E017
:1034F00080937806809377069FEF909376061092DC
:103500007506109274068093530680915306806A64
:103510008093530680915206813061F410925206D6
:10352000809153068093BB008091BC0083FDF8CF4F
:1035300085EC01C085EE8093BC00809178068130D7
:10354000E1F380917506811103C09091750601C069
:1035500091E0A4E5B6E0E2E3F6E080E0891721F02F
:103560002D9121938F5FFACF109231068093300610
:10357000882329F084ED96E00E949C0901C08FEF1A
:10358000DF91CF910895CF93DF93282F30E0F90199
:10359000E255FF4F8491F901E656FF4FD491F901AE
:1035A000EA57FF4FC491CC2391F081110E94B819C2
:1035B000EC2FF0E0EE0FFF1FE458FF4FA591B49100
:1035C000EC91ED2381E090E021F480E002C080E006
:1035D00090E0DF91CF9108951F93CF93DF93282F31
:1035E00030E0F901E255FF4F8491F901E656FF4FB3
:1035F000D491F901EA57FF4FC491CC23C1F0162FA3
:1036000081110E94B819EC2FF0E0EE0FFF1FEE5869
:10361000FF4FA591B4919FB7F894111104C08C91FC
:10362000D095D82302C0EC91DE2BDC939FBFDF91B5
:10363000CF911F910895CF93DF9390E0FC01E65660
:10364000FF4F2491FC01EA57FF4F8491882361F1D9
:1036500090E0880F991FFC01E859FF4FC591D49164
:10366000FC01EE58FF4FA591B491611109C09FB7BD
:10367000F8948881209582238883EC912E230BC0B7
:10368000623061F49FB7F8948881322F309583239C
:103690008883EC912E2B2C939FBF06C08FB7F89494
:1036A000E8812E2B28838FBFDF91CF9108958F92D1
:1036B0009F92AF92BF92CF92DF92EF92FF926B01F7
:1036C0007C010E94E1194B015C01C114D104E104A9
:1036D000F104F1F00E94E119DC01CB01881999098C
:1036E000AA09BB09883E9340A105B10570F321E00A
:1036F000C21AD108E108F10888EE880E83E0981E0E
:10370000A11CB11CC114D104E104F10419F7DDCFEF
:10371000FF90EF90DF90CF90BF90AF909F908F90F1
:1037200008951F93CF93DF93EC01162F81E08093D0
:10373000790680E58093A20610927A0610929B0685
:103740008D2F90E00E94031CCE0199270E94031C3C
:10375000612F84ED96E00E94E50981E00E945C19EA
:1037600065E070E080E090E0DF91CF911F910C94D4
:10377000571B1F920F920FB60F9211242F933F9356
:103780008F939F93AF93BF9380912C0690912D06BA
:10379000A0912E06B0912F0630919D0623E0230FB5
:1037A0002D3720F40196A11DB11D05C026E8230F79
:1037B0000296A11DB11D20939D0680932C06909327
:1037C0002D06A0932E06B0932F0680919E06909111
:1037D0009F06A091A006B091A1060196A11DB11D62
:1037E00080939E0690939F06A093A006B093A10697
:1037F000BF91AF919F918F913F912F910F900FBEED
:103800000F901F901895682F84ED96E00C94E509B1
:103810009091D306292F282319F4890F8093D3067A
:10382000089590E0FC01EE0FFF1F8E0F9F1FFC011B
:10383000ED55F94F8081442331F0982F962349F4B8
:10384000680F60830895962F982319F0861B808354
:1038500008950895CF93DF935F98C0EED6E0488136
:1038600068E086E00E948C00498168E086E00E9462
:103870008C004A8168E086E00E948C004B8168E001
:1038800086E00E948C005F9ADF91CF910895789432
:1038900084B5826084BD84B5816084BD85B5826055
:1038A00085BD85B5816085BD80916E008160809306
:1038B0006E0010928100809181008260809381006F
:1038C000809181008160809381008091800081607F
:1038D000809380008091B10084608093B1008091DA
:1038E000B00081608093B00080917A008460809302
:1038F0007A0080917A00826080937A0080917A00C9
:10390000816080937A0080917A00806880937A0049
:103910001092C10080E480937C0080917A008064E2
:1039200080937A0080917A0086FDFCCF60917800C8
:103930008091790070E0782B072E000C880B990B92
:10394000611571058105910511F00E947424109292
:1039500031061092300610927A0610929B06109251
:10396000780681E0809377061092520661E082E14A
:103970000E94EC1A61E083E10E94EC1A8091B90088
:103980008E7F8093B9008091B9008D7F8093B900BC
:1039900088E48093B80085E48093BC008AE899E0CD
:1039A0009093C5058093C4058BE899E09093C30577
:1039B0008093C205579A209A84B58F7784BD8FB7BC
:1039C000F89456985E988FBF219A229A8091B00001
:1039D0008F778093B0008FB7F89423982B988FBF80
:1039E0003B9A3A9A8FB7F894399841988FBF8FB71E
:1039F000F89452985A9A8FBF8091B0008F7D80932F
:103A0000B0008FB7F89453985B9A8FBF0E942A1C1E
:103A10000E9492100E94FE0080E090E00E945B1ADB
:103A20008B3111F00E94301482E090E00E945B1A0A
:103A30008093D2050E94E911C0E061E08C2F0E94C2
:103A4000A5100E942A1C6FE070E080E090E00E94C8
:103A5000571BCF5FC83189F701E077247394D0E911
:103A6000B0E0AB2EB0E0BB2E8091D30683FDA3C5A2
:103A70008091D4058F738093D4058091D5058823D8
:103A800009F440C02FB7F89480912C0690912D0630
:103A9000A0912E06B0912F062FBFC090D705D090D1
:103AA000D805E090D905F090DA05BC01CD016C197C
:103AB0007D098E099F090E94E5241B012C0180913C
:103AC000C6059091C705A091C805B091C905A70189
:103AD0009601281B390B4A0B5B0BCA01B9010E94E6
:103AE000E52426E636E646E65FE30E9446259B018E
:103AF000AC01C201B1010E94E024D82EDD1CDD24FE
:103B0000DD1C01C0D12CD092DC050E947211C09145
:103B10002701C43611F5C0E06C2F8DE00E949D0B8B
:103B200061E00E94A510CF5FCA30B1F78091D40543
:103B30008F7190E0C1E040970CF0C0E06C2F84E101
:103B40000E94A5106C2F85E10E94A5106C2F86E1C4
:103B50000E94A5106C2F87E11FC58091D30681FFBD
:103B600072C0CF3009F44DC0E12CF12C60912601D8
:103B700070E00E2C02C0759567950A94E2F76170AB
:103B80008E2D0E94A5106091D30570E00E2C02C00E
:103B9000759567950A94E2F7617088E08E0D0E9432
:103BA000A5103FEFE31AF30A48E0E416F104F1F63A
:103BB000C091D4058C2F8F7190E061E040970CF09C
:103BC00060E08091D2050E94A51061E080E10E9432
:103BD000A51061E081E10E94A51061E082E10E94F0
:103BE000A51041E060E08091CA050E94BA0ECF7036
:103BF0002C2F30E061E0283031050CF060E0805F70
:103C00001DC0C0E06C2F85E00E949D0B2091D40563
:103C10002F7130E061E0203131050CF060E00E944E
:103C2000A510CF5FCA3071F761E088E10E94A5104E
:103C300061E089E10E94A51061E08BE10E94A5107E
:103C400061E08AE1A9C482FF2FC0CC3321F0C634E1
:103C500011F0C03569F48091D405803248F484E1D4
:103C60008093D10561E08091D0050E94A51017C016
:103C70001091D105153108F014E11093D105F12C04
:103C80001F1551F06F2D66958C2F0E949D0B61E0E2
:103C90000E94A510F394F4CF1F5F1093D1050E94EA
:103CA000791161E08BE178C4F090CF058F2D83709E
:103CB000823020F41091CE05102701C010E0C230F0
:103CC00010F0C83089F4C0E061E08C2F0E94A5108C
:103CD000CF5FC031C9F78091CE05811150C460918A
:103CE000CD058F2D8F7049C4C03509F0B1C00E9439
:103CF000EA0E81111DC08091D00590E0FC01EE0F0D
:103D0000FF1F8E0F9F1FFC01ED55F94F47E064E048
:103D100081810E94BA0EFF24F394F80EC0E0CF1503
:103D200008F0DEC261E08C2F0E94A510CF5FF7CFB4
:103D30008130E9F48091D00590E0FC01EE0FFF1F87
:103D40008E0F9F1FFC01ED55F94F43E060E081812C
:103D50000E94BA0EFF24F394F80EC0E0CF1508F0CD
:103D6000BFC261E08C2F0E94A510CF5FF7CF8230D9
:103D700001F5C0E069E0F62E8091D005E0919C0647
:103D8000DE9FF0011124F89EE00DF11D1124E55D88
:103D9000FE4F80850E94FA0E90E02C2F30E08217B3
:103DA00093070CF49DC261E08C2F0E94A510CF5F99
:103DB000E3CF833009F094C2C0E059E0952EE09043
:103DC0009C06F12C8091D005C82ED12CDE9DF001EF
:103DD000DF9DF00D1124989EE00DF11D1124E55D8D
:103DE000FE4F80850E94FA0E90E02C2F30E0821763
:103DF00093070CF475C20E94EA0E90E0880F991F99
:103E000041E050E0C83010F440E050E09C9CB0012C
:103E10009D9C700D1124DE9D9001DF9D300D1124BD
:103E2000260F371F255D3E4F820F931FFC01E40FC5
:103E3000F51F608170E08C2F877002C075956795C3
:103E40008A95E2F761708C2F0E94A510CF5FB7CFE3
:103E5000CC3309F0D5C0E090D00580919C06CE2CE3
:103E6000D12C59E0E59E70011124F701D89FE00D97
:103E7000F11D1124E55DFE4F80850E94FA0E682F2A
:103E8000F601EE0FFF1FEC0DFD1DED55F94F828180
:103E900090E070E06F5F7F4F0E942826C62F612C54
:103EA00080919C06882E912CF701D89FE00DF11D82
:103EB0001124E55DFE4F80850E94FA0E90E0262DCC
:103EC00030E08217930744F4912C89E08C9D7001B7
:103ED0008D9DF00C112429C00E94EA0E90E0880FFD
:103EE000991F41E050E0E7E0E61510F040E050E0B7
:103EF000D89D9001D99D300D11242E0D3F1D255DBB
:103F00003E4F820F931FFC01E40FF51F608170E0AC
:103F1000862D877002C0759567958A95E2F7617066
:103F2000862D0E94A5106394BBCF80919C06F7015B
:103F3000D89FE00DF11D1124E55DFE4F80850E94A4
:103F4000F60E90E0292D30E0821793073CF061E0F7
:103F500080E1890D0E94A5109394E7CF8091D3064C
:103F600080FF21C0F12C60E08F2D0E94A510F394FA
:103F7000F0E1FF12F8CFF12C6F2D8AE50E949D0B26
:103F80002091D4052F7130E061E0203131050CF033
:103F900060E00E94A510F3942AE0F212EDCF61E0F8
:103FA00089E10E94A5100E94EA0E2091D4052F708D
:103FB00030E061E0283031050CF060E0805F0E9465
:103FC000A510C11102C0612F01C060E084E10E9410
:103FD000A510C13011F4612F01C060E085E10E949D
:103FE000A510C23011F4612F01C060E086E10E948B
:103FF000A510C33011F060E001C0612F87E1BDC2A0
:10400000C63409F060C0C0E0B9E09B2EE090D00556
:10401000F12C80919C069E9C60019F9CD00C1124E9
:10402000F601D89FE00DF11D1124E55DFE4F80855E
:104030000E94FA0E90E02C2F30E08217930714F4C0
:10404000C0E00CC061E08C2F0E94A510CF5FDECFD6
:1040500061E080E18C0F0E94A510CF5F80919C06EB
:10406000F601D89FE00DF11D1124E55DFE4F80851E
:104070000E94F60E90E02C2F30E08217930744F751
:10408000C0E089E08E9D60018F9DD00C112480914D
:104090009C06F601D89FE00DF11D1124E55DFE4F51
:1040A00047E066E080850E94BA0E90E02C2F30E059
:1040B000821793070CF463C261E084E18C0F0E94C5
:1040C000A510CF5FE4CFC930B9F4C0E0D0268C2F63
:1040D0000E941D10882311F06D2D01C061E08C2F0E
:1040E0000E94A510CF5FC03191F761E080E10E948E
:1040F000A51061E081E102C1CA3089F4C0E0D02698
:104100008C2F0E941D10882311F06D2D01C061E0DD
:104110008C2F0E94A510CF5FC03191F730C2C43000
:1041200011F5A3EAEA2EA6E0FA2EC0E0D02680918F
:10413000D505882369F0F701808180FD07C08C2FA9
:104140000E941D10882321F06D2D03C060E001C086
:1041500061E08C2F0E94A510CF5FF3E0EF0EF11C01
:10416000C03129F70CC2C53099F4F3EAEF2EF6E01E
:10417000FF2EC0E0F7016081669561708C2F0E9470
:10418000A510CF5FF3E0EF0EF11CC03199F7F7C136
:10419000C63049F4C0E061E08C2F0E94A510CF5FCB
:1041A000C031C9F7ECC1CB3089F5E3EAEE2EE6E089
:1041B000FE2EC0E00E94EA0E811106C0F701608168
:1041C00065FB662760F918C0813029F4F70160812A
:1041D0006295617011C0823031F4F7016081661F11
:1041E0006627661F09C0833031F4F701608166FBE2
:1041F000662760F901C060E08C2F0E94A510CF5F98
:10420000F3E0EF0EF11CC031A9F66AC0C23009F02C
:104210005AC0E12CF12C79E0C72ECE2D0E94EA0E77
:10422000811104C08E2D0E941D1036C0813089F18D
:10423000823089F58E2D0E941D10882311F0DD201B
:1042400051F180919C06CE9CF001CF9CF00D112481
:10425000D89FE00DF11D1124E55DFE4F8081218185
:1042600030E0280F311D8281280F311D8381280FF6
:10427000311D8481280F311D8581280F311D8681D4
:10428000280F311D8781280F311D81E0232B21F458
:1042900002C081E001C080E0682F8C2F0E94A51031
:1042A0002FEFE21AF20A30E1E316F10409F0B5CF7C
:1042B00061E080E10E94A51061E081E10E94A5100B
:1042C00061E082E11BC0C33041F5C0E08C2F0E9449
:1042D0001D10682F8C2F0E94A510CF5FC031B1F741
:1042E00061E080E10E94A51061E081E10E94A510DB
:1042F00061E082E10E94A51061E083E10E94A510C7
:104300000E94EA0E2091D4052F7030E061E0283041
:1043100031050CF060E0805F30C1CD3009F074C031
:10432000E12CF12C69E0C62ECE2D8E2D0E941D10A1
:10433000882311F0DD2039F180919C06CE9CF0019C
:10434000CF9CF00D1124D89FE00DF11D1124E55DE7
:10435000FE4F2081818190E0820F911D2281820F8A
:10436000911D2381820F911D2481820F911D258132
:10437000820F911D2681820F911D2781820F911D31
:1043800061E0892B09F460E08C2F0E94A5104FEFAB
:10439000E41AF40A50E1E516F10431F65BE2E52E89
:1043A00051E0F52EC0E1F70120E160E061111CC091
:1043B0003081818190E0830F911D3281830F911DA7
:1043C0003381830F911D3481830F911D3581830FBC
:1043D000911D3681830F911D3781830F911D61E0FF
:1043E000892B19F460E001C061E021503996211158
:1043F000DDCF61708C2F0E94A510CF5F80E9E80EA1
:10440000F11CC83181F6BBC0C73009F056C0C0E00E
:10441000D0260E94F00E880F880F8C0F282F30E0D6
:10442000F901EE0FFF1F2E0F3F1FF901ED55F94F58
:10443000908193FD23C090FD06C00E941D1088232B
:1044400021F06D2D03C060E001C061E08C2F0E945F
:10445000A5100E94F00E880F880F8C0F90E0FC01D1
:10446000EE0FFF1F8E0F9F1FFC01ED55F94F60816E
:104470006695617084E08C0F0E94A5100E94F00E7A
:10448000880F880F8C0F90E0FC01EE0FFF1F8E0F3E
:104490009F1FFC01ED55F94F608163FB662760F9B2
:1044A00088E08C0F0E94A510CF5FC43009F0B1CF17
:1044B0000E94F00E61E0845F60C0CF30A9F561E03A
:1044C0008091DB05811101C060E080E00E94A510B1
:1044D00061E08091CC05811101C060E081E00E9423
:1044E000A51061E080912501811101C060E082E0AA
:1044F0000E94A51061E080912801811101C060E057
:1045000083E00E94A51061E080912401811101C027
:1045100060E084E00E94A51061E08091CB058111EC
:1045200001C060E085E029C0CC3049F58091D60516
:10453000882309F479C061E086E00E94A51061E05B
:1045400089E00E94A51061E08AE00E94A51061E068
:104550008BE00E94A51061E08EE00E94A51061E052
:1045600085E10E94A51061E086E10E94A51061E04E
:1045700087E10E94A51061E080E00E94A5100E94E2
:104580004D1981110E9479118091D505811102C0C8
:1045900061E001C0612F88E10E94A5100E942A1CE1
:1045A0008091D4058F5F8093D4056FE070E080E048
:1045B00090E00E94571B0E94FE008091DB0588233B
:1045C000F1F08091D7059091D805A091D905B091CF
:1045D000DA0588519C4FAF4FBF4F2FB7F8944091E9
:1045E0002C0650912D0660912E0670912F062FBF3C
:1045F00084179507A607B70710F40E94E11580916C
:10460000D60581110AC080912801882331F080915C
:10461000D505811102C07092D505A114B10409F429
:1046200023CA0E9400001BCA8091D4058F7190E0BC
:1046300061E040970CF4A0CF60E09ECFE4EDF6E09F
:104640001382128288EE93E0A0E0B0E08483958329
:10465000A683B78383EB95E0918380830895EF92DF
:10466000FF920F931F93CF93DF93F82E0E941D109C
:10467000811142C0C0919C060F2D10E080E9C89FB7
:10468000E001112489E0F89EC00DD11D1124C55D03
:10469000DE4F88850E94FA0EE82E8F2D0E94D616D6
:1046A000C80FD11DF801EE0FFF1F0E0F1F1FF801DD
:1046B000ED55F94F828190E06E2D70E06F5F7F4F76
:1046C0000E9428269C012770332781E090E001C0DA
:1046D000880F2A95EAF79881890F88838091CC0505
:1046E000882351F061E08F2DDF91CF911F910F91C1
:1046F000FF90EF900C946510DF91CF911F910F9177
:10470000FF90EF90089520912A01822F90E0A0E081
:10471000B0E09C01AD01285231094109510960E521
:104720007FEC8EEF9FEF0E94042628EC30E040E003
:1047300050E00E947D24DA01C901885B9449AE4FA4
:10474000BF4FAC01BD01E3E0440F551F661F771F4B
:10475000EA95D1F74115510588E06807710568F4BD
:1047600082E080932B06DB01CA0133E0B695A79562
:10477000979587953A95D1F70CC083E080932B06E7
:10478000DB01CA0126E0B695A795979587952A95EE
:10479000D1F790932A06809329068091290690915B
:1047A0002A06909387008093860080912B06806173
:1047B0008093810008958F929F92AF92BF92CF9283
:1047C000DF92EF92FF92CF93DF93EC0168817981C2
:1047D0008A819B81611571058105910521F464E24F
:1047E00079ED8BE597E02DE133EF41E050E00E9459
:1047F0007D2449015A019B01AC01A7EAB1E40E9462
:104800009C246B017C01ACEEB4EFA50194010E94E5
:10481000AA24DC01CB018C0D9D1DAE1DBF1DB7FF71
:1048200003C00197A109B04888839983AA83BB83F9
:10483000BC01CD019F77DF91CF91FF90EF90DF908A
:10484000CF90BF90AF909F908F9008958F929F923E
:10485000AF92BF92CF92DF92EF92FF926091AB0541
:104860007091AC058091AD059091AE056115710513
:104870008105910521F464E279ED8BE597E02DE166
:1048800033EF41E050E00E947D2449015A019B0131
:10489000AC01A7EAB1E40E949C246B017C01ACEE60
:1048A000B4EFA50194010E94AA24DC01CB018C0D78
:1048B0009D1DAE1DBF1DB7FF03C00197A109B048E4
:1048C0008093AB059093AC05A093AD05B093AE0576
:1048D000BC01CD019F77FF90EF90DF90CF90BF900C
:1048E000AF909F908F9008956093AB057093AC0547
:1048F0008093AD059093AE050895052E97FB1EF4A9
:1049000000940E94942457FD07D00E94AF2407FC16
:1049100003D04EF40C9494245095409530952195F5
:104920003F4F4F4F5F4F08959095809570956195DB
:104930007F4F8F4F9F4F08950E94D124A59F900DC8
:10494000B49F900DA49F800D911D11240895B7FF71
:104950000C949C240E949C24821B930B0895A1E23A
:104960001A2EAA1BBB1BFD010DC0AA1FBB1FEE1FE9
:10497000FF1FA217B307E407F50720F0A21BB30B34
:10498000E40BF50B661F771F881F991F1A9469F7B0
:1049900060957095809590959B01AC01BD01CF010C
:1049A0000895A29FB001B39FC001A39F700D811D08
:1049B0001124911DB29F700D811D1124911D089528
:1049C0000E94222508F481E00895E89409C097FB2D
:1049D0003EF490958095709561957F4F8F4F9F4FD6
:1049E0009923A9F0F92F96E9BB279395F69587951A
:1049F00077956795B795F111F8CFFAF4BB0F11F4DD
:104A000060FF1BC06F5F7F4F8F4F9F4F16C0882383
:104A100011F096E911C0772321F09EE8872F762FB9
:104A200005C0662371F096E8862F70E060E02AF0FA
:104A30009A95660F771F881FDAF7880F96958795E6
:104A400097F90895990F0008550FAA0BE0E8FEEFBB
:104A500016161706E807F907C0F012161306E40742
:104A6000F50798F0621B730B840B950B39F40A263B
:104A700061F0232B242B252B21F408950A2609F419
:104A8000A140A6958FEF811D811D08950E94592593
:104A90000C94CA250E94BC2538F00E94C32520F042
:104AA000952311F00C94B3250C94B92511240C9482
:104AB000FE250E94DB2570F3959FC1F3950F50E012
:104AC000551F629FF001729FBB27F00DB11D639FC0
:104AD000AA27F00DB11DAA1F649F6627B00DA11D66
:104AE000661F829F2227B00DA11D621F739FB00D0C
:104AF000A11D621F839FA00D611D221F749F33277C
:104B0000A00D611D231F849F600D211D822F762F14
:104B10006A2F11249F5750409AF0F1F088234AF0F1
:104B2000EE0FFF1FBB1F661F771F881F915050405D
:104B3000A9F79E3F510580F00C94B3250C94FE25F7
:104B40005F3FE4F3983ED4F3869577956795B795E4
:104B5000F795E7959F5FC1F7FE2B880F911D9695FE
:104B6000879597F9089597F99F6780E870E060E06E
:104B700008959FEF80EC089500240A9416161706F6
:104B800018060906089500240A941216130614063E
:104B900005060895092E0394000C11F4882352F0A1
:104BA000BB0F40F4BF2B11F460FF04C06F5F7F4F59
:104BB0008F4F9F4F089557FD9058440F551F59F040
:104BC0005F3F71F04795880F97FB991F61F09F3FFA
:104BD00079F087950895121613061406551FF2CF23
:104BE0004695F1DF08C0161617061806991FF1CF73
:104BF00086957105610508940895E894BB2766279A
:104C00007727CB0197F90895DB018F939F930E943B
:104C10009C24BF91AF91A29F800D911DA39F900DE9
:104C2000B29F900D11240895AA1BBB1B51E107C030
:104C3000AA1FBB1FA617B70710F0A61BB70B881F2C
:104C4000991F5A95A9F780959095BC01CD010895BB
:104C500097FB072E16F4009407D077FD09D00E9429
:104C6000142607FC05D03EF4909581959F4F08953A
:104C7000709561957F4F0895EE0FFF1F0590F49199
:104C8000E02D099481E090E0F8940C944726F89484
:024C9000FFCF54
:104C92002828282828282828282828282828282892
:104CA200282828282828282828282828FFFFFFFF26
:104CB2002D092D0901010104010178000000000005
:104CC2000000000F00000000000000000F000000C4
:104CD20000000000000F00000000000000000F00B4
:104CE200000000000000000F0000000000000000B3
:104CF2000F00000000000000000F00000000000094
:104D020000000F00000000000000000F0000000083
:104D1200000000000F00000000000000000F000073
:104D22000000000000000F00000000000000000F63
:104D320000000000000000000F0000000000000062
:104D4200000F00000000000000003C000000000016
:104D52000000000F00000000000000000F00000033
:104D620000000000000F00000000000000000F0023
:104D7200000000000000000F000000000000000022
:104D82000F00000000000000000F00000000000003
:104D920000000F00000000000000000F00000000F3
:104DA200000000000F00000000000000000F0000E3
:104DB2000000000000000F00000000000000000FD3
:104DC20000000000000000000F00000000000000D2
:104DD200000F00000000000000003C000000000086
:104DE2000000000F00000000000000000F000000A3
:104DF20000000000000F00000000000000000F0093
:104E0200000000000000000F000000000000000091
:104E12000F00000000000000000F00000000000072
:104E220000000F00000000000000000F0000000062
:104E3200000000000F00000000000000000F000052
:104E42000000000000000F00000000000000000F42
:104E520000000000000000000F0000000000000041
:104E6200000F00000000000000003C0000000000F5
:104E72000000000F00000000000000000F00000012
:104E820000000000000F00000000000000000F0002
:104E9200000000000000000F000000000000000001
:104EA2000F00000000000000000F000000000000E2
:104EB20000000F00000000000000000F00000000D2
:104EC200000000000F00000000000000000F0000C2
:104ED2000000000000000F00000000000000000FB2
:104EE20000000000000000000F00000000000000B1
:104EF200000F00000000000000003C000000000065
:104F02000000000F00000000000000000F00000081
:104F120000000000000F00000000000000000F0071
:104F2200000000000000000F000000000000000070
:104F32000F00000000000000000F00000000000051
:104F420000000F00000000000000000F0000000041
:104F5200000000000F00000000000000000F000031
:104F62000000000000000F00000000000000000F21
:104F720000000000000000000F0000000000000020
:104F8200000F00000000000000003C0000000000D4
:104F92000000000F00000000000000000F000000F1
:104FA20000000000000F00000000000000000F00E1
:104FB200000000000000000F0000000000000000E0
:104FC2000F00000000000000000F000000000000C1
:104FD20000000F00000000000000000F00000000B1
:104FE200000000000F00000000000000000F0000A1
:104FF2000000000000000F00000000000000000F91
:1050020000000000000000000F000000000000008F
:10501200000F00000000000000003C000000000043
:105022000000000F00000000000000000F00000060
:1050320000000000000F00000000000000000F0050
:10504200000000000000000F00000000000000004F
:105052000F00000000000000000F00000000000030
:1050620000000F00000000000000000F0000000020
:10507200000000000F00000000000000000F000010
:105082000000000000000F00000000000000000F00
:1050920000000000000000000F00000000000000FF
:1050A200000F00000000000000003C0000000000B3
:1050B2000000000F00000000000000000F000000D0
:1050C20000000000000F00000000000000000F00C0
:1050D200000000000000000F0000000000000000BF
:1050E2000F00000000000000000F000000000000A0
:1050F20000000F00000000000000000F0000000090
:10510200000000000F00000000000000000F00007F
:105112000000000000000F00000000000000000F6F
:1051220000000000000000000F000000000000006E
:10513200000F00000000000000003C010000000021
:10514200000000E509B809150A8C09B0099C098D0F
:02515200090052
:00000001FF
